{
  "contractName": "AnyswapV5ERC20",
  "abi": [
    {
      "inputs": [
        {
          "internalType": "string",
          "name": "_name",
          "type": "string"
        },
        {
          "internalType": "string",
          "name": "_symbol",
          "type": "string"
        },
        {
          "internalType": "uint8",
          "name": "_decimals",
          "type": "uint8"
        },
        {
          "internalType": "address",
          "name": "_underlying",
          "type": "address"
        },
        {
          "internalType": "address",
          "name": "_vault",
          "type": "address"
        }
      ],
      "stateMutability": "nonpayable",
      "type": "constructor"
    },
    {
      "anonymous": false,
      "inputs": [
        {
          "indexed": true,
          "internalType": "address",
          "name": "owner",
          "type": "address"
        },
        {
          "indexed": true,
          "internalType": "address",
          "name": "spender",
          "type": "address"
        },
        {
          "indexed": false,
          "internalType": "uint256",
          "name": "value",
          "type": "uint256"
        }
      ],
      "name": "Approval",
      "type": "event"
    },
    {
      "anonymous": false,
      "inputs": [
        {
          "indexed": true,
          "internalType": "address",
          "name": "auth",
          "type": "address"
        },
        {
          "indexed": false,
          "internalType": "uint256",
          "name": "timestamp",
          "type": "uint256"
        }
      ],
      "name": "LogAddAuth",
      "type": "event"
    },
    {
      "anonymous": false,
      "inputs": [
        {
          "indexed": true,
          "internalType": "address",
          "name": "oldOwner",
          "type": "address"
        },
        {
          "indexed": true,
          "internalType": "address",
          "name": "newOwner",
          "type": "address"
        },
        {
          "indexed": true,
          "internalType": "uint256",
          "name": "effectiveHeight",
          "type": "uint256"
        }
      ],
      "name": "LogChangeMPCOwner",
      "type": "event"
    },
    {
      "anonymous": false,
      "inputs": [
        {
          "indexed": true,
          "internalType": "address",
          "name": "oldVault",
          "type": "address"
        },
        {
          "indexed": true,
          "internalType": "address",
          "name": "newVault",
          "type": "address"
        },
        {
          "indexed": true,
          "internalType": "uint256",
          "name": "effectiveTime",
          "type": "uint256"
        }
      ],
      "name": "LogChangeVault",
      "type": "event"
    },
    {
      "anonymous": false,
      "inputs": [
        {
          "indexed": true,
          "internalType": "bytes32",
          "name": "txhash",
          "type": "bytes32"
        },
        {
          "indexed": true,
          "internalType": "address",
          "name": "account",
          "type": "address"
        },
        {
          "indexed": false,
          "internalType": "uint256",
          "name": "amount",
          "type": "uint256"
        }
      ],
      "name": "LogSwapin",
      "type": "event"
    },
    {
      "anonymous": false,
      "inputs": [
        {
          "indexed": true,
          "internalType": "address",
          "name": "account",
          "type": "address"
        },
        {
          "indexed": true,
          "internalType": "address",
          "name": "bindaddr",
          "type": "address"
        },
        {
          "indexed": false,
          "internalType": "uint256",
          "name": "amount",
          "type": "uint256"
        }
      ],
      "name": "LogSwapout",
      "type": "event"
    },
    {
      "anonymous": false,
      "inputs": [
        {
          "indexed": true,
          "internalType": "address",
          "name": "from",
          "type": "address"
        },
        {
          "indexed": true,
          "internalType": "address",
          "name": "to",
          "type": "address"
        },
        {
          "indexed": false,
          "internalType": "uint256",
          "name": "value",
          "type": "uint256"
        }
      ],
      "name": "Transfer",
      "type": "event"
    },
    {
      "inputs": [],
      "name": "DOMAIN_SEPARATOR",
      "outputs": [
        {
          "internalType": "bytes32",
          "name": "",
          "type": "bytes32"
        }
      ],
      "stateMutability": "view",
      "type": "function"
    },
    {
      "inputs": [],
      "name": "PERMIT_TYPEHASH",
      "outputs": [
        {
          "internalType": "bytes32",
          "name": "",
          "type": "bytes32"
        }
      ],
      "stateMutability": "view",
      "type": "function"
    },
    {
      "inputs": [],
      "name": "TRANSFER_TYPEHASH",
      "outputs": [
        {
          "internalType": "bytes32",
          "name": "",
          "type": "bytes32"
        }
      ],
      "stateMutability": "view",
      "type": "function"
    },
    {
      "inputs": [
        {
          "internalType": "address",
          "name": "",
          "type": "address"
        },
        {
          "internalType": "address",
          "name": "",
          "type": "address"
        }
      ],
      "name": "allowance",
      "outputs": [
        {
          "internalType": "uint256",
          "name": "",
          "type": "uint256"
        }
      ],
      "stateMutability": "view",
      "type": "function"
    },
    {
      "inputs": [
        {
          "internalType": "address",
          "name": "",
          "type": "address"
        }
      ],
      "name": "balanceOf",
      "outputs": [
        {
          "internalType": "uint256",
          "name": "",
          "type": "uint256"
        }
      ],
      "stateMutability": "view",
      "type": "function"
    },
    {
      "inputs": [],
      "name": "decimals",
      "outputs": [
        {
          "internalType": "uint8",
          "name": "",
          "type": "uint8"
        }
      ],
      "stateMutability": "view",
      "type": "function"
    },
    {
      "inputs": [],
      "name": "delay",
      "outputs": [
        {
          "internalType": "uint256",
          "name": "",
          "type": "uint256"
        }
      ],
      "stateMutability": "view",
      "type": "function"
    },
    {
      "inputs": [],
      "name": "delayDelay",
      "outputs": [
        {
          "internalType": "uint256",
          "name": "",
          "type": "uint256"
        }
      ],
      "stateMutability": "view",
      "type": "function"
    },
    {
      "inputs": [],
      "name": "delayMinter",
      "outputs": [
        {
          "internalType": "uint256",
          "name": "",
          "type": "uint256"
        }
      ],
      "stateMutability": "view",
      "type": "function"
    },
    {
      "inputs": [],
      "name": "delayVault",
      "outputs": [
        {
          "internalType": "uint256",
          "name": "",
          "type": "uint256"
        }
      ],
      "stateMutability": "view",
      "type": "function"
    },
    {
      "inputs": [
        {
          "internalType": "address",
          "name": "",
          "type": "address"
        }
      ],
      "name": "isMinter",
      "outputs": [
        {
          "internalType": "bool",
          "name": "",
          "type": "bool"
        }
      ],
      "stateMutability": "view",
      "type": "function"
    },
    {
      "inputs": [
        {
          "internalType": "uint256",
          "name": "",
          "type": "uint256"
        }
      ],
      "name": "minters",
      "outputs": [
        {
          "internalType": "address",
          "name": "",
          "type": "address"
        }
      ],
      "stateMutability": "view",
      "type": "function"
    },
    {
      "inputs": [],
      "name": "name",
      "outputs": [
        {
          "internalType": "string",
          "name": "",
          "type": "string"
        }
      ],
      "stateMutability": "view",
      "type": "function"
    },
    {
      "inputs": [
        {
          "internalType": "address",
          "name": "",
          "type": "address"
        }
      ],
      "name": "nonces",
      "outputs": [
        {
          "internalType": "uint256",
          "name": "",
          "type": "uint256"
        }
      ],
      "stateMutability": "view",
      "type": "function"
    },
    {
      "inputs": [],
      "name": "pendingDelay",
      "outputs": [
        {
          "internalType": "uint256",
          "name": "",
          "type": "uint256"
        }
      ],
      "stateMutability": "view",
      "type": "function"
    },
    {
      "inputs": [],
      "name": "pendingMinter",
      "outputs": [
        {
          "internalType": "address",
          "name": "",
          "type": "address"
        }
      ],
      "stateMutability": "view",
      "type": "function"
    },
    {
      "inputs": [],
      "name": "pendingVault",
      "outputs": [
        {
          "internalType": "address",
          "name": "",
          "type": "address"
        }
      ],
      "stateMutability": "view",
      "type": "function"
    },
    {
      "inputs": [],
      "name": "symbol",
      "outputs": [
        {
          "internalType": "string",
          "name": "",
          "type": "string"
        }
      ],
      "stateMutability": "view",
      "type": "function"
    },
    {
      "inputs": [],
      "name": "underlying",
      "outputs": [
        {
          "internalType": "address",
          "name": "",
          "type": "address"
        }
      ],
      "stateMutability": "view",
      "type": "function"
    },
    {
      "inputs": [],
      "name": "vault",
      "outputs": [
        {
          "internalType": "address",
          "name": "",
          "type": "address"
        }
      ],
      "stateMutability": "view",
      "type": "function"
    },
    {
      "inputs": [],
      "name": "owner",
      "outputs": [
        {
          "internalType": "address",
          "name": "",
          "type": "address"
        }
      ],
      "stateMutability": "view",
      "type": "function"
    },
    {
      "inputs": [],
      "name": "mpc",
      "outputs": [
        {
          "internalType": "address",
          "name": "",
          "type": "address"
        }
      ],
      "stateMutability": "view",
      "type": "function"
    },
    {
      "inputs": [
        {
          "internalType": "bool",
          "name": "enabled",
          "type": "bool"
        }
      ],
      "name": "setVaultOnly",
      "outputs": [],
      "stateMutability": "nonpayable",
      "type": "function"
    },
    {
      "inputs": [
        {
          "internalType": "address",
          "name": "_vault",
          "type": "address"
        }
      ],
      "name": "initVault",
      "outputs": [],
      "stateMutability": "nonpayable",
      "type": "function"
    },
    {
      "inputs": [
        {
          "internalType": "address",
          "name": "_auth",
          "type": "address"
        }
      ],
      "name": "setMinter",
      "outputs": [],
      "stateMutability": "nonpayable",
      "type": "function"
    },
    {
      "inputs": [
        {
          "internalType": "address",
          "name": "_vault",
          "type": "address"
        }
      ],
      "name": "setVault",
      "outputs": [],
      "stateMutability": "nonpayable",
      "type": "function"
    },
    {
      "inputs": [],
      "name": "applyVault",
      "outputs": [],
      "stateMutability": "nonpayable",
      "type": "function"
    },
    {
      "inputs": [],
      "name": "applyMinter",
      "outputs": [],
      "stateMutability": "nonpayable",
      "type": "function"
    },
    {
      "inputs": [
        {
          "internalType": "address",
          "name": "_auth",
          "type": "address"
        }
      ],
      "name": "revokeMinter",
      "outputs": [],
      "stateMutability": "nonpayable",
      "type": "function"
    },
    {
      "inputs": [],
      "name": "getAllMinters",
      "outputs": [
        {
          "internalType": "address[]",
          "name": "",
          "type": "address[]"
        }
      ],
      "stateMutability": "view",
      "type": "function"
    },
    {
      "inputs": [
        {
          "internalType": "address",
          "name": "newVault",
          "type": "address"
        }
      ],
      "name": "changeVault",
      "outputs": [
        {
          "internalType": "bool",
          "name": "",
          "type": "bool"
        }
      ],
      "stateMutability": "nonpayable",
      "type": "function"
    },
    {
      "inputs": [
        {
          "internalType": "address",
          "name": "newVault",
          "type": "address"
        }
      ],
      "name": "changeMPCOwner",
      "outputs": [
        {
          "internalType": "bool",
          "name": "",
          "type": "bool"
        }
      ],
      "stateMutability": "nonpayable",
      "type": "function"
    },
    {
      "inputs": [
        {
          "internalType": "address",
          "name": "to",
          "type": "address"
        },
        {
          "internalType": "uint256",
          "name": "amount",
          "type": "uint256"
        }
      ],
      "name": "mint",
      "outputs": [
        {
          "internalType": "bool",
          "name": "",
          "type": "bool"
        }
      ],
      "stateMutability": "nonpayable",
      "type": "function"
    },
    {
      "inputs": [
        {
          "internalType": "address",
          "name": "from",
          "type": "address"
        },
        {
          "internalType": "uint256",
          "name": "amount",
          "type": "uint256"
        }
      ],
      "name": "burn",
      "outputs": [
        {
          "internalType": "bool",
          "name": "",
          "type": "bool"
        }
      ],
      "stateMutability": "nonpayable",
      "type": "function"
    },
    {
      "inputs": [
        {
          "internalType": "bytes32",
          "name": "txhash",
          "type": "bytes32"
        },
        {
          "internalType": "address",
          "name": "account",
          "type": "address"
        },
        {
          "internalType": "uint256",
          "name": "amount",
          "type": "uint256"
        }
      ],
      "name": "Swapin",
      "outputs": [
        {
          "internalType": "bool",
          "name": "",
          "type": "bool"
        }
      ],
      "stateMutability": "nonpayable",
      "type": "function"
    },
    {
      "inputs": [
        {
          "internalType": "uint256",
          "name": "amount",
          "type": "uint256"
        },
        {
          "internalType": "address",
          "name": "bindaddr",
          "type": "address"
        }
      ],
      "name": "Swapout",
      "outputs": [
        {
          "internalType": "bool",
          "name": "",
          "type": "bool"
        }
      ],
      "stateMutability": "nonpayable",
      "type": "function"
    },
    {
      "inputs": [],
      "name": "totalSupply",
      "outputs": [
        {
          "internalType": "uint256",
          "name": "",
          "type": "uint256"
        }
      ],
      "stateMutability": "view",
      "type": "function"
    },
    {
      "inputs": [
        {
          "internalType": "address",
          "name": "target",
          "type": "address"
        },
        {
          "internalType": "uint256",
          "name": "value",
          "type": "uint256"
        },
        {
          "internalType": "uint256",
          "name": "deadline",
          "type": "uint256"
        },
        {
          "internalType": "uint8",
          "name": "v",
          "type": "uint8"
        },
        {
          "internalType": "bytes32",
          "name": "r",
          "type": "bytes32"
        },
        {
          "internalType": "bytes32",
          "name": "s",
          "type": "bytes32"
        },
        {
          "internalType": "address",
          "name": "to",
          "type": "address"
        }
      ],
      "name": "depositWithPermit",
      "outputs": [
        {
          "internalType": "uint256",
          "name": "",
          "type": "uint256"
        }
      ],
      "stateMutability": "nonpayable",
      "type": "function"
    },
    {
      "inputs": [
        {
          "internalType": "address",
          "name": "target",
          "type": "address"
        },
        {
          "internalType": "uint256",
          "name": "value",
          "type": "uint256"
        },
        {
          "internalType": "uint256",
          "name": "deadline",
          "type": "uint256"
        },
        {
          "internalType": "uint8",
          "name": "v",
          "type": "uint8"
        },
        {
          "internalType": "bytes32",
          "name": "r",
          "type": "bytes32"
        },
        {
          "internalType": "bytes32",
          "name": "s",
          "type": "bytes32"
        },
        {
          "internalType": "address",
          "name": "to",
          "type": "address"
        }
      ],
      "name": "depositWithTransferPermit",
      "outputs": [
        {
          "internalType": "uint256",
          "name": "",
          "type": "uint256"
        }
      ],
      "stateMutability": "nonpayable",
      "type": "function"
    },
    {
      "inputs": [
        {
          "internalType": "uint256",
          "name": "amount",
          "type": "uint256"
        },
        {
          "internalType": "address",
          "name": "to",
          "type": "address"
        }
      ],
      "name": "deposit",
      "outputs": [
        {
          "internalType": "uint256",
          "name": "",
          "type": "uint256"
        }
      ],
      "stateMutability": "nonpayable",
      "type": "function"
    },
    {
      "inputs": [
        {
          "internalType": "uint256",
          "name": "amount",
          "type": "uint256"
        }
      ],
      "name": "deposit",
      "outputs": [
        {
          "internalType": "uint256",
          "name": "",
          "type": "uint256"
        }
      ],
      "stateMutability": "nonpayable",
      "type": "function"
    },
    {
      "inputs": [],
      "name": "deposit",
      "outputs": [
        {
          "internalType": "uint256",
          "name": "",
          "type": "uint256"
        }
      ],
      "stateMutability": "nonpayable",
      "type": "function"
    },
    {
      "inputs": [
        {
          "internalType": "uint256",
          "name": "amount",
          "type": "uint256"
        },
        {
          "internalType": "address",
          "name": "to",
          "type": "address"
        }
      ],
      "name": "depositVault",
      "outputs": [
        {
          "internalType": "uint256",
          "name": "",
          "type": "uint256"
        }
      ],
      "stateMutability": "nonpayable",
      "type": "function"
    },
    {
      "inputs": [
        {
          "internalType": "uint256",
          "name": "amount",
          "type": "uint256"
        },
        {
          "internalType": "address",
          "name": "to",
          "type": "address"
        }
      ],
      "name": "withdraw",
      "outputs": [
        {
          "internalType": "uint256",
          "name": "",
          "type": "uint256"
        }
      ],
      "stateMutability": "nonpayable",
      "type": "function"
    },
    {
      "inputs": [
        {
          "internalType": "uint256",
          "name": "amount",
          "type": "uint256"
        }
      ],
      "name": "withdraw",
      "outputs": [
        {
          "internalType": "uint256",
          "name": "",
          "type": "uint256"
        }
      ],
      "stateMutability": "nonpayable",
      "type": "function"
    },
    {
      "inputs": [],
      "name": "withdraw",
      "outputs": [
        {
          "internalType": "uint256",
          "name": "",
          "type": "uint256"
        }
      ],
      "stateMutability": "nonpayable",
      "type": "function"
    },
    {
      "inputs": [
        {
          "internalType": "address",
          "name": "from",
          "type": "address"
        },
        {
          "internalType": "uint256",
          "name": "amount",
          "type": "uint256"
        },
        {
          "internalType": "address",
          "name": "to",
          "type": "address"
        }
      ],
      "name": "withdrawVault",
      "outputs": [
        {
          "internalType": "uint256",
          "name": "",
          "type": "uint256"
        }
      ],
      "stateMutability": "nonpayable",
      "type": "function"
    },
    {
      "inputs": [
        {
          "internalType": "address",
          "name": "spender",
          "type": "address"
        },
        {
          "internalType": "uint256",
          "name": "value",
          "type": "uint256"
        }
      ],
      "name": "approve",
      "outputs": [
        {
          "internalType": "bool",
          "name": "",
          "type": "bool"
        }
      ],
      "stateMutability": "nonpayable",
      "type": "function"
    },
    {
      "inputs": [
        {
          "internalType": "address",
          "name": "spender",
          "type": "address"
        },
        {
          "internalType": "uint256",
          "name": "value",
          "type": "uint256"
        },
        {
          "internalType": "bytes",
          "name": "data",
          "type": "bytes"
        }
      ],
      "name": "approveAndCall",
      "outputs": [
        {
          "internalType": "bool",
          "name": "",
          "type": "bool"
        }
      ],
      "stateMutability": "nonpayable",
      "type": "function"
    },
    {
      "inputs": [
        {
          "internalType": "address",
          "name": "target",
          "type": "address"
        },
        {
          "internalType": "address",
          "name": "spender",
          "type": "address"
        },
        {
          "internalType": "uint256",
          "name": "value",
          "type": "uint256"
        },
        {
          "internalType": "uint256",
          "name": "deadline",
          "type": "uint256"
        },
        {
          "internalType": "uint8",
          "name": "v",
          "type": "uint8"
        },
        {
          "internalType": "bytes32",
          "name": "r",
          "type": "bytes32"
        },
        {
          "internalType": "bytes32",
          "name": "s",
          "type": "bytes32"
        }
      ],
      "name": "permit",
      "outputs": [],
      "stateMutability": "nonpayable",
      "type": "function"
    },
    {
      "inputs": [
        {
          "internalType": "address",
          "name": "target",
          "type": "address"
        },
        {
          "internalType": "address",
          "name": "to",
          "type": "address"
        },
        {
          "internalType": "uint256",
          "name": "value",
          "type": "uint256"
        },
        {
          "internalType": "uint256",
          "name": "deadline",
          "type": "uint256"
        },
        {
          "internalType": "uint8",
          "name": "v",
          "type": "uint8"
        },
        {
          "internalType": "bytes32",
          "name": "r",
          "type": "bytes32"
        },
        {
          "internalType": "bytes32",
          "name": "s",
          "type": "bytes32"
        }
      ],
      "name": "transferWithPermit",
      "outputs": [
        {
          "internalType": "bool",
          "name": "",
          "type": "bool"
        }
      ],
      "stateMutability": "nonpayable",
      "type": "function"
    },
    {
      "inputs": [
        {
          "internalType": "address",
          "name": "to",
          "type": "address"
        },
        {
          "internalType": "uint256",
          "name": "value",
          "type": "uint256"
        }
      ],
      "name": "transfer",
      "outputs": [
        {
          "internalType": "bool",
          "name": "",
          "type": "bool"
        }
      ],
      "stateMutability": "nonpayable",
      "type": "function"
    },
    {
      "inputs": [
        {
          "internalType": "address",
          "name": "from",
          "type": "address"
        },
        {
          "internalType": "address",
          "name": "to",
          "type": "address"
        },
        {
          "internalType": "uint256",
          "name": "value",
          "type": "uint256"
        }
      ],
      "name": "transferFrom",
      "outputs": [
        {
          "internalType": "bool",
          "name": "",
          "type": "bool"
        }
      ],
      "stateMutability": "nonpayable",
      "type": "function"
    },
    {
      "inputs": [
        {
          "internalType": "address",
          "name": "to",
          "type": "address"
        },
        {
          "internalType": "uint256",
          "name": "value",
          "type": "uint256"
        },
        {
          "internalType": "bytes",
          "name": "data",
          "type": "bytes"
        }
      ],
      "name": "transferAndCall",
      "outputs": [
        {
          "internalType": "bool",
          "name": "",
          "type": "bool"
        }
      ],
      "stateMutability": "nonpayable",
      "type": "function"
    }
  ],
  "bytecode": "0x60e06040526202a3006005553480156200001857600080fd5b50604051620058b1380380620058b183398181016040528101906200003e91906200044e565b846000908051906020019062000056929190620002fe565b5083600190805190602001906200006f929190620002fe565b508260ff1660808160ff1660f81b815250508173ffffffffffffffffffffffffffffffffffffffff1660a08173ffffffffffffffffffffffffffffffffffffffff1660601b81525050600073ffffffffffffffffffffffffffffffffffffffff168273ffffffffffffffffffffffffffffffffffffffff161462000182578173ffffffffffffffffffffffffffffffffffffffff1663313ce5676040518163ffffffff1660e01b815260040160206040518083038186803b1580156200013457600080fd5b505afa15801562000149573d6000803e3d6000fd5b505050506040513d601f19601f820116820180604052508101906200016f919062000502565b60ff168360ff16146200018157600080fd5b5b6001600460006101000a81548160ff0219169083151502179055506000600460016101000a81548160ff02191690831515021790555080600860006101000a81548173ffffffffffffffffffffffffffffffffffffffff021916908373ffffffffffffffffffffffffffffffffffffffff16021790555080600b60006101000a81548173ffffffffffffffffffffffffffffffffffffffff021916908373ffffffffffffffffffffffffffffffffffffffff16021790555042600c8190555060004690507f8b73c3c69bb8fe3d512ecc4cf759cc79239f7b179b0ffacaa9a75d522b39400f6000604051620002789190620005ec565b60405180910390206040518060400160405280600181526020017f3100000000000000000000000000000000000000000000000000000000000000815250805190602001208330604051602001620002d595949392919062000605565b6040516020818303038152906040528051906020012060c081815250505050505050506200087b565b8280546200030c906200076c565b90600052602060002090601f0160209004810192826200033057600085556200037c565b82601f106200034b57805160ff19168380011785556200037c565b828001600101855582156200037c579182015b828111156200037b5782518255916020019190600101906200035e565b5b5090506200038b91906200038f565b5090565b5b80821115620003aa57600081600090555060010162000390565b5090565b6000620003c5620003bf846200068b565b62000662565b905082815260208101848484011115620003de57600080fd5b620003eb84828562000736565b509392505050565b600081519050620004048162000847565b92915050565b600082601f8301126200041c57600080fd5b81516200042e848260208601620003ae565b91505092915050565b600081519050620004488162000861565b92915050565b600080600080600060a086880312156200046757600080fd5b600086015167ffffffffffffffff8111156200048257600080fd5b62000490888289016200040a565b955050602086015167ffffffffffffffff811115620004ae57600080fd5b620004bc888289016200040a565b9450506040620004cf8882890162000437565b9350506060620004e288828901620003f3565b9250506080620004f588828901620003f3565b9150509295509295909350565b6000602082840312156200051557600080fd5b6000620005258482850162000437565b91505092915050565b6200053981620006e1565b82525050565b6200054a81620006f5565b82525050565b600081546200055f816200076c565b6200056b8186620006d6565b945060018216600081146200058957600181146200059b57620005d2565b60ff19831686528186019350620005d2565b620005a685620006c1565b60005b83811015620005ca57815481890152600182019150602081019050620005a9565b838801955050505b50505092915050565b620005e6816200071f565b82525050565b6000620005fa828462000550565b915081905092915050565b600060a0820190506200061c60008301886200053f565b6200062b60208301876200053f565b6200063a60408301866200053f565b620006496060830185620005db565b6200065860808301846200052e565b9695505050505050565b60006200066e62000681565b90506200067c8282620007a2565b919050565b6000604051905090565b600067ffffffffffffffff821115620006a957620006a862000807565b5b620006b48262000836565b9050602081019050919050565b60008190508160005260206000209050919050565b600081905092915050565b6000620006ee82620006ff565b9050919050565b6000819050919050565b600073ffffffffffffffffffffffffffffffffffffffff82169050919050565b6000819050919050565b600060ff82169050919050565b60005b838110156200075657808201518184015260208101905062000739565b8381111562000766576000848401525b50505050565b600060028204905060018216806200078557607f821691505b602082108114156200079c576200079b620007d8565b5b50919050565b620007ad8262000836565b810181811067ffffffffffffffff82111715620007cf57620007ce62000807565b5b80604052505050565b7f4e487b7100000000000000000000000000000000000000000000000000000000600052602260045260246000fd5b7f4e487b7100000000000000000000000000000000000000000000000000000000600052604160045260246000fd5b6000601f19601f8301169050919050565b6200085281620006e1565b81146200085e57600080fd5b50565b6200086c8162000729565b81146200087857600080fd5b50565b60805160f81c60a05160601c60c051614fac620009056000396000818161156e015281816135940152613a9d01526000818161225c015281816122b50152818161230b015281816123a8015281816128ea01528181612cb801528181612d6901528181613225015281816133f80152818161396801526139bf0152600061154a0152614fac6000f3fe608060405234801561001057600080fd5b506004361061033f5760003560e01c80637ecebe00116101b8578063bebbf4d011610104578063d93f2445116100a2578063f75c26641161007c578063f75c266414610a9e578063f954734e14610abc578063fbfa77cf14610aec578063fca3b5aa14610b0a5761033f565b8063d93f244514610a34578063dd62ed3e14610a3e578063ec126c7714610a6e5761033f565b8063cae9ca51116100de578063cae9ca51146109ae578063cfbd4885146109de578063d0e30db0146109fa578063d505accf14610a185761033f565b8063bebbf4d014610944578063c308124014610974578063c4b740f5146109925761033f565b806395d89b4111610171578063a29dff721161014b578063a29dff7214610896578063a9059cbb146108b4578063aa271e1a146108e4578063b6b55f25146109145761033f565b806395d89b411461082a5780639dc29fac14610848578063a045442c146108785761033f565b80637ecebe001461074057806381a37c18146107705780638623ec7b146107a057806387689e28146107d05780638da5cb5b146107ee57806391c5df491461080c5761033f565b80633ccfd60b1161029257806360e232a9116102305780636a42b8f81161020a5780636a42b8f8146106a45780636e553f65146106c25780636f307dc3146106f257806370a08231146107105761033f565b806360e232a914610628578063628d6cba146106585780636817031b146106885761033f565b80634ca8f0ed1161026c5780634ca8f0ed1461058c57806352113ba7146105aa5780635f9b105d146105c8578063605629d6146105f85761033f565b80633ccfd60b1461050e5780634000aea01461052c57806340c10f191461055c5761033f565b806318160ddd116102ff5780632ebe3fbb116102d95780632ebe3fbb1461049857806330adf81f146104b4578063313ce567146104d25780633644e515146104f05761033f565b806318160ddd1461041a57806323b872dd146104385780632e1a7d4d146104685761033f565b806239d6ec14610344578062bf26f414610374578062f714ce1461039257806306fdde03146103c2578063095ea7b3146103e05780630d707df814610410575b600080fd5b61035e60048036038101906103599190613f12565b610b26565b60405161036b9190614951565b60405180910390f35b61037c610bb1565b60405161038991906146ee565b60405180910390f35b6103ac60048036038101906103a7919061415e565b610bd5565b6040516103b99190614951565b60405180910390f35b6103ca610bea565b6040516103d791906147af565b60405180910390f35b6103fa60048036038101906103f59190613ed6565b610c78565b60405161040791906146d3565b60405180910390f35b610418610d6a565b005b610422610eef565b60405161042f9190614951565b60405180910390f35b610452600480360381019061044d9190613de9565b610ef9565b60405161045f91906146d3565b60405180910390f35b610482600480360381019061047d919061410c565b611320565b60405161048f9190614951565b60405180910390f35b6104b260048036038101906104ad9190613d84565b611334565b005b6104bc611524565b6040516104c991906146ee565b60405180910390f35b6104da611548565b6040516104e7919061496c565b60405180910390f35b6104f861156c565b60405161050591906146ee565b60405180910390f35b610516611590565b6040516105239190614951565b60405180910390f35b61054660048036038101906105419190613f61565b6115e1565b60405161055391906146d3565b60405180910390f35b61057660048036038101906105719190613ed6565b611880565b60405161058391906146d3565b60405180910390f35b610594611922565b6040516105a19190614951565b60405180910390f35b6105b2611928565b6040516105bf9190614587565b60405180910390f35b6105e260048036038101906105dd9190613d84565b61194e565b6040516105ef91906146d3565b60405180910390f35b610612600480360381019061060d9190613e38565b611b34565b60405161061f91906146d3565b60405180910390f35b610642600480360381019061063d9190613d84565b611e5e565b60405161064f91906146d3565b60405180910390f35b610672600480360381019061066d919061415e565b612044565b60405161067f91906146d3565b60405180910390f35b6106a2600480360381019061069d9190613d84565b61217f565b005b6106ac61224c565b6040516106b99190614951565b60405180910390f35b6106dc60048036038101906106d7919061415e565b612252565b6040516106e99190614951565b60405180910390f35b6106fa6122b3565b6040516107079190614587565b60405180910390f35b61072a60048036038101906107259190613d84565b6122d7565b6040516107379190614951565b60405180910390f35b61075a60048036038101906107559190613d84565b6122ef565b6040516107679190614951565b60405180910390f35b61078a60048036038101906107859190613fcd565b612307565b6040516107979190614951565b60405180910390f35b6107ba60048036038101906107b5919061410c565b612404565b6040516107c79190614587565b60405180910390f35b6107d8612443565b6040516107e59190614951565b60405180910390f35b6107f6612449565b6040516108039190614587565b60405180910390f35b610814612458565b6040516108219190614587565b60405180910390f35b61083261247e565b60405161083f91906147af565b60405180910390f35b610862600480360381019061085d9190613ed6565b61250c565b60405161086f91906146d3565b60405180910390f35b61088061261e565b60405161088d91906146b1565b60405180910390f35b61089e6126ac565b6040516108ab9190614951565b60405180910390f35b6108ce60048036038101906108c99190613ed6565b6126b2565b6040516108db91906146d3565b60405180910390f35b6108fe60048036038101906108f99190613d84565b6128c0565b60405161090b91906146d3565b60405180910390f35b61092e6004803603810190610929919061410c565b6128e0565b60405161093b9190614951565b60405180910390f35b61095e6004803603810190610959919061415e565b612940565b60405161096b9190614951565b60405180910390f35b61097c6129c9565b6040516109899190614951565b60405180910390f35b6109ac60048036038101906109a7919061406b565b6129cf565b005b6109c860048036038101906109c39190613f61565b612a61565b6040516109d591906146d3565b60405180910390f35b6109f860048036038101906109f39190613d84565b612be3565b005b610a02612cb3565b604051610a0f9190614951565b60405180910390f35b610a326004803603810190610a2d9190613e38565b612dbe565b005b610a3c612fc3565b005b610a586004803603810190610a539190613dad565b6130ac565b604051610a659190614951565b60405180910390f35b610a886004803603810190610a8391906140bd565b6130d1565b604051610a9591906146d3565b60405180910390f35b610aa66131c3565b604051610ab39190614587565b60405180910390f35b610ad66004803603810190610ad19190613fcd565b613221565b604051610ae39190614951565b60405180910390f35b610af46132f2565b604051610b019190614587565b60405180910390f35b610b246004803603810190610b1f9190613d84565b613318565b005b6000610b306131c3565b73ffffffffffffffffffffffffffffffffffffffff163373ffffffffffffffffffffffffffffffffffffffff1614610b9d576040517f08c379a0000000000000000000000000000000000000000000000000000000008152600401610b94906147d1565b60405180910390fd5b610ba88484846133e5565b90509392505050565b7f42ce63790c28229c123925d83266e77c04d28784552ab68b350a9003226cbd5981565b6000610be23384846133e5565b905092915050565b60008054610bf790614b39565b80601f0160208091040260200160405190810160405280929190818152602001828054610c2390614b39565b8015610c705780601f10610c4557610100808354040283529160200191610c70565b820191906000526020600020905b815481529060010190602001808311610c5357829003601f168201915b505050505081565b600081601060003373ffffffffffffffffffffffffffffffffffffffff1673ffffffffffffffffffffffffffffffffffffffff16815260200190815260200160002060008573ffffffffffffffffffffffffffffffffffffffff1673ffffffffffffffffffffffffffffffffffffffff168152602001908152602001600020819055508273ffffffffffffffffffffffffffffffffffffffff163373ffffffffffffffffffffffffffffffffffffffff167f8c5be1e5ebec7d5bd14f71427d1e84f3dd0314c0f7b2291e5b200ac8c7c3b92584604051610d589190614951565b60405180910390a36001905092915050565b610d726131c3565b73ffffffffffffffffffffffffffffffffffffffff163373ffffffffffffffffffffffffffffffffffffffff1614610ddf576040517f08c379a0000000000000000000000000000000000000000000000000000000008152600401610dd6906147d1565b60405180910390fd5b600a54421015610dee57600080fd5b600160066000600960009054906101000a900473ffffffffffffffffffffffffffffffffffffffff1673ffffffffffffffffffffffffffffffffffffffff1673ffffffffffffffffffffffffffffffffffffffff16815260200190815260200160002060006101000a81548160ff0219169083151502179055506007600960009054906101000a900473ffffffffffffffffffffffffffffffffffffffff169080600181540180825580915050600190039060005260206000200160009091909190916101000a81548173ffffffffffffffffffffffffffffffffffffffff021916908373ffffffffffffffffffffffffffffffffffffffff160217905550565b6000600354905090565b60008073ffffffffffffffffffffffffffffffffffffffff168373ffffffffffffffffffffffffffffffffffffffff16141580610f6257503073ffffffffffffffffffffffffffffffffffffffff168373ffffffffffffffffffffffffffffffffffffffff1614155b610f6b57600080fd5b3373ffffffffffffffffffffffffffffffffffffffff168473ffffffffffffffffffffffffffffffffffffffff1614611183576000601060008673ffffffffffffffffffffffffffffffffffffffff1673ffffffffffffffffffffffffffffffffffffffff16815260200190815260200160002060003373ffffffffffffffffffffffffffffffffffffffff1673ffffffffffffffffffffffffffffffffffffffff1681526020019081526020016000205490507fffffffffffffffffffffffffffffffffffffffffffffffffffffffffffffffff81146111815782811015611089576040517f08c379a0000000000000000000000000000000000000000000000000000000008152600401611080906148d1565b60405180910390fd5b600083826110979190614a64565b905080601060008873ffffffffffffffffffffffffffffffffffffffff1673ffffffffffffffffffffffffffffffffffffffff16815260200190815260200160002060003373ffffffffffffffffffffffffffffffffffffffff1673ffffffffffffffffffffffffffffffffffffffff168152602001908152602001600020819055503373ffffffffffffffffffffffffffffffffffffffff168673ffffffffffffffffffffffffffffffffffffffff167f8c5be1e5ebec7d5bd14f71427d1e84f3dd0314c0f7b2291e5b200ac8c7c3b925836040516111779190614951565b60405180910390a3505b505b6000600260008673ffffffffffffffffffffffffffffffffffffffff1673ffffffffffffffffffffffffffffffffffffffff1681526020019081526020016000205490508281101561120a576040517f08c379a000000000000000000000000000000000000000000000000000000000815260040161120190614831565b60405180910390fd5b82816112169190614a64565b600260008773ffffffffffffffffffffffffffffffffffffffff1673ffffffffffffffffffffffffffffffffffffffff1681526020019081526020016000208190555082600260008673ffffffffffffffffffffffffffffffffffffffff1673ffffffffffffffffffffffffffffffffffffffff16815260200190815260200160002060008282546112a89190614a0e565b925050819055508373ffffffffffffffffffffffffffffffffffffffff168573ffffffffffffffffffffffffffffffffffffffff167fddf252ad1be2c89b69c2b068fc378daa952ba7f163c4a11628f55a4df523b3ef8560405161130c9190614951565b60405180910390a360019150509392505050565b600061132d3383336133e5565b9050919050565b61133c6131c3565b73ffffffffffffffffffffffffffffffffffffffff163373ffffffffffffffffffffffffffffffffffffffff16146113a9576040517f08c379a00000000000000000000000000000000000000000000000000000000081526004016113a0906147d1565b60405180910390fd5b600460009054906101000a900460ff166113c257600080fd5b80600860006101000a81548173ffffffffffffffffffffffffffffffffffffffff021916908373ffffffffffffffffffffffffffffffffffffffff16021790555080600b60006101000a81548173ffffffffffffffffffffffffffffffffffffffff021916908373ffffffffffffffffffffffffffffffffffffffff1602179055506001600660008373ffffffffffffffffffffffffffffffffffffffff1673ffffffffffffffffffffffffffffffffffffffff16815260200190815260200160002060006101000a81548160ff0219169083151502179055506007819080600181540180825580915050600190039060005260206000200160009091909190916101000a81548173ffffffffffffffffffffffffffffffffffffffff021916908373ffffffffffffffffffffffffffffffffffffffff16021790555042600c819055506000600460006101000a81548160ff02191690831515021790555050565b7f6e71edae12b1b97f4d1f60370fef10105fa2faae0126114a169c64845d6126c981565b7f000000000000000000000000000000000000000000000000000000000000000081565b7f000000000000000000000000000000000000000000000000000000000000000081565b60006115dc33600260003373ffffffffffffffffffffffffffffffffffffffff1673ffffffffffffffffffffffffffffffffffffffff16815260200190815260200160002054336133e5565b905090565b60008073ffffffffffffffffffffffffffffffffffffffff168573ffffffffffffffffffffffffffffffffffffffff1614158061164a57503073ffffffffffffffffffffffffffffffffffffffff168573ffffffffffffffffffffffffffffffffffffffff1614155b61165357600080fd5b6000600260003373ffffffffffffffffffffffffffffffffffffffff1673ffffffffffffffffffffffffffffffffffffffff168152602001908152602001600020549050848110156116da576040517f08c379a00000000000000000000000000000000000000000000000000000000081526004016116d190614831565b60405180910390fd5b84816116e69190614a64565b600260003373ffffffffffffffffffffffffffffffffffffffff1673ffffffffffffffffffffffffffffffffffffffff1681526020019081526020016000208190555084600260008873ffffffffffffffffffffffffffffffffffffffff1673ffffffffffffffffffffffffffffffffffffffff16815260200190815260200160002060008282546117789190614a0e565b925050819055508573ffffffffffffffffffffffffffffffffffffffff163373ffffffffffffffffffffffffffffffffffffffff167fddf252ad1be2c89b69c2b068fc378daa952ba7f163c4a11628f55a4df523b3ef876040516117dc9190614951565b60405180910390a38573ffffffffffffffffffffffffffffffffffffffff1663a4c0ed36338787876040518563ffffffff1660e01b81526004016118239493929190614671565b602060405180830381600087803b15801561183d57600080fd5b505af1158015611851573d6000803e3d6000fd5b505050506040513d601f19601f820116820180604052508101906118759190614094565b915050949350505050565b6000600660003373ffffffffffffffffffffffffffffffffffffffff1673ffffffffffffffffffffffffffffffffffffffff16815260200190815260200160002060009054906101000a900460ff1661190e576040517f08c379a000000000000000000000000000000000000000000000000000000000815260040161190590614891565b60405180910390fd5b6119188383613446565b6001905092915050565b600d5481565b600b60009054906101000a900473ffffffffffffffffffffffffffffffffffffffff1681565b60006119586131c3565b73ffffffffffffffffffffffffffffffffffffffff163373ffffffffffffffffffffffffffffffffffffffff16146119c5576040517f08c379a00000000000000000000000000000000000000000000000000000000081526004016119bc906147d1565b60405180910390fd5b600073ffffffffffffffffffffffffffffffffffffffff168273ffffffffffffffffffffffffffffffffffffffff161415611a35576040517f08c379a0000000000000000000000000000000000000000000000000000000008152600401611a2c906147f1565b60405180910390fd5b81600b60006101000a81548173ffffffffffffffffffffffffffffffffffffffff021916908373ffffffffffffffffffffffffffffffffffffffff16021790555060055442611a849190614a0e565b600c81905550600c54600b60009054906101000a900473ffffffffffffffffffffffffffffffffffffffff1673ffffffffffffffffffffffffffffffffffffffff16600860009054906101000a900473ffffffffffffffffffffffffffffffffffffffff1673ffffffffffffffffffffffffffffffffffffffff167f1d065115f314fb9bad9557bd5460b9e3c66f7223b1dd04e73e828f0bb5afe89f60405160405180910390a460019050919050565b600084421115611b79576040517f08c379a0000000000000000000000000000000000000000000000000000000008152600401611b7090614851565b60405180910390fd5b60007f42ce63790c28229c123925d83266e77c04d28784552ab68b350a9003226cbd59898989600f60008e73ffffffffffffffffffffffffffffffffffffffff1673ffffffffffffffffffffffffffffffffffffffff1681526020019081526020016000206000815480929190611bef90614b6b565b919050558a604051602001611c0996959493929190614709565b604051602081830303815290604052805190602001209050611c2e898287878761358f565b80611c425750611c4189828787876136a5565b5b611c4b57600080fd5b600073ffffffffffffffffffffffffffffffffffffffff168873ffffffffffffffffffffffffffffffffffffffff16141580611cb357503073ffffffffffffffffffffffffffffffffffffffff168873ffffffffffffffffffffffffffffffffffffffff1614155b611cbc57600080fd5b6000600260008b73ffffffffffffffffffffffffffffffffffffffff1673ffffffffffffffffffffffffffffffffffffffff16815260200190815260200160002054905087811015611d43576040517f08c379a0000000000000000000000000000000000000000000000000000000008152600401611d3a90614831565b60405180910390fd5b8781611d4f9190614a64565b600260008c73ffffffffffffffffffffffffffffffffffffffff1673ffffffffffffffffffffffffffffffffffffffff1681526020019081526020016000208190555087600260008b73ffffffffffffffffffffffffffffffffffffffff1673ffffffffffffffffffffffffffffffffffffffff1681526020019081526020016000206000828254611de19190614a0e565b925050819055508873ffffffffffffffffffffffffffffffffffffffff168a73ffffffffffffffffffffffffffffffffffffffff167fddf252ad1be2c89b69c2b068fc378daa952ba7f163c4a11628f55a4df523b3ef8a604051611e459190614951565b60405180910390a3600192505050979650505050505050565b6000611e686131c3565b73ffffffffffffffffffffffffffffffffffffffff163373ffffffffffffffffffffffffffffffffffffffff1614611ed5576040517f08c379a0000000000000000000000000000000000000000000000000000000008152600401611ecc906147d1565b60405180910390fd5b600073ffffffffffffffffffffffffffffffffffffffff168273ffffffffffffffffffffffffffffffffffffffff161415611f45576040517f08c379a0000000000000000000000000000000000000000000000000000000008152600401611f3c906147f1565b60405180910390fd5b81600b60006101000a81548173ffffffffffffffffffffffffffffffffffffffff021916908373ffffffffffffffffffffffffffffffffffffffff16021790555060055442611f949190614a0e565b600c81905550600c54600b60009054906101000a900473ffffffffffffffffffffffffffffffffffffffff1673ffffffffffffffffffffffffffffffffffffffff16600860009054906101000a900473ffffffffffffffffffffffffffffffffffffffff1673ffffffffffffffffffffffffffffffffffffffff167f5c364079e7102c27c608f9b237c735a1b7bfa0b67f27c2ad26bad447bf965cac60405160405180910390a460019050919050565b6000600460019054906101000a900460ff1615612096576040517f08c379a000000000000000000000000000000000000000000000000000000000815260040161208d90614871565b60405180910390fd5b600073ffffffffffffffffffffffffffffffffffffffff168273ffffffffffffffffffffffffffffffffffffffff161415612106576040517f08c379a00000000000000000000000000000000000000000000000000000000081526004016120fd906147f1565b60405180910390fd5b612110338461377b565b8173ffffffffffffffffffffffffffffffffffffffff163373ffffffffffffffffffffffffffffffffffffffff167f6b616089d04950dc06c45c6dd787d657980543f89651aec47924752c7d16c8888560405161216d9190614951565b60405180910390a36001905092915050565b6121876131c3565b73ffffffffffffffffffffffffffffffffffffffff163373ffffffffffffffffffffffffffffffffffffffff16146121f4576040517f08c379a00000000000000000000000000000000000000000000000000000000081526004016121eb906147d1565b60405180910390fd5b80600b60006101000a81548173ffffffffffffffffffffffffffffffffffffffff021916908373ffffffffffffffffffffffffffffffffffffffff160217905550600554426122439190614a0e565b600c8190555050565b60055481565b60006122a13330857f000000000000000000000000000000000000000000000000000000000000000073ffffffffffffffffffffffffffffffffffffffff166138c4909392919063ffffffff16565b6122ab838361394d565b905092915050565b7f000000000000000000000000000000000000000000000000000000000000000081565b60026020528060005260406000206000915090505481565b600f6020528060005260406000206000915090505481565b60007f000000000000000000000000000000000000000000000000000000000000000073ffffffffffffffffffffffffffffffffffffffff1663d505accf89308a8a8a8a8a6040518863ffffffff1660e01b815260040161236e97969594939291906145d9565b600060405180830381600087803b15801561238857600080fd5b505af115801561239c573d6000803e3d6000fd5b505050506123ed8830897f000000000000000000000000000000000000000000000000000000000000000073ffffffffffffffffffffffffffffffffffffffff166138c4909392919063ffffffff16565b6123f7878361394d565b9050979650505050505050565b6007818154811061241457600080fd5b906000526020600020016000915054906101000a900473ffffffffffffffffffffffffffffffffffffffff1681565b600c5481565b60006124536131c3565b905090565b600960009054906101000a900473ffffffffffffffffffffffffffffffffffffffff1681565b6001805461248b90614b39565b80601f01602080910402602001604051908101604052809291908181526020018280546124b790614b39565b80156125045780601f106124d957610100808354040283529160200191612504565b820191906000526020600020905b8154815290600101906020018083116124e757829003601f168201915b505050505081565b6000600660003373ffffffffffffffffffffffffffffffffffffffff1673ffffffffffffffffffffffffffffffffffffffff16815260200190815260200160002060009054906101000a900460ff1661259a576040517f08c379a000000000000000000000000000000000000000000000000000000000815260040161259190614891565b60405180910390fd5b600073ffffffffffffffffffffffffffffffffffffffff168373ffffffffffffffffffffffffffffffffffffffff16141561260a576040517f08c379a0000000000000000000000000000000000000000000000000000000008152600401612601906147f1565b60405180910390fd5b612614838361377b565b6001905092915050565b606060078054806020026020016040519081016040528092919081815260200182805480156126a257602002820191906000526020600020905b8160009054906101000a900473ffffffffffffffffffffffffffffffffffffffff1673ffffffffffffffffffffffffffffffffffffffff1681526020019060010190808311612658575b5050505050905090565b600e5481565b60008073ffffffffffffffffffffffffffffffffffffffff168373ffffffffffffffffffffffffffffffffffffffff1614158061271b57503073ffffffffffffffffffffffffffffffffffffffff168373ffffffffffffffffffffffffffffffffffffffff1614155b61272457600080fd5b6000600260003373ffffffffffffffffffffffffffffffffffffffff1673ffffffffffffffffffffffffffffffffffffffff168152602001908152602001600020549050828110156127ab576040517f08c379a00000000000000000000000000000000000000000000000000000000081526004016127a290614831565b60405180910390fd5b82816127b79190614a64565b600260003373ffffffffffffffffffffffffffffffffffffffff1673ffffffffffffffffffffffffffffffffffffffff1681526020019081526020016000208190555082600260008673ffffffffffffffffffffffffffffffffffffffff1673ffffffffffffffffffffffffffffffffffffffff16815260200190815260200160002060008282546128499190614a0e565b925050819055508373ffffffffffffffffffffffffffffffffffffffff163373ffffffffffffffffffffffffffffffffffffffff167fddf252ad1be2c89b69c2b068fc378daa952ba7f163c4a11628f55a4df523b3ef856040516128ad9190614951565b60405180910390a3600191505092915050565b60066020528060005260406000206000915054906101000a900460ff1681565b600061292f3330847f000000000000000000000000000000000000000000000000000000000000000073ffffffffffffffffffffffffffffffffffffffff166138c4909392919063ffffffff16565b612939823361394d565b9050919050565b600061294a6131c3565b73ffffffffffffffffffffffffffffffffffffffff163373ffffffffffffffffffffffffffffffffffffffff16146129b7576040517f08c379a00000000000000000000000000000000000000000000000000000000081526004016129ae906147d1565b60405180910390fd5b6129c1838361394d565b905092915050565b600a5481565b6129d76131c3565b73ffffffffffffffffffffffffffffffffffffffff163373ffffffffffffffffffffffffffffffffffffffff1614612a44576040517f08c379a0000000000000000000000000000000000000000000000000000000008152600401612a3b906147d1565b60405180910390fd5b80600460016101000a81548160ff02191690831515021790555050565b600083601060003373ffffffffffffffffffffffffffffffffffffffff1673ffffffffffffffffffffffffffffffffffffffff16815260200190815260200160002060008773ffffffffffffffffffffffffffffffffffffffff1673ffffffffffffffffffffffffffffffffffffffff168152602001908152602001600020819055508473ffffffffffffffffffffffffffffffffffffffff163373ffffffffffffffffffffffffffffffffffffffff167f8c5be1e5ebec7d5bd14f71427d1e84f3dd0314c0f7b2291e5b200ac8c7c3b92586604051612b419190614951565b60405180910390a38473ffffffffffffffffffffffffffffffffffffffff1662ba451f338686866040518563ffffffff1660e01b8152600401612b879493929190614671565b602060405180830381600087803b158015612ba157600080fd5b505af1158015612bb5573d6000803e3d6000fd5b505050506040513d601f19601f82011682018060405250810190612bd99190614094565b9050949350505050565b612beb6131c3565b73ffffffffffffffffffffffffffffffffffffffff163373ffffffffffffffffffffffffffffffffffffffff1614612c58576040517f08c379a0000000000000000000000000000000000000000000000000000000008152600401612c4f906147d1565b60405180910390fd5b6000600660008373ffffffffffffffffffffffffffffffffffffffff1673ffffffffffffffffffffffffffffffffffffffff16815260200190815260200160002060006101000a81548160ff02191690831515021790555050565b6000807f000000000000000000000000000000000000000000000000000000000000000073ffffffffffffffffffffffffffffffffffffffff166370a08231336040518263ffffffff1660e01b8152600401612d0f9190614587565b60206040518083038186803b158015612d2757600080fd5b505afa158015612d3b573d6000803e3d6000fd5b505050506040513d601f19601f82011682018060405250810190612d5f9190614135565b9050612dae3330837f000000000000000000000000000000000000000000000000000000000000000073ffffffffffffffffffffffffffffffffffffffff166138c4909392919063ffffffff16565b612db8813361394d565b91505090565b83421115612e01576040517f08c379a0000000000000000000000000000000000000000000000000000000008152600401612df890614851565b60405180910390fd5b60007f6e71edae12b1b97f4d1f60370fef10105fa2faae0126114a169c64845d6126c9888888600f60008d73ffffffffffffffffffffffffffffffffffffffff1673ffffffffffffffffffffffffffffffffffffffff1681526020019081526020016000206000815480929190612e7790614b6b565b9190505589604051602001612e9196959493929190614709565b604051602081830303815290604052805190602001209050612eb6888286868661358f565b80612eca5750612ec988828686866136a5565b5b612ed357600080fd5b85601060008a73ffffffffffffffffffffffffffffffffffffffff1673ffffffffffffffffffffffffffffffffffffffff16815260200190815260200160002060008973ffffffffffffffffffffffffffffffffffffffff1673ffffffffffffffffffffffffffffffffffffffff168152602001908152602001600020819055508673ffffffffffffffffffffffffffffffffffffffff168873ffffffffffffffffffffffffffffffffffffffff167f8c5be1e5ebec7d5bd14f71427d1e84f3dd0314c0f7b2291e5b200ac8c7c3b92588604051612fb19190614951565b60405180910390a35050505050505050565b612fcb6131c3565b73ffffffffffffffffffffffffffffffffffffffff163373ffffffffffffffffffffffffffffffffffffffff1614613038576040517f08c379a000000000000000000000000000000000000000000000000000000000815260040161302f906147d1565b60405180910390fd5b600c5442101561304757600080fd5b600b60009054906101000a900473ffffffffffffffffffffffffffffffffffffffff16600860006101000a81548173ffffffffffffffffffffffffffffffffffffffff021916908373ffffffffffffffffffffffffffffffffffffffff160217905550565b6010602052816000526040600020602052806000526040600020600091509150505481565b6000600660003373ffffffffffffffffffffffffffffffffffffffff1673ffffffffffffffffffffffffffffffffffffffff16815260200190815260200160002060009054906101000a900460ff1661315f576040517f08c379a000000000000000000000000000000000000000000000000000000000815260040161315690614891565b60405180910390fd5b6131698383613446565b8273ffffffffffffffffffffffffffffffffffffffff16847f05d0634fe981be85c22e2942a880821b70095d84e152c3ea3c17a4e4250d9d61846040516131b09190614951565b60405180910390a3600190509392505050565b6000600c5442106131f857600b60009054906101000a900473ffffffffffffffffffffffffffffffffffffffff16905061321e565b600860009054906101000a900473ffffffffffffffffffffffffffffffffffffffff1690505b90565b60007f000000000000000000000000000000000000000000000000000000000000000073ffffffffffffffffffffffffffffffffffffffff1663605629d689308a8a8a8a8a6040518863ffffffff1660e01b815260040161328897969594939291906145d9565b602060405180830381600087803b1580156132a257600080fd5b505af11580156132b6573d6000803e3d6000fd5b505050506040513d601f19601f820116820180604052508101906132da9190614094565b506132e5878361394d565b9050979650505050505050565b600860009054906101000a900473ffffffffffffffffffffffffffffffffffffffff1681565b6133206131c3565b73ffffffffffffffffffffffffffffffffffffffff163373ffffffffffffffffffffffffffffffffffffffff161461338d576040517f08c379a0000000000000000000000000000000000000000000000000000000008152600401613384906147d1565b60405180910390fd5b80600960006101000a81548173ffffffffffffffffffffffffffffffffffffffff021916908373ffffffffffffffffffffffffffffffffffffffff160217905550600554426133dc9190614a0e565b600a8190555050565b60006133f1848461377b565b61343c82847f000000000000000000000000000000000000000000000000000000000000000073ffffffffffffffffffffffffffffffffffffffff16613a139092919063ffffffff16565b8290509392505050565b600073ffffffffffffffffffffffffffffffffffffffff168273ffffffffffffffffffffffffffffffffffffffff1614156134b6576040517f08c379a00000000000000000000000000000000000000000000000000000000081526004016134ad90614931565b60405180910390fd5b80600360008282546134c89190614a0e565b9250508190555080600260008473ffffffffffffffffffffffffffffffffffffffff1673ffffffffffffffffffffffffffffffffffffffff168152602001908152602001600020600082825461351e9190614a0e565b925050819055508173ffffffffffffffffffffffffffffffffffffffff16600073ffffffffffffffffffffffffffffffffffffffff167fddf252ad1be2c89b69c2b068fc378daa952ba7f163c4a11628f55a4df523b3ef836040516135839190614951565b60405180910390a35050565b6000807f0000000000000000000000000000000000000000000000000000000000000000866040516020016135c5929190614550565b604051602081830303815290604052805190602001209050600060018287878760405160008152602001604052604051613602949392919061476a565b6020604051602081039080840390855afa158015613624573d6000803e3d6000fd5b505050602060405103519050600073ffffffffffffffffffffffffffffffffffffffff168173ffffffffffffffffffffffffffffffffffffffff161415801561369857508773ffffffffffffffffffffffffffffffffffffffff168173ffffffffffffffffffffffffffffffffffffffff16145b9250505095945050505050565b6000806136b186613a99565b90506000600182878787604051600081526020016040526040516136d8949392919061476a565b6020604051602081039080840390855afa1580156136fa573d6000803e3d6000fd5b505050602060405103519050600073ffffffffffffffffffffffffffffffffffffffff168173ffffffffffffffffffffffffffffffffffffffff161415801561376e57508773ffffffffffffffffffffffffffffffffffffffff168173ffffffffffffffffffffffffffffffffffffffff16145b9250505095945050505050565b600073ffffffffffffffffffffffffffffffffffffffff168273ffffffffffffffffffffffffffffffffffffffff1614156137eb576040517f08c379a00000000000000000000000000000000000000000000000000000000081526004016137e2906148b1565b60405180910390fd5b80600260008473ffffffffffffffffffffffffffffffffffffffff1673ffffffffffffffffffffffffffffffffffffffff168152602001908152602001600020600082825461383a9190614a64565b9250508190555080600360008282546138539190614a64565b92505081905550600073ffffffffffffffffffffffffffffffffffffffff168273ffffffffffffffffffffffffffffffffffffffff167fddf252ad1be2c89b69c2b068fc378daa952ba7f163c4a11628f55a4df523b3ef836040516138b89190614951565b60405180910390a35050565b613947846323b872dd60e01b8585856040516024016138e5939291906145a2565b604051602081830303815290604052907bffffffffffffffffffffffffffffffffffffffffffffffffffffffff19166020820180517bffffffffffffffffffffffffffffffffffffffffffffffffffffffff8381831617835250505050613aeb565b50505050565b60008073ffffffffffffffffffffffffffffffffffffffff167f000000000000000000000000000000000000000000000000000000000000000073ffffffffffffffffffffffffffffffffffffffff16141580156139f757503073ffffffffffffffffffffffffffffffffffffffff167f000000000000000000000000000000000000000000000000000000000000000073ffffffffffffffffffffffffffffffffffffffff1614155b613a0057600080fd5b613a0a8284613446565b82905092915050565b613a948363a9059cbb60e01b8484604051602401613a32929190614648565b604051602081830303815290604052907bffffffffffffffffffffffffffffffffffffffffffffffffffffffff19166020820180517bffffffffffffffffffffffffffffffffffffffffffffffffffffffff8381831617835250505050613aeb565b505050565b60007f000000000000000000000000000000000000000000000000000000000000000082604051602001613ace929190614519565b604051602081830303815290604052805190602001209050919050565b613b0a8273ffffffffffffffffffffffffffffffffffffffff16613c5c565b613b49576040517f08c379a0000000000000000000000000000000000000000000000000000000008152600401613b4090614911565b60405180910390fd5b6000808373ffffffffffffffffffffffffffffffffffffffff1683604051613b719190614502565b6000604051808303816000865af19150503d8060008114613bae576040519150601f19603f3d011682016040523d82523d6000602084013e613bb3565b606091505b509150915081613bf8576040517f08c379a0000000000000000000000000000000000000000000000000000000008152600401613bef90614811565b60405180910390fd5b600081511115613c565780806020019051810190613c169190614094565b613c55576040517f08c379a0000000000000000000000000000000000000000000000000000000008152600401613c4c906148f1565b60405180910390fd5b5b50505050565b60008060007fc5d2460186f7233c927e7db2dcc703c0e500b653ca82273b7bfad8045d85a47060001b9050833f91506000801b8214158015613c9e5750808214155b92505050919050565b600081359050613cb681614f03565b92915050565b600081359050613ccb81614f1a565b92915050565b600081519050613ce081614f1a565b92915050565b600081359050613cf581614f31565b92915050565b60008083601f840112613d0d57600080fd5b8235905067ffffffffffffffff811115613d2657600080fd5b602083019150836001820283011115613d3e57600080fd5b9250929050565b600081359050613d5481614f48565b92915050565b600081519050613d6981614f48565b92915050565b600081359050613d7e81614f5f565b92915050565b600060208284031215613d9657600080fd5b6000613da484828501613ca7565b91505092915050565b60008060408385031215613dc057600080fd5b6000613dce85828601613ca7565b9250506020613ddf85828601613ca7565b9150509250929050565b600080600060608486031215613dfe57600080fd5b6000613e0c86828701613ca7565b9350506020613e1d86828701613ca7565b9250506040613e2e86828701613d45565b9150509250925092565b600080600080600080600060e0888a031215613e5357600080fd5b6000613e618a828b01613ca7565b9750506020613e728a828b01613ca7565b9650506040613e838a828b01613d45565b9550506060613e948a828b01613d45565b9450506080613ea58a828b01613d6f565b93505060a0613eb68a828b01613ce6565b92505060c0613ec78a828b01613ce6565b91505092959891949750929550565b60008060408385031215613ee957600080fd5b6000613ef785828601613ca7565b9250506020613f0885828601613d45565b9150509250929050565b600080600060608486031215613f2757600080fd5b6000613f3586828701613ca7565b9350506020613f4686828701613d45565b9250506040613f5786828701613ca7565b9150509250925092565b60008060008060608587031215613f7757600080fd5b6000613f8587828801613ca7565b9450506020613f9687828801613d45565b935050604085013567ffffffffffffffff811115613fb357600080fd5b613fbf87828801613cfb565b925092505092959194509250565b600080600080600080600060e0888a031215613fe857600080fd5b6000613ff68a828b01613ca7565b97505060206140078a828b01613d45565b96505060406140188a828b01613d45565b95505060606140298a828b01613d6f565b945050608061403a8a828b01613ce6565b93505060a061404b8a828b01613ce6565b92505060c061405c8a828b01613ca7565b91505092959891949750929550565b60006020828403121561407d57600080fd5b600061408b84828501613cbc565b91505092915050565b6000602082840312156140a657600080fd5b60006140b484828501613cd1565b91505092915050565b6000806000606084860312156140d257600080fd5b60006140e086828701613ce6565b93505060206140f186828701613ca7565b925050604061410286828701613d45565b9150509250925092565b60006020828403121561411e57600080fd5b600061412c84828501613d45565b91505092915050565b60006020828403121561414757600080fd5b600061415584828501613d5a565b91505092915050565b6000806040838503121561417157600080fd5b600061417f85828601613d45565b925050602061419085828601613ca7565b9150509250929050565b60006141a683836141b2565b60208301905092915050565b6141bb81614a98565b82525050565b6141ca81614a98565b82525050565b60006141db82614997565b6141e581856149c5565b93506141f083614987565b8060005b83811015614221578151614208888261419a565b9750614213836149b8565b9250506001810190506141f4565b5085935050505092915050565b61423781614aaa565b82525050565b61424681614ab6565b82525050565b61425d61425882614ab6565b614bb4565b82525050565b600061426f83856149d6565b935061427c838584614af7565b61428583614c1c565b840190509392505050565b600061429b826149a2565b6142a581856149e7565b93506142b5818560208601614b06565b80840191505092915050565b60006142cc826149ad565b6142d681856149f2565b93506142e6818560208601614b06565b6142ef81614c1c565b840191505092915050565b6000614307601c83614a03565b915061431282614c2d565b601c82019050919050565b600061432a6019836149f2565b915061433582614c56565b602082019050919050565b600061434d600283614a03565b915061435882614c7f565b600282019050919050565b6000614370601c836149f2565b915061437b82614ca8565b602082019050919050565b60006143936020836149f2565b915061439e82614cd1565b602082019050919050565b60006143b6602f836149f2565b91506143c182614cfa565b604082019050919050565b60006143d9601e836149f2565b91506143e482614d49565b602082019050919050565b60006143fc6018836149f2565b915061440782614d72565b602082019050919050565b600061441f6019836149f2565b915061442a82614d9b565b602082019050919050565b60006144426021836149f2565b915061444d82614dc4565b604082019050919050565b60006144656029836149f2565b915061447082614e13565b604082019050919050565b6000614488602a836149f2565b915061449382614e62565b604082019050919050565b60006144ab601f836149f2565b91506144b682614eb1565b602082019050919050565b60006144ce601f836149f2565b91506144d982614eda565b602082019050919050565b6144ed81614ae0565b82525050565b6144fc81614aea565b82525050565b600061450e8284614290565b915081905092915050565b6000614524826142fa565b9150614530828561424c565b602082019150614540828461424c565b6020820191508190509392505050565b600061455b82614340565b9150614567828561424c565b602082019150614577828461424c565b6020820191508190509392505050565b600060208201905061459c60008301846141c1565b92915050565b60006060820190506145b760008301866141c1565b6145c460208301856141c1565b6145d160408301846144e4565b949350505050565b600060e0820190506145ee600083018a6141c1565b6145fb60208301896141c1565b61460860408301886144e4565b61461560608301876144e4565b61462260808301866144f3565b61462f60a083018561423d565b61463c60c083018461423d565b98975050505050505050565b600060408201905061465d60008301856141c1565b61466a60208301846144e4565b9392505050565b600060608201905061468660008301876141c1565b61469360208301866144e4565b81810360408301526146a6818486614263565b905095945050505050565b600060208201905081810360008301526146cb81846141d0565b905092915050565b60006020820190506146e8600083018461422e565b92915050565b6000602082019050614703600083018461423d565b92915050565b600060c08201905061471e600083018961423d565b61472b60208301886141c1565b61473860408301876141c1565b61474560608301866144e4565b61475260808301856144e4565b61475f60a08301846144e4565b979650505050505050565b600060808201905061477f600083018761423d565b61478c60208301866144f3565b614799604083018561423d565b6147a6606083018461423d565b95945050505050565b600060208201905081810360008301526147c981846142c1565b905092915050565b600060208201905081810360008301526147ea8161431d565b9050919050565b6000602082019050818103600083015261480a81614363565b9050919050565b6000602082019050818103600083015261482a81614386565b9050919050565b6000602082019050818103600083015261484a816143a9565b9050919050565b6000602082019050818103600083015261486a816143cc565b9050919050565b6000602082019050818103600083015261488a816143ef565b9050919050565b600060208201905081810360008301526148aa81614412565b9050919050565b600060208201905081810360008301526148ca81614435565b9050919050565b600060208201905081810360008301526148ea81614458565b9050919050565b6000602082019050818103600083015261490a8161447b565b9050919050565b6000602082019050818103600083015261492a8161449e565b9050919050565b6000602082019050818103600083015261494a816144c1565b9050919050565b600060208201905061496660008301846144e4565b92915050565b600060208201905061498160008301846144f3565b92915050565b6000819050602082019050919050565b600081519050919050565b600081519050919050565b600081519050919050565b6000602082019050919050565b600082825260208201905092915050565b600082825260208201905092915050565b600081905092915050565b600082825260208201905092915050565b600081905092915050565b6000614a1982614ae0565b9150614a2483614ae0565b9250827fffffffffffffffffffffffffffffffffffffffffffffffffffffffffffffffff03821115614a5957614a58614bbe565b5b828201905092915050565b6000614a6f82614ae0565b9150614a7a83614ae0565b925082821015614a8d57614a8c614bbe565b5b828203905092915050565b6000614aa382614ac0565b9050919050565b60008115159050919050565b6000819050919050565b600073ffffffffffffffffffffffffffffffffffffffff82169050919050565b6000819050919050565b600060ff82169050919050565b82818337600083830152505050565b60005b83811015614b24578082015181840152602081019050614b09565b83811115614b33576000848401525b50505050565b60006002820490506001821680614b5157607f821691505b60208210811415614b6557614b64614bed565b5b50919050565b6000614b7682614ae0565b91507fffffffffffffffffffffffffffffffffffffffffffffffffffffffffffffffff821415614ba957614ba8614bbe565b5b600182019050919050565b6000819050919050565b7f4e487b7100000000000000000000000000000000000000000000000000000000600052601160045260246000fd5b7f4e487b7100000000000000000000000000000000000000000000000000000000600052602260045260246000fd5b6000601f19601f8301169050919050565b7f19457468657265756d205369676e6564204d6573736167653a0a333200000000600082015250565b7f416e7973776170563345524332303a20464f5242494444454e00000000000000600082015250565b7f1901000000000000000000000000000000000000000000000000000000000000600082015250565b7f416e7973776170563345524332303a2061646472657373283078302900000000600082015250565b7f5361666545524332303a206c6f772d6c6576656c2063616c6c206661696c6564600082015250565b7f416e7973776170563345524332303a207472616e7366657220616d6f756e742060008201527f657863656564732062616c616e63650000000000000000000000000000000000602082015250565b7f416e7973776170563345524332303a2045787069726564207065726d69740000600082015250565b7f416e7973776170563445524332303a206f6e6c79417574680000000000000000600082015250565b7f416e7973776170563445524332303a20464f5242494444454e00000000000000600082015250565b7f45524332303a206275726e2066726f6d20746865207a65726f2061646472657360008201527f7300000000000000000000000000000000000000000000000000000000000000602082015250565b7f416e7973776170563345524332303a207265717565737420657863656564732060008201527f616c6c6f77616e63650000000000000000000000000000000000000000000000602082015250565b7f5361666545524332303a204552433230206f7065726174696f6e20646964206e60008201527f6f74207375636365656400000000000000000000000000000000000000000000602082015250565b7f5361666545524332303a2063616c6c20746f206e6f6e2d636f6e747261637400600082015250565b7f45524332303a206d696e7420746f20746865207a65726f206164647265737300600082015250565b614f0c81614a98565b8114614f1757600080fd5b50565b614f2381614aaa565b8114614f2e57600080fd5b50565b614f3a81614ab6565b8114614f4557600080fd5b50565b614f5181614ae0565b8114614f5c57600080fd5b50565b614f6881614aea565b8114614f7357600080fd5b5056fea2646970667358221220aa093588df9ed8fa6f79ec71216cd4687ea973a7f71aecaf3e5aef26519ab7f164736f6c63430008020033",
  "immutableReferences": {
    "395": [
      {
        "length": 32,
        "start": 5450
      }
    ],
    "397": [
      {
        "length": 32,
        "start": 8796
      },
      {
        "length": 32,
        "start": 8885
      },
      {
        "length": 32,
        "start": 8971
      },
      {
        "length": 32,
        "start": 9128
      },
      {
        "length": 32,
        "start": 10474
      },
      {
        "length": 32,
        "start": 11448
      },
      {
        "length": 32,
        "start": 11625
      },
      {
        "length": 32,
        "start": 12837
      },
      {
        "length": 32,
        "start": 13304
      },
      {
        "length": 32,
        "start": 14696
      },
      {
        "length": 32,
        "start": 14783
      }
    ],
    "409": [
      {
        "length": 32,
        "start": 5486
      },
      {
        "length": 32,
        "start": 13716
      },
      {
        "length": 32,
        "start": 15005
      }
    ]
  },
  "source": "/**\r\n *Submitted for verification at BscScan.com on 2021-09-22\r\n*/\r\n\r\n/**\r\n *Submitted for verification at BscScan.com on 2021-06-15\r\n*/\r\n\r\n/**\r\n *Submitted for verification at BscScan.com on 2021-06-11\r\n*/\r\n\r\n/**\r\n *Submitted for verification at polygonscan.com on 2021-06-11\r\n*/\r\n\r\n/**\r\n *Submitted for verification at Etherscan.io on 2021-06-08\r\n*/\r\n\r\n/**\r\n *Submitted for verification at Etherscan.io on 2021-06-07\r\n*/\r\n\r\n// SPDX-License-Identifier: GPL-3.0-or-later\r\n\r\npragma solidity 0.8.2;\r\n\r\n/**\r\n * @dev Interface of the ERC20 standard as defined in the EIP.\r\n */\r\ninterface IERC20 {\r\n    function totalSupply() external view returns (uint256);\r\n    function decimals() external view returns (uint8);\r\n    function balanceOf(address account) external view returns (uint256);\r\n    function transfer(address recipient, uint256 amount) external returns (bool);\r\n    function allowance(address owner, address spender) external view returns (uint256);\r\n    function approve(address spender, uint256 amount) external returns (bool);\r\n    function transferFrom(address sender, address recipient, uint256 amount) external returns (bool);\r\n    function permit(address target, address spender, uint256 value, uint256 deadline, uint8 v, bytes32 r, bytes32 s) external;\r\n    function transferWithPermit(address target, address to, uint256 value, uint256 deadline, uint8 v, bytes32 r, bytes32 s) external returns (bool);\r\n    event Transfer(address indexed from, address indexed to, uint256 value);\r\n    event Approval(address indexed owner, address indexed spender, uint256 value);\r\n}\r\n\r\n/**\r\n * @dev Interface of the ERC2612 standard as defined in the EIP.\r\n *\r\n * Adds the {permit} method, which can be used to change one's\r\n * {IERC20-allowance} without having to send a transaction, by signing a\r\n * message. This allows users to spend tokens without having to hold Ether.\r\n *\r\n * See https://eips.ethereum.org/EIPS/eip-2612.\r\n */\r\ninterface IERC2612 {\r\n\r\n    /**\r\n     * @dev Returns the current ERC2612 nonce for `owner`. This value must be\r\n     * included whenever a signature is generated for {permit}.\r\n     *\r\n     * Every successful call to {permit} increases ``owner``'s nonce by one. This\r\n     * prevents a signature from being used multiple times.\r\n     */\r\n    function nonces(address owner) external view returns (uint256);\r\n}\r\n\r\n/// @dev Wrapped ERC-20 v10 (AnyswapV3ERC20) is an ERC-20 ERC-20 wrapper. You can `deposit` ERC-20 and obtain an AnyswapV3ERC20 balance which can then be operated as an ERC-20 token. You can\r\n/// `withdraw` ERC-20 from AnyswapV3ERC20, which will then burn AnyswapV3ERC20 token in your wallet. The amount of AnyswapV3ERC20 token in any wallet is always identical to the\r\n/// balance of ERC-20 deposited minus the ERC-20 withdrawn with that specific wallet.\r\ninterface IAnyswapV3ERC20 is IERC20, IERC2612 {\r\n\r\n    /// @dev Sets `value` as allowance of `spender` account over caller account's AnyswapV3ERC20 token,\r\n    /// after which a call is executed to an ERC677-compliant contract with the `data` parameter.\r\n    /// Emits {Approval} event.\r\n    /// Returns boolean value indicating whether operation succeeded.\r\n    /// For more information on approveAndCall format, see https://github.com/ethereum/EIPs/issues/677.\r\n    function approveAndCall(address spender, uint256 value, bytes calldata data) external returns (bool);\r\n\r\n    /// @dev Moves `value` AnyswapV3ERC20 token from caller's account to account (`to`),\r\n    /// after which a call is executed to an ERC677-compliant contract with the `data` parameter.\r\n    /// A transfer to `address(0)` triggers an ERC-20 withdraw matching the sent AnyswapV3ERC20 token in favor of caller.\r\n    /// Emits {Transfer} event.\r\n    /// Returns boolean value indicating whether operation succeeded.\r\n    /// Requirements:\r\n    ///   - caller account must have at least `value` AnyswapV3ERC20 token.\r\n    /// For more information on transferAndCall format, see https://github.com/ethereum/EIPs/issues/677.\r\n    function transferAndCall(address to, uint value, bytes calldata data) external returns (bool);\r\n}\r\n\r\ninterface ITransferReceiver {\r\n    function onTokenTransfer(address, uint, bytes calldata) external returns (bool);\r\n}\r\n\r\ninterface IApprovalReceiver {\r\n    function onTokenApproval(address, uint, bytes calldata) external returns (bool);\r\n}\r\n\r\nlibrary Address {\r\n    function isContract(address account) internal view returns (bool) {\r\n        bytes32 codehash;\r\n        bytes32 accountHash = 0xc5d2460186f7233c927e7db2dcc703c0e500b653ca82273b7bfad8045d85a470;\r\n        // solhint-disable-next-line no-inline-assembly\r\n        assembly { codehash := extcodehash(account) }\r\n        return (codehash != 0x0 && codehash != accountHash);\r\n    }\r\n}\r\n\r\nlibrary SafeERC20 {\r\n    using Address for address;\r\n\r\n    function safeTransfer(IERC20 token, address to, uint value) internal {\r\n        callOptionalReturn(token, abi.encodeWithSelector(token.transfer.selector, to, value));\r\n    }\r\n\r\n    function safeTransferFrom(IERC20 token, address from, address to, uint value) internal {\r\n        callOptionalReturn(token, abi.encodeWithSelector(token.transferFrom.selector, from, to, value));\r\n    }\r\n\r\n    function safeApprove(IERC20 token, address spender, uint value) internal {\r\n        require((value == 0) || (token.allowance(address(this), spender) == 0),\r\n            \"SafeERC20: approve from non-zero to non-zero allowance\"\r\n        );\r\n        callOptionalReturn(token, abi.encodeWithSelector(token.approve.selector, spender, value));\r\n    }\r\n    function callOptionalReturn(IERC20 token, bytes memory data) private {\r\n        require(address(token).isContract(), \"SafeERC20: call to non-contract\");\r\n\r\n        // solhint-disable-next-line avoid-low-level-calls\r\n        (bool success, bytes memory returndata) = address(token).call(data);\r\n        require(success, \"SafeERC20: low-level call failed\");\r\n\r\n        if (returndata.length > 0) { // Return data is optional\r\n            // solhint-disable-next-line max-line-length\r\n            require(abi.decode(returndata, (bool)), \"SafeERC20: ERC20 operation did not succeed\");\r\n        }\r\n    }\r\n}\r\n\r\ncontract AnyswapV5ERC20 is IAnyswapV3ERC20 {\r\n    using SafeERC20 for IERC20;\r\n    string public name;\r\n    string public symbol;\r\n    uint8  public immutable override decimals;\r\n\r\n    address public immutable underlying;\r\n\r\n    bytes32 public constant PERMIT_TYPEHASH = keccak256(\"Permit(address owner,address spender,uint256 value,uint256 nonce,uint256 deadline)\");\r\n    bytes32 public constant TRANSFER_TYPEHASH = keccak256(\"Transfer(address owner,address to,uint256 value,uint256 nonce,uint256 deadline)\");\r\n    bytes32 public immutable DOMAIN_SEPARATOR;\r\n\r\n    /// @dev Records amount of AnyswapV3ERC20 token owned by account.\r\n    mapping (address => uint256) public override balanceOf;\r\n    uint256 private _totalSupply;\r\n\r\n    // init flag for setting immediate vault, needed for CREATE2 support\r\n    bool private _init;\r\n\r\n    // flag to enable/disable swapout vs vault.burn so multiple events are triggered\r\n    bool private _vaultOnly;\r\n\r\n    // configurable delay for timelock functions\r\n    uint public delay = 2*24*3600;\r\n\r\n\r\n    // set of minters, can be this bridge or other bridges\r\n    mapping(address => bool) public isMinter;\r\n    address[] public minters;\r\n\r\n    // primary controller of the token contract\r\n    address public vault;\r\n\r\n    address public pendingMinter;\r\n    uint public delayMinter;\r\n\r\n    address public pendingVault;\r\n    uint public delayVault;\r\n\r\n    uint public pendingDelay;\r\n    uint public delayDelay;\r\n\r\n\r\n    modifier onlyAuth() {\r\n        require(isMinter[msg.sender], \"AnyswapV4ERC20: FORBIDDEN\");\r\n        _;\r\n    }\r\n\r\n    modifier onlyVault() {\r\n        require(msg.sender == mpc(), \"AnyswapV3ERC20: FORBIDDEN\");\r\n        _;\r\n    }\r\n\r\n    function owner() public view returns (address) {\r\n        return mpc();\r\n    }\r\n\r\n    function mpc() public view returns (address) {\r\n        if (block.timestamp >= delayVault) {\r\n            return pendingVault;\r\n        }\r\n        return vault;\r\n    }\r\n\r\n    function setVaultOnly(bool enabled) external onlyVault {\r\n        _vaultOnly = enabled;\r\n    }\r\n\r\n    function initVault(address _vault) external onlyVault {\r\n        require(_init);\r\n        vault = _vault;\r\n        pendingVault = _vault;\r\n        isMinter[_vault] = true;\r\n        minters.push(_vault);\r\n        delayVault = block.timestamp;\r\n        _init = false;\r\n    }\r\n\r\n    function setMinter(address _auth) external onlyVault {\r\n        pendingMinter = _auth;\r\n        delayMinter = block.timestamp + delay;\r\n    }\r\n\r\n    function setVault(address _vault) external onlyVault {\r\n        pendingVault = _vault;\r\n        delayVault = block.timestamp + delay;\r\n    }\r\n\r\n    function applyVault() external onlyVault {\r\n        require(block.timestamp >= delayVault);\r\n        vault = pendingVault;\r\n    }\r\n\r\n    function applyMinter() external onlyVault {\r\n        require(block.timestamp >= delayMinter);\r\n        isMinter[pendingMinter] = true;\r\n        minters.push(pendingMinter);\r\n    }\r\n\r\n    // No time delay revoke minter emergency function\r\n    function revokeMinter(address _auth) external onlyVault {\r\n        isMinter[_auth] = false;\r\n    }\r\n\r\n    function getAllMinters() external view returns (address[] memory) {\r\n        return minters;\r\n    }\r\n\r\n\r\n    function changeVault(address newVault) external onlyVault returns (bool) {\r\n        require(newVault != address(0), \"AnyswapV3ERC20: address(0x0)\");\r\n        pendingVault = newVault;\r\n        delayVault = block.timestamp + delay;\r\n        emit LogChangeVault(vault, pendingVault, delayVault);\r\n        return true;\r\n    }\r\n\r\n    function changeMPCOwner(address newVault) public onlyVault returns (bool) {\r\n        require(newVault != address(0), \"AnyswapV3ERC20: address(0x0)\");\r\n        pendingVault = newVault;\r\n        delayVault = block.timestamp + delay;\r\n        emit LogChangeMPCOwner(vault, pendingVault, delayVault);\r\n        return true;\r\n    }\r\n\r\n    function mint(address to, uint256 amount) external onlyAuth returns (bool) {\r\n        _mint(to, amount);\r\n        return true;\r\n    }\r\n\r\n    function burn(address from, uint256 amount) external onlyAuth returns (bool) {\r\n        require(from != address(0), \"AnyswapV3ERC20: address(0x0)\");\r\n        _burn(from, amount);\r\n        return true;\r\n    }\r\n\r\n    function Swapin(bytes32 txhash, address account, uint256 amount) public onlyAuth returns (bool) {\r\n        _mint(account, amount);\r\n        emit LogSwapin(txhash, account, amount);\r\n        return true;\r\n    }\r\n\r\n    function Swapout(uint256 amount, address bindaddr) public returns (bool) {\r\n        require(!_vaultOnly, \"AnyswapV4ERC20: onlyAuth\");\r\n        require(bindaddr != address(0), \"AnyswapV3ERC20: address(0x0)\");\r\n        _burn(msg.sender, amount);\r\n        emit LogSwapout(msg.sender, bindaddr, amount);\r\n        return true;\r\n    }\r\n\r\n    /// @dev Records current ERC2612 nonce for account. This value must be included whenever signature is generated for {permit}.\r\n    /// Every successful call to {permit} increases account's nonce by one. This prevents signature from being used multiple times.\r\n    mapping (address => uint256) public override nonces;\r\n\r\n    /// @dev Records number of AnyswapV3ERC20 token that account (second) will be allowed to spend on behalf of another account (first) through {transferFrom}.\r\n    mapping (address => mapping (address => uint256)) public override allowance;\r\n\r\n    event LogChangeVault(address indexed oldVault, address indexed newVault, uint indexed effectiveTime);\r\n    event LogChangeMPCOwner(address indexed oldOwner, address indexed newOwner, uint indexed effectiveHeight);\r\n    event LogSwapin(bytes32 indexed txhash, address indexed account, uint amount);\r\n    event LogSwapout(address indexed account, address indexed bindaddr, uint amount);\r\n    event LogAddAuth(address indexed auth, uint timestamp);\r\n\r\n    constructor(string memory _name, string memory _symbol, uint8 _decimals, address _underlying, address _vault) {\r\n        name = _name;\r\n        symbol = _symbol;\r\n        decimals = _decimals;\r\n        underlying = _underlying;\r\n        if (_underlying != address(0x0)) {\r\n            require(_decimals == IERC20(_underlying).decimals());\r\n        }\r\n\r\n        // Use init to allow for CREATE2 accross all chains\r\n        _init = true;\r\n\r\n        // Disable/Enable swapout for v1 tokens vs mint/burn for v3 tokens\r\n        _vaultOnly = false;\r\n\r\n        vault = _vault;\r\n        pendingVault = _vault;\r\n        delayVault = block.timestamp;\r\n\r\n        uint256 chainId;\r\n        assembly {chainId := chainid()}\r\n        DOMAIN_SEPARATOR = keccak256(\r\n            abi.encode(\r\n                keccak256(\"EIP712Domain(string name,string version,uint256 chainId,address verifyingContract)\"),\r\n                keccak256(bytes(name)),\r\n                keccak256(bytes(\"1\")),\r\n                chainId,\r\n                address(this)));\r\n    }\r\n\r\n    /// @dev Returns the total supply of AnyswapV3ERC20 token as the ETH held in this contract.\r\n    function totalSupply() external view override returns (uint256) {\r\n        return _totalSupply;\r\n    }\r\n\r\n    function depositWithPermit(address target, uint256 value, uint256 deadline, uint8 v, bytes32 r, bytes32 s, address to) external returns (uint) {\r\n        IERC20(underlying).permit(target, address(this), value, deadline, v, r, s);\r\n        IERC20(underlying).safeTransferFrom(target, address(this), value);\r\n        return _deposit(value, to);\r\n    }\r\n\r\n    function depositWithTransferPermit(address target, uint256 value, uint256 deadline, uint8 v, bytes32 r, bytes32 s, address to) external returns (uint) {\r\n        IERC20(underlying).transferWithPermit(target, address(this), value, deadline, v, r, s);\r\n        return _deposit(value, to);\r\n    }\r\n\r\n    function deposit() external returns (uint) {\r\n        uint _amount = IERC20(underlying).balanceOf(msg.sender);\r\n        IERC20(underlying).safeTransferFrom(msg.sender, address(this), _amount);\r\n        return _deposit(_amount, msg.sender);\r\n    }\r\n\r\n    function deposit(uint amount) external returns (uint) {\r\n        IERC20(underlying).safeTransferFrom(msg.sender, address(this), amount);\r\n        return _deposit(amount, msg.sender);\r\n    }\r\n\r\n    function deposit(uint amount, address to) external returns (uint) {\r\n        IERC20(underlying).safeTransferFrom(msg.sender, address(this), amount);\r\n        return _deposit(amount, to);\r\n    }\r\n\r\n    function depositVault(uint amount, address to) external onlyVault returns (uint) {\r\n        return _deposit(amount, to);\r\n    }\r\n\r\n    function _deposit(uint amount, address to) internal returns (uint) {\r\n        require(underlying != address(0x0) && underlying != address(this));\r\n        _mint(to, amount);\r\n        return amount;\r\n    }\r\n\r\n    function withdraw() external returns (uint) {\r\n        return _withdraw(msg.sender, balanceOf[msg.sender], msg.sender);\r\n    }\r\n\r\n    function withdraw(uint amount) external returns (uint) {\r\n        return _withdraw(msg.sender, amount, msg.sender);\r\n    }\r\n\r\n    function withdraw(uint amount, address to) external returns (uint) {\r\n        return _withdraw(msg.sender, amount, to);\r\n    }\r\n\r\n    function withdrawVault(address from, uint amount, address to) external onlyVault returns (uint) {\r\n        return _withdraw(from, amount, to);\r\n    }\r\n\r\n    function _withdraw(address from, uint amount, address to) internal returns (uint) {\r\n        _burn(from, amount);\r\n        IERC20(underlying).safeTransfer(to, amount);\r\n        return amount;\r\n    }\r\n\r\n    /** @dev Creates `amount` tokens and assigns them to `account`, increasing\r\n     * the total supply.\r\n     *\r\n     * Emits a {Transfer} event with `from` set to the zero address.\r\n     *\r\n     * Requirements\r\n     *\r\n     * - `to` cannot be the zero address.\r\n     */\r\n    function _mint(address account, uint256 amount) internal {\r\n        require(account != address(0), \"ERC20: mint to the zero address\");\r\n\r\n        _totalSupply += amount;\r\n        balanceOf[account] += amount;\r\n        emit Transfer(address(0), account, amount);\r\n    }\r\n\r\n    /**\r\n     * @dev Destroys `amount` tokens from `account`, reducing the\r\n     * total supply.\r\n     *\r\n     * Emits a {Transfer} event with `to` set to the zero address.\r\n     *\r\n     * Requirements\r\n     *\r\n     * - `account` cannot be the zero address.\r\n     * - `account` must have at least `amount` tokens.\r\n     */\r\n    function _burn(address account, uint256 amount) internal {\r\n        require(account != address(0), \"ERC20: burn from the zero address\");\r\n\r\n        balanceOf[account] -= amount;\r\n        _totalSupply -= amount;\r\n        emit Transfer(account, address(0), amount);\r\n    }\r\n\r\n    /// @dev Sets `value` as allowance of `spender` account over caller account's AnyswapV3ERC20 token.\r\n    /// Emits {Approval} event.\r\n    /// Returns boolean value indicating whether operation succeeded.\r\n    function approve(address spender, uint256 value) external override returns (bool) {\r\n        // _approve(msg.sender, spender, value);\r\n        allowance[msg.sender][spender] = value;\r\n        emit Approval(msg.sender, spender, value);\r\n\r\n        return true;\r\n    }\r\n\r\n    /// @dev Sets `value` as allowance of `spender` account over caller account's AnyswapV3ERC20 token,\r\n    /// after which a call is executed to an ERC677-compliant contract with the `data` parameter.\r\n    /// Emits {Approval} event.\r\n    /// Returns boolean value indicating whether operation succeeded.\r\n    /// For more information on approveAndCall format, see https://github.com/ethereum/EIPs/issues/677.\r\n    function approveAndCall(address spender, uint256 value, bytes calldata data) external override returns (bool) {\r\n        // _approve(msg.sender, spender, value);\r\n        allowance[msg.sender][spender] = value;\r\n        emit Approval(msg.sender, spender, value);\r\n\r\n        return IApprovalReceiver(spender).onTokenApproval(msg.sender, value, data);\r\n    }\r\n\r\n    /// @dev Sets `value` as allowance of `spender` account over `owner` account's AnyswapV3ERC20 token, given `owner` account's signed approval.\r\n    /// Emits {Approval} event.\r\n    /// Requirements:\r\n    ///   - `deadline` must be timestamp in future.\r\n    ///   - `v`, `r` and `s` must be valid `secp256k1` signature from `owner` account over EIP712-formatted function arguments.\r\n    ///   - the signature must use `owner` account's current nonce (see {nonces}).\r\n    ///   - the signer cannot be zero address and must be `owner` account.\r\n    /// For more information on signature format, see https://eips.ethereum.org/EIPS/eip-2612#specification[relevant EIP section].\r\n    /// AnyswapV3ERC20 token implementation adapted from https://github.com/albertocuestacanada/ERC20Permit/blob/master/contracts/ERC20Permit.sol.\r\n    function permit(address target, address spender, uint256 value, uint256 deadline, uint8 v, bytes32 r, bytes32 s) external override {\r\n        require(block.timestamp <= deadline, \"AnyswapV3ERC20: Expired permit\");\r\n\r\n        bytes32 hashStruct = keccak256(\r\n            abi.encode(\r\n                PERMIT_TYPEHASH,\r\n                target,\r\n                spender,\r\n                value,\r\n                nonces[target]++,\r\n                deadline));\r\n\r\n        require(verifyEIP712(target, hashStruct, v, r, s) || verifyPersonalSign(target, hashStruct, v, r, s));\r\n\r\n        // _approve(owner, spender, value);\r\n        allowance[target][spender] = value;\r\n        emit Approval(target, spender, value);\r\n    }\r\n\r\n    function transferWithPermit(address target, address to, uint256 value, uint256 deadline, uint8 v, bytes32 r, bytes32 s) external override returns (bool) {\r\n        require(block.timestamp <= deadline, \"AnyswapV3ERC20: Expired permit\");\r\n\r\n        bytes32 hashStruct = keccak256(\r\n            abi.encode(\r\n                TRANSFER_TYPEHASH,\r\n                target,\r\n                to,\r\n                value,\r\n                nonces[target]++,\r\n                deadline));\r\n\r\n        require(verifyEIP712(target, hashStruct, v, r, s) || verifyPersonalSign(target, hashStruct, v, r, s));\r\n\r\n        require(to != address(0) || to != address(this));\r\n\r\n        uint256 balance = balanceOf[target];\r\n        require(balance >= value, \"AnyswapV3ERC20: transfer amount exceeds balance\");\r\n\r\n        balanceOf[target] = balance - value;\r\n        balanceOf[to] += value;\r\n        emit Transfer(target, to, value);\r\n\r\n        return true;\r\n    }\r\n\r\n    function verifyEIP712(address target, bytes32 hashStruct, uint8 v, bytes32 r, bytes32 s) internal view returns (bool) {\r\n        bytes32 hash = keccak256(\r\n            abi.encodePacked(\r\n                \"\\x19\\x01\",\r\n                DOMAIN_SEPARATOR,\r\n                hashStruct));\r\n        address signer = ecrecover(hash, v, r, s);\r\n        return (signer != address(0) && signer == target);\r\n    }\r\n\r\n    function verifyPersonalSign(address target, bytes32 hashStruct, uint8 v, bytes32 r, bytes32 s) internal view returns (bool) {\r\n        bytes32 hash = prefixed(hashStruct);\r\n        address signer = ecrecover(hash, v, r, s);\r\n        return (signer != address(0) && signer == target);\r\n    }\r\n\r\n    // Builds a prefixed hash to mimic the behavior of eth_sign.\r\n    function prefixed(bytes32 hash) internal view returns (bytes32) {\r\n        return keccak256(abi.encodePacked(\"\\x19Ethereum Signed Message:\\n32\", DOMAIN_SEPARATOR, hash));\r\n    }\r\n\r\n    /// @dev Moves `value` AnyswapV3ERC20 token from caller's account to account (`to`).\r\n    /// A transfer to `address(0)` triggers an ETH withdraw matching the sent AnyswapV3ERC20 token in favor of caller.\r\n    /// Emits {Transfer} event.\r\n    /// Returns boolean value indicating whether operation succeeded.\r\n    /// Requirements:\r\n    ///   - caller account must have at least `value` AnyswapV3ERC20 token.\r\n    function transfer(address to, uint256 value) external override returns (bool) {\r\n        require(to != address(0) || to != address(this));\r\n        uint256 balance = balanceOf[msg.sender];\r\n        require(balance >= value, \"AnyswapV3ERC20: transfer amount exceeds balance\");\r\n\r\n        balanceOf[msg.sender] = balance - value;\r\n        balanceOf[to] += value;\r\n        emit Transfer(msg.sender, to, value);\r\n\r\n        return true;\r\n    }\r\n\r\n    /// @dev Moves `value` AnyswapV3ERC20 token from account (`from`) to account (`to`) using allowance mechanism.\r\n    /// `value` is then deducted from caller account's allowance, unless set to `type(uint256).max`.\r\n    /// A transfer to `address(0)` triggers an ETH withdraw matching the sent AnyswapV3ERC20 token in favor of caller.\r\n    /// Emits {Approval} event to reflect reduced allowance `value` for caller account to spend from account (`from`),\r\n    /// unless allowance is set to `type(uint256).max`\r\n    /// Emits {Transfer} event.\r\n    /// Returns boolean value indicating whether operation succeeded.\r\n    /// Requirements:\r\n    ///   - `from` account must have at least `value` balance of AnyswapV3ERC20 token.\r\n    ///   - `from` account must have approved caller to spend at least `value` of AnyswapV3ERC20 token, unless `from` and caller are the same account.\r\n    function transferFrom(address from, address to, uint256 value) external override returns (bool) {\r\n        require(to != address(0) || to != address(this));\r\n        if (from != msg.sender) {\r\n            // _decreaseAllowance(from, msg.sender, value);\r\n            uint256 allowed = allowance[from][msg.sender];\r\n            if (allowed != type(uint256).max) {\r\n                require(allowed >= value, \"AnyswapV3ERC20: request exceeds allowance\");\r\n                uint256 reduced = allowed - value;\r\n                allowance[from][msg.sender] = reduced;\r\n                emit Approval(from, msg.sender, reduced);\r\n            }\r\n        }\r\n\r\n        uint256 balance = balanceOf[from];\r\n        require(balance >= value, \"AnyswapV3ERC20: transfer amount exceeds balance\");\r\n\r\n        balanceOf[from] = balance - value;\r\n        balanceOf[to] += value;\r\n        emit Transfer(from, to, value);\r\n\r\n        return true;\r\n    }\r\n\r\n    /// @dev Moves `value` AnyswapV3ERC20 token from caller's account to account (`to`),\r\n    /// after which a call is executed to an ERC677-compliant contract with the `data` parameter.\r\n    /// A transfer to `address(0)` triggers an ETH withdraw matching the sent AnyswapV3ERC20 token in favor of caller.\r\n    /// Emits {Transfer} event.\r\n    /// Returns boolean value indicating whether operation succeeded.\r\n    /// Requirements:\r\n    ///   - caller account must have at least `value` AnyswapV3ERC20 token.\r\n    /// For more information on transferAndCall format, see https://github.com/ethereum/EIPs/issues/677.\r\n    function transferAndCall(address to, uint value, bytes calldata data) external override returns (bool) {\r\n        require(to != address(0) || to != address(this));\r\n\r\n        uint256 balance = balanceOf[msg.sender];\r\n        require(balance >= value, \"AnyswapV3ERC20: transfer amount exceeds balance\");\r\n\r\n        balanceOf[msg.sender] = balance - value;\r\n        balanceOf[to] += value;\r\n        emit Transfer(msg.sender, to, value);\r\n\r\n        return ITransferReceiver(to).onTokenTransfer(msg.sender, value, data);\r\n    }\r\n}",
  "sourcePath": "C:\\Users\\Sudeep\\Desktop\\personal\\trodl\\trodl-bsc-token\\contracts\\Trodl.sol",
  "compiler": {
    "name": "solc",
    "version": "0.8.2+commit.661d1103.Emscripten.clang"
  },
  "schemaVersion": "3.4.2",
  "updatedAt": "2021-10-21T11:11:41.694Z",
  "devdoc": {
    "kind": "dev",
    "methods": {
      "approve(address,uint256)": {
        "details": "Sets `value` as allowance of `spender` account over caller account's AnyswapV3ERC20 token. Emits {Approval} event. Returns boolean value indicating whether operation succeeded."
      },
      "approveAndCall(address,uint256,bytes)": {
        "details": "Sets `value` as allowance of `spender` account over caller account's AnyswapV3ERC20 token, after which a call is executed to an ERC677-compliant contract with the `data` parameter. Emits {Approval} event. Returns boolean value indicating whether operation succeeded. For more information on approveAndCall format, see https://github.com/ethereum/EIPs/issues/677."
      },
      "permit(address,address,uint256,uint256,uint8,bytes32,bytes32)": {
        "details": "Sets `value` as allowance of `spender` account over `owner` account's AnyswapV3ERC20 token, given `owner` account's signed approval. Emits {Approval} event. Requirements:   - `deadline` must be timestamp in future.   - `v`, `r` and `s` must be valid `secp256k1` signature from `owner` account over EIP712-formatted function arguments.   - the signature must use `owner` account's current nonce (see {nonces}).   - the signer cannot be zero address and must be `owner` account. For more information on signature format, see https://eips.ethereum.org/EIPS/eip-2612#specification[relevant EIP section]. AnyswapV3ERC20 token implementation adapted from https://github.com/albertocuestacanada/ERC20Permit/blob/master/contracts/ERC20Permit.sol."
      },
      "totalSupply()": {
        "details": "Returns the total supply of AnyswapV3ERC20 token as the ETH held in this contract."
      },
      "transfer(address,uint256)": {
        "details": "Moves `value` AnyswapV3ERC20 token from caller's account to account (`to`). A transfer to `address(0)` triggers an ETH withdraw matching the sent AnyswapV3ERC20 token in favor of caller. Emits {Transfer} event. Returns boolean value indicating whether operation succeeded. Requirements:   - caller account must have at least `value` AnyswapV3ERC20 token."
      },
      "transferAndCall(address,uint256,bytes)": {
        "details": "Moves `value` AnyswapV3ERC20 token from caller's account to account (`to`), after which a call is executed to an ERC677-compliant contract with the `data` parameter. A transfer to `address(0)` triggers an ETH withdraw matching the sent AnyswapV3ERC20 token in favor of caller. Emits {Transfer} event. Returns boolean value indicating whether operation succeeded. Requirements:   - caller account must have at least `value` AnyswapV3ERC20 token. For more information on transferAndCall format, see https://github.com/ethereum/EIPs/issues/677."
      },
      "transferFrom(address,address,uint256)": {
        "details": "Moves `value` AnyswapV3ERC20 token from account (`from`) to account (`to`) using allowance mechanism. `value` is then deducted from caller account's allowance, unless set to `type(uint256).max`. A transfer to `address(0)` triggers an ETH withdraw matching the sent AnyswapV3ERC20 token in favor of caller. Emits {Approval} event to reflect reduced allowance `value` for caller account to spend from account (`from`), unless allowance is set to `type(uint256).max` Emits {Transfer} event. Returns boolean value indicating whether operation succeeded. Requirements:   - `from` account must have at least `value` balance of AnyswapV3ERC20 token.   - `from` account must have approved caller to spend at least `value` of AnyswapV3ERC20 token, unless `from` and caller are the same account."
      }
    },
    "stateVariables": {
      "allowance": {
        "details": "Records number of AnyswapV3ERC20 token that account (second) will be allowed to spend on behalf of another account (first) through {transferFrom}."
      },
      "balanceOf": {
        "details": "Records amount of AnyswapV3ERC20 token owned by account."
      },
      "nonces": {
        "details": "Records current ERC2612 nonce for account. This value must be included whenever signature is generated for {permit}. Every successful call to {permit} increases account's nonce by one. This prevents signature from being used multiple times."
      }
    },
    "version": 1
  },
  "userdoc": {
    "kind": "user",
    "methods": {},
    "version": 1
  }
}