{
  "contractName": "TestRewardUser",
  "abi": [
    {
      "inputs": [
        {
          "internalType": "contract IStake",
          "name": "stakepool",
          "type": "address"
        }
      ],
      "stateMutability": "nonpayable",
      "type": "constructor"
    },
    {
      "anonymous": false,
      "inputs": [
        {
          "indexed": true,
          "internalType": "address",
          "name": "user",
          "type": "address"
        },
        {
          "indexed": false,
          "internalType": "uint256",
          "name": "amount",
          "type": "uint256"
        }
      ],
      "name": "RewardsUsed",
      "type": "event"
    },
    {
      "inputs": [
        {
          "internalType": "uint256",
          "name": "amount",
          "type": "uint256"
        }
      ],
      "name": "useXTRO",
      "outputs": [],
      "stateMutability": "nonpayable",
      "type": "function"
    }
  ],
  "bytecode": "0x608060405234801561001057600080fd5b50604051610385380380610385833981810160405281019061003291906100ed565b806000806101000a81548173ffffffffffffffffffffffffffffffffffffffff021916908373ffffffffffffffffffffffffffffffffffffffff1602179055505061011a565b600080fd5b600073ffffffffffffffffffffffffffffffffffffffff82169050919050565b60006100a88261007d565b9050919050565b60006100ba8261009d565b9050919050565b6100ca816100af565b81146100d557600080fd5b50565b6000815190506100e7816100c1565b92915050565b60006020828403121561010357610102610078565b5b6000610111848285016100d8565b91505092915050565b61025c806101296000396000f3fe608060405234801561001057600080fd5b506004361061002b5760003560e01c80630cfa00f014610030575b600080fd5b61004a60048036038101906100459190610165565b61004c565b005b60008054906101000a900473ffffffffffffffffffffffffffffffffffffffff1673ffffffffffffffffffffffffffffffffffffffff1663ca3d17dd82336040518363ffffffff1660e01b81526004016100a79291906101e2565b600060405180830381600087803b1580156100c157600080fd5b505af11580156100d5573d6000803e3d6000fd5b505050503373ffffffffffffffffffffffffffffffffffffffff167f3f7440fcedca7b40d47825276762a00b8f9366688d4676fca9f167f23f9e0e538260405161011f919061020b565b60405180910390a250565b600080fd5b6000819050919050565b6101428161012f565b811461014d57600080fd5b50565b60008135905061015f81610139565b92915050565b60006020828403121561017b5761017a61012a565b5b600061018984828501610150565b91505092915050565b61019b8161012f565b82525050565b600073ffffffffffffffffffffffffffffffffffffffff82169050919050565b60006101cc826101a1565b9050919050565b6101dc816101c1565b82525050565b60006040820190506101f76000830185610192565b61020460208301846101d3565b9392505050565b60006020820190506102206000830184610192565b9291505056fea26469706673582212204423cb104d4fa9967c84c8ef0b4c23f1b715aac3cd1a742d4259080f924c9a3864736f6c63430008090033",
  "immutableReferences": {},
  "source": "// SPDX-License-Identifier: MIT\r\npragma solidity 0.8.9;\r\n\r\ninterface IStake {\r\n    function stake(uint256 amount) external;\r\n\r\n    function getxTROBalance(address user) external view returns (uint256);\r\n\r\n    function getStakedTROBalance() external view returns (uint256);\r\n\r\n    function getUnstakedTROBalance() external view returns (uint256);\r\n\r\n    function getTotalTROStaked() external view returns (uint256);\r\n\r\n    function getTROStakingPool() external view returns (address);\r\n\r\n    function unstakeAll() external;\r\n\r\n    function unstake(uint256 amount) external;\r\n\r\n    function withdrawAllTRO() external;\r\n\r\n    function withdrawTRO(uint256 amount) external;\r\n\r\n    function reStake() external;\r\n\r\n    function usexTRO(uint256 amount, address user) external;\r\n\r\n    function getAllStakers() external view returns (address[] memory);\r\n}\r\n\r\ncontract TestRewardUser {\r\n    IStake _stakepool;\r\n\r\n    constructor(IStake stakepool) {\r\n        _stakepool = stakepool;\r\n    }\r\n\r\n    event RewardsUsed(address indexed user, uint256 amount);\r\n\r\n    function useXTRO(uint256 amount) public {\r\n        _stakepool.usexTRO(amount, msg.sender);\r\n        emit RewardsUsed(msg.sender, amount);\r\n    }\r\n}\r\n",
  "sourcePath": "C:\\Users\\Sudeep\\Desktop\\personal\\trodl\\trodl-stake\\contracts\\TestRewardUser.sol",
  "compiler": {
    "name": "solc",
    "version": "0.8.9+commit.e5eed63a.Emscripten.clang"
  },
  "schemaVersion": "3.4.2",
  "updatedAt": "2021-10-17T14:25:05.203Z",
  "devdoc": {
    "kind": "dev",
    "methods": {},
    "version": 1
  },
  "userdoc": {
    "kind": "user",
    "methods": {},
    "version": 1
  }
}