{
  "contractName": "TrodlStake",
  "abi": [
    {
      "inputs": [
        {
          "internalType": "contract IERC20",
          "name": "token",
          "type": "address"
        },
        {
          "internalType": "uint256",
          "name": "apy",
          "type": "uint256"
        },
        {
          "internalType": "uint256",
          "name": "lockupPeriod",
          "type": "uint256"
        }
      ],
      "stateMutability": "nonpayable",
      "type": "constructor"
    },
    {
      "anonymous": false,
      "inputs": [
        {
          "indexed": true,
          "internalType": "address",
          "name": "user",
          "type": "address"
        },
        {
          "indexed": false,
          "internalType": "uint256",
          "name": "amount",
          "type": "uint256"
        },
        {
          "indexed": false,
          "internalType": "uint256",
          "name": "total",
          "type": "uint256"
        }
      ],
      "name": "ReStake",
      "type": "event"
    },
    {
      "anonymous": false,
      "inputs": [
        {
          "indexed": true,
          "internalType": "address",
          "name": "user",
          "type": "address"
        },
        {
          "indexed": false,
          "internalType": "uint256",
          "name": "amount",
          "type": "uint256"
        }
      ],
      "name": "RewardUsed",
      "type": "event"
    },
    {
      "anonymous": false,
      "inputs": [
        {
          "indexed": true,
          "internalType": "bytes32",
          "name": "role",
          "type": "bytes32"
        },
        {
          "indexed": true,
          "internalType": "bytes32",
          "name": "previousAdminRole",
          "type": "bytes32"
        },
        {
          "indexed": true,
          "internalType": "bytes32",
          "name": "newAdminRole",
          "type": "bytes32"
        }
      ],
      "name": "RoleAdminChanged",
      "type": "event"
    },
    {
      "anonymous": false,
      "inputs": [
        {
          "indexed": true,
          "internalType": "bytes32",
          "name": "role",
          "type": "bytes32"
        },
        {
          "indexed": true,
          "internalType": "address",
          "name": "account",
          "type": "address"
        },
        {
          "indexed": true,
          "internalType": "address",
          "name": "sender",
          "type": "address"
        }
      ],
      "name": "RoleGranted",
      "type": "event"
    },
    {
      "anonymous": false,
      "inputs": [
        {
          "indexed": true,
          "internalType": "bytes32",
          "name": "role",
          "type": "bytes32"
        },
        {
          "indexed": true,
          "internalType": "address",
          "name": "account",
          "type": "address"
        },
        {
          "indexed": true,
          "internalType": "address",
          "name": "sender",
          "type": "address"
        }
      ],
      "name": "RoleRevoked",
      "type": "event"
    },
    {
      "anonymous": false,
      "inputs": [
        {
          "indexed": true,
          "internalType": "address",
          "name": "user",
          "type": "address"
        },
        {
          "indexed": false,
          "internalType": "uint256",
          "name": "amount",
          "type": "uint256"
        },
        {
          "indexed": false,
          "internalType": "uint256",
          "name": "total",
          "type": "uint256"
        }
      ],
      "name": "Staked",
      "type": "event"
    },
    {
      "anonymous": false,
      "inputs": [
        {
          "indexed": true,
          "internalType": "address",
          "name": "user",
          "type": "address"
        },
        {
          "indexed": false,
          "internalType": "uint256",
          "name": "amount",
          "type": "uint256"
        },
        {
          "indexed": false,
          "internalType": "uint256",
          "name": "total",
          "type": "uint256"
        }
      ],
      "name": "Unstaked",
      "type": "event"
    },
    {
      "anonymous": false,
      "inputs": [
        {
          "indexed": true,
          "internalType": "address",
          "name": "user",
          "type": "address"
        },
        {
          "indexed": false,
          "internalType": "uint256",
          "name": "amount",
          "type": "uint256"
        },
        {
          "indexed": false,
          "internalType": "uint256",
          "name": "total",
          "type": "uint256"
        }
      ],
      "name": "Withdraw",
      "type": "event"
    },
    {
      "inputs": [],
      "name": "DEFAULT_ADMIN_ROLE",
      "outputs": [
        {
          "internalType": "bytes32",
          "name": "",
          "type": "bytes32"
        }
      ],
      "stateMutability": "view",
      "type": "function",
      "constant": true
    },
    {
      "inputs": [],
      "name": "_apy",
      "outputs": [
        {
          "internalType": "uint256",
          "name": "",
          "type": "uint256"
        }
      ],
      "stateMutability": "view",
      "type": "function",
      "constant": true
    },
    {
      "inputs": [],
      "name": "_lockupPeriod",
      "outputs": [
        {
          "internalType": "uint256",
          "name": "",
          "type": "uint256"
        }
      ],
      "stateMutability": "view",
      "type": "function",
      "constant": true
    },
    {
      "inputs": [
        {
          "internalType": "bytes32",
          "name": "role",
          "type": "bytes32"
        }
      ],
      "name": "getRoleAdmin",
      "outputs": [
        {
          "internalType": "bytes32",
          "name": "",
          "type": "bytes32"
        }
      ],
      "stateMutability": "view",
      "type": "function",
      "constant": true
    },
    {
      "inputs": [
        {
          "internalType": "bytes32",
          "name": "role",
          "type": "bytes32"
        },
        {
          "internalType": "address",
          "name": "account",
          "type": "address"
        }
      ],
      "name": "grantRole",
      "outputs": [],
      "stateMutability": "nonpayable",
      "type": "function"
    },
    {
      "inputs": [
        {
          "internalType": "bytes32",
          "name": "role",
          "type": "bytes32"
        },
        {
          "internalType": "address",
          "name": "account",
          "type": "address"
        }
      ],
      "name": "hasRole",
      "outputs": [
        {
          "internalType": "bool",
          "name": "",
          "type": "bool"
        }
      ],
      "stateMutability": "view",
      "type": "function",
      "constant": true
    },
    {
      "inputs": [
        {
          "internalType": "bytes32",
          "name": "role",
          "type": "bytes32"
        },
        {
          "internalType": "address",
          "name": "account",
          "type": "address"
        }
      ],
      "name": "renounceRole",
      "outputs": [],
      "stateMutability": "nonpayable",
      "type": "function"
    },
    {
      "inputs": [
        {
          "internalType": "bytes32",
          "name": "role",
          "type": "bytes32"
        },
        {
          "internalType": "address",
          "name": "account",
          "type": "address"
        }
      ],
      "name": "revokeRole",
      "outputs": [],
      "stateMutability": "nonpayable",
      "type": "function"
    },
    {
      "inputs": [
        {
          "internalType": "bytes4",
          "name": "interfaceId",
          "type": "bytes4"
        }
      ],
      "name": "supportsInterface",
      "outputs": [
        {
          "internalType": "bool",
          "name": "",
          "type": "bool"
        }
      ],
      "stateMutability": "view",
      "type": "function",
      "constant": true
    },
    {
      "inputs": [
        {
          "internalType": "uint256",
          "name": "amount",
          "type": "uint256"
        }
      ],
      "name": "stake",
      "outputs": [],
      "stateMutability": "nonpayable",
      "type": "function"
    },
    {
      "inputs": [],
      "name": "unstakeAll",
      "outputs": [],
      "stateMutability": "nonpayable",
      "type": "function"
    },
    {
      "inputs": [
        {
          "internalType": "uint256",
          "name": "amount",
          "type": "uint256"
        }
      ],
      "name": "unstake",
      "outputs": [],
      "stateMutability": "nonpayable",
      "type": "function"
    },
    {
      "inputs": [],
      "name": "withdrawAllTRO",
      "outputs": [],
      "stateMutability": "nonpayable",
      "type": "function"
    },
    {
      "inputs": [
        {
          "internalType": "uint256",
          "name": "amount",
          "type": "uint256"
        }
      ],
      "name": "withdrawTRO",
      "outputs": [],
      "stateMutability": "nonpayable",
      "type": "function"
    },
    {
      "inputs": [],
      "name": "reStake",
      "outputs": [],
      "stateMutability": "nonpayable",
      "type": "function"
    },
    {
      "inputs": [
        {
          "internalType": "uint256",
          "name": "amount",
          "type": "uint256"
        },
        {
          "internalType": "address",
          "name": "user",
          "type": "address"
        }
      ],
      "name": "usexTRO",
      "outputs": [],
      "stateMutability": "nonpayable",
      "type": "function"
    },
    {
      "inputs": [
        {
          "internalType": "address",
          "name": "rewardUser",
          "type": "address"
        }
      ],
      "name": "grantRewardUserRole",
      "outputs": [],
      "stateMutability": "nonpayable",
      "type": "function"
    },
    {
      "inputs": [
        {
          "internalType": "address",
          "name": "rewardUser",
          "type": "address"
        }
      ],
      "name": "revokeRewardUserRole",
      "outputs": [],
      "stateMutability": "nonpayable",
      "type": "function"
    },
    {
      "inputs": [
        {
          "internalType": "address",
          "name": "user",
          "type": "address"
        }
      ],
      "name": "getxTROBalance",
      "outputs": [
        {
          "internalType": "uint256",
          "name": "",
          "type": "uint256"
        }
      ],
      "stateMutability": "view",
      "type": "function",
      "constant": true
    },
    {
      "inputs": [],
      "name": "getTotalxTRO",
      "outputs": [
        {
          "internalType": "uint256",
          "name": "",
          "type": "uint256"
        }
      ],
      "stateMutability": "view",
      "type": "function",
      "constant": true
    },
    {
      "inputs": [],
      "name": "getStakedTROBalance",
      "outputs": [
        {
          "internalType": "uint256",
          "name": "",
          "type": "uint256"
        }
      ],
      "stateMutability": "view",
      "type": "function",
      "constant": true
    },
    {
      "inputs": [],
      "name": "getUnstakedTROBalance",
      "outputs": [
        {
          "internalType": "uint256",
          "name": "",
          "type": "uint256"
        }
      ],
      "stateMutability": "view",
      "type": "function",
      "constant": true
    },
    {
      "inputs": [],
      "name": "getTotalTROStaked",
      "outputs": [
        {
          "internalType": "uint256",
          "name": "",
          "type": "uint256"
        }
      ],
      "stateMutability": "view",
      "type": "function",
      "constant": true
    },
    {
      "inputs": [],
      "name": "getTROStakingPool",
      "outputs": [
        {
          "internalType": "address",
          "name": "",
          "type": "address"
        }
      ],
      "stateMutability": "view",
      "type": "function",
      "constant": true
    },
    {
      "inputs": [],
      "name": "getAllStakers",
      "outputs": [
        {
          "internalType": "address[]",
          "name": "",
          "type": "address[]"
        }
      ],
      "stateMutability": "view",
      "type": "function",
      "constant": true
    },
    {
      "inputs": [
        {
          "internalType": "address",
          "name": "user",
          "type": "address"
        }
      ],
      "name": "getUserRewardInfo",
      "outputs": [
        {
          "components": [
            {
              "internalType": "uint256",
              "name": "stakedAmount",
              "type": "uint256"
            },
            {
              "internalType": "uint256",
              "name": "unstakedAmount",
              "type": "uint256"
            },
            {
              "internalType": "uint256",
              "name": "rewardMinted",
              "type": "uint256"
            },
            {
              "internalType": "uint256",
              "name": "rewardUsed",
              "type": "uint256"
            },
            {
              "internalType": "uint256",
              "name": "lastAccountingTimestampSec",
              "type": "uint256"
            }
          ],
          "internalType": "struct TrodlStake.UserRewardInfo",
          "name": "info",
          "type": "tuple"
        }
      ],
      "stateMutability": "view",
      "type": "function",
      "constant": true
    }
  ],
  "bytecode": "0x60806040526040518060400160405280600b81526020017f5245574152445f55534552000000000000000000000000000000000000000000815250805190602001206002553480156200005157600080fd5b50604051620045dd380380620045dd833981810160405281019062000077919062000365565b60016000819055508160038190555080600481905550826040516200009c906200029e565b620000a891906200042c565b604051809103906000f080158015620000c5573d6000803e3d6000fd5b50600560006101000a81548173ffffffffffffffffffffffffffffffffffffffff021916908373ffffffffffffffffffffffffffffffffffffffff1602179055506200011b6000801b336200012460201b60201c565b50505062000449565b6200013682826200013a60201b60201c565b5050565b6200014c82826200022b60201b60201c565b6200022757600180600084815260200190815260200160002060000160008373ffffffffffffffffffffffffffffffffffffffff1673ffffffffffffffffffffffffffffffffffffffff16815260200190815260200160002060006101000a81548160ff021916908315150217905550620001cc6200029660201b60201c565b73ffffffffffffffffffffffffffffffffffffffff168173ffffffffffffffffffffffffffffffffffffffff16837f2f8788117e7eff1d82e926ec794901d17c78024a50270940304540a733656f0d60405160405180910390a45b5050565b60006001600084815260200190815260200160002060000160008373ffffffffffffffffffffffffffffffffffffffff1673ffffffffffffffffffffffffffffffffffffffff16815260200190815260200160002060009054906101000a900460ff16905092915050565b600033905090565b610bbe8062003a1f83390190565b600080fd5b600073ffffffffffffffffffffffffffffffffffffffff82169050919050565b6000620002de82620002b1565b9050919050565b6000620002f282620002d1565b9050919050565b6200030481620002e5565b81146200031057600080fd5b50565b6000815190506200032481620002f9565b92915050565b6000819050919050565b6200033f816200032a565b81146200034b57600080fd5b50565b6000815190506200035f8162000334565b92915050565b600080600060608486031215620003815762000380620002ac565b5b6000620003918682870162000313565b9350506020620003a4868287016200034e565b9250506040620003b7868287016200034e565b9150509250925092565b6000819050919050565b6000620003ec620003e6620003e084620002b1565b620003c1565b620002b1565b9050919050565b60006200040082620003cb565b9050919050565b60006200041482620003f3565b9050919050565b620004268162000407565b82525050565b60006020820190506200044360008301846200041b565b92915050565b6135c680620004596000396000f3fe608060405234801561001057600080fd5b506004361061018e5760003560e01c8063577d7d6c116100de578063a694fc3a11610097578063d547741f11610071578063d547741f1461044b578063eba8a26614610467578063f87b83a914610471578063f8a7bdf51461048f5761018e565b8063a694fc3a146103f5578063b35c866214610411578063ca3d17dd1461042f5761018e565b8063577d7d6c1461031f578063695173101461033d5780636a7046861461036d5780636e4f88c81461038957806391d14854146103a7578063a217fddf146103d75761018e565b80632e17de781161014b57806336568abe1161012557806336568abe146102ab57806337e2c972146102c757806345e9dd94146102e55780634b3b7977146103015761018e565b80632e17de78146102695780632f2ff15d1461028557806335322f37146102a15761018e565b806301ffc9a71461019357806302e21846146101c35780630ad38b4e146101f35780630ebcf84814610211578063248a9ca31461021b5780632dd7d9001461024b575b600080fd5b6101ad60048036038101906101a8919061242e565b6104ab565b6040516101ba9190612476565b60405180910390f35b6101dd60048036038101906101d891906124ef565b610525565b6040516101ea9190612535565b60405180910390f35b6101fb6105fa565b6040516102089190612535565b60405180910390f35b6102196106a1565b005b61023560048036038101906102309190612586565b6106ee565b60405161024291906125c2565b60405180910390f35b61025361070e565b6040516102609190612535565b60405180910390f35b610283600480360381019061027e9190612609565b610714565b005b61029f600480360381019061029a9190612636565b610a2f565b005b6102a9610a58565b005b6102c560048036038101906102c09190612636565b610aa5565b005b6102cf610b28565b6040516102dc9190612535565b60405180910390f35b6102ff60048036038101906102fa9190612609565b610b72565b005b61030961100e565b6040516103169190612535565b60405180910390f35b610327611129565b6040516103349190612535565b60405180910390f35b610357600480360381019061035291906124ef565b611173565b60405161036491906126ed565b60405180910390f35b610387600480360381019061038291906124ef565b6111fe565b005b61039161120d565b60405161039e91906127c6565b60405180910390f35b6103c160048036038101906103bc9190612636565b61129b565b6040516103ce9190612476565b60405180910390f35b6103df611306565b6040516103ec91906125c2565b60405180910390f35b61040f600480360381019061040a9190612609565b61130d565b005b610419611881565b6040516104269190612535565b60405180910390f35b610449600480360381019061044491906127e8565b611887565b005b61046560048036038101906104609190612636565b611aca565b005b61046f611af3565b005b610479611d3f565b6040516104869190612837565b60405180910390f35b6104a960048036038101906104a491906124ef565b611d69565b005b60007f7965db0b000000000000000000000000000000000000000000000000000000007bffffffffffffffffffffffffffffffffffffffffffffffffffffffff1916827bffffffffffffffffffffffffffffffffffffffffffffffffffffffff1916148061051e575061051d82611d78565b5b9050919050565b600080600660008473ffffffffffffffffffffffffffffffffffffffff1673ffffffffffffffffffffffffffffffffffffffff1681526020019081526020016000206040518060a001604052908160008201548152602001600182015481526020016002820154815260200160038201548152602001600482015481525050905060006105b182611de2565b90506000806105cd838560400151611e4690919063ffffffff16565b90506105e6846060015182611e5c90919063ffffffff16565b809250819350505080945050505050919050565b6000600560009054906101000a900473ffffffffffffffffffffffffffffffffffffffff1673ffffffffffffffffffffffffffffffffffffffff1663b69ef8a86040518163ffffffff1660e01b815260040160206040518083038186803b15801561066457600080fd5b505afa158015610678573d6000803e3d6000fd5b505050506040513d601f19601f8201168201806040525081019061069c9190612867565b905090565b6106ec600660003373ffffffffffffffffffffffffffffffffffffffff1673ffffffffffffffffffffffffffffffffffffffff16815260200190815260200160002060010154610b72565b565b600060016000838152602001908152602001600020600101549050919050565b60045481565b6002600054141561075a576040517f08c379a0000000000000000000000000000000000000000000000000000000008152600401610751906128f1565b60405180910390fd5b6002600081905550600081116107a5576040517f08c379a000000000000000000000000000000000000000000000000000000000815260040161079c90612983565b60405180910390fd5b6000600660003373ffffffffffffffffffffffffffffffffffffffff1673ffffffffffffffffffffffffffffffffffffffff1681526020019081526020016000209050806000015482111561082f576040517f08c379a000000000000000000000000000000000000000000000000000000000815260040161082690612a15565b60405180910390fd5b600080610878836040518060a001604052908160008201548152602001600182015481526020016002820154815260200160038201548152602001600482015481525050611de2565b9050610891818460020154611e8490919063ffffffff16565b8460020160008291905055819350505060011515821515146108e8576040517f08c379a00000000000000000000000000000000000000000000000000000000081526004016108df90612a81565b60405180910390fd5b6108ff848460000154611e5c90919063ffffffff16565b846000016000829190505581935050506001151582151514610956576040517f08c379a000000000000000000000000000000000000000000000000000000000815260040161094d90612a81565b60405180910390fd5b61096d848460010154611e8490919063ffffffff16565b8460010160008291905055819350505060011515821515146109c4576040517f08c379a00000000000000000000000000000000000000000000000000000000081526004016109bb90612a81565b60405180910390fd5b4283600401819055503373ffffffffffffffffffffffffffffffffffffffff167f7fc4727e062e336010f2c282598ef5f14facb3de68cf8195c2f23e1454b2b74e858560000154604051610a19929190612aa1565b60405180910390a2505050600160008190555050565b610a38826106ee565b610a4981610a44611eb3565b611ebb565b610a538383611f58565b505050565b610aa3600660003373ffffffffffffffffffffffffffffffffffffffff1673ffffffffffffffffffffffffffffffffffffffff16815260200190815260200160002060000154610714565b565b610aad611eb3565b73ffffffffffffffffffffffffffffffffffffffff168173ffffffffffffffffffffffffffffffffffffffff1614610b1a576040517f08c379a0000000000000000000000000000000000000000000000000000000008152600401610b1190612b3c565b60405180910390fd5b610b248282612038565b5050565b6000600660003373ffffffffffffffffffffffffffffffffffffffff1673ffffffffffffffffffffffffffffffffffffffff16815260200190815260200160002060010154905090565b60026000541415610bb8576040517f08c379a0000000000000000000000000000000000000000000000000000000008152600401610baf906128f1565b60405180910390fd5b600260008190555060008111610c03576040517f08c379a0000000000000000000000000000000000000000000000000000000008152600401610bfa90612983565b60405180910390fd5b6000600660003373ffffffffffffffffffffffffffffffffffffffff1673ffffffffffffffffffffffffffffffffffffffff16815260200190815260200160002090508060010154821115610c8d576040517f08c379a0000000000000000000000000000000000000000000000000000000008152600401610c8490612bce565b60405180910390fd5b62015180600454610c9e9190612c1d565b8160040154610cad9190612c77565b421015610cef576040517f08c379a0000000000000000000000000000000000000000000000000000000008152600401610ce690612d3f565b60405180910390fd5b60008082600001541115610db7576000610d45836040518060a001604052908160008201548152602001600182015481526020016002820154815260200160038201548152602001600482015481525050611de2565b9050610d5e818460020154611e8490919063ffffffff16565b846002016000829190505581935050506001151582151514610db5576040517f08c379a0000000000000000000000000000000000000000000000000000000008152600401610dac90612a81565b60405180910390fd5b505b610dce838360010154611e5c90919063ffffffff16565b836001016000829190505581925050506001151581151514610e25576040517f08c379a0000000000000000000000000000000000000000000000000000000008152600401610e1c90612a81565b60405180910390fd5b428260040181905550600560009054906101000a900473ffffffffffffffffffffffffffffffffffffffff1673ffffffffffffffffffffffffffffffffffffffff1663a9059cbb33856040518363ffffffff1660e01b8152600401610e8b929190612d5f565b602060405180830381600087803b158015610ea557600080fd5b505af1925050508015610ed657506040513d601f19601f82011682018060405250810190610ed39190612db4565b60015b610fac57610ee2612dee565b806308c379a01415610f3d5750610ef7612e81565b80610f025750610f3f565b6040517f08c379a0000000000000000000000000000000000000000000000000000000008152600401610f3490612f89565b60405180910390fd5b505b3d8060008114610f6b576040519150601f19603f3d011682016040523d82523d6000602084013e610f70565b606091505b506040517f08c379a0000000000000000000000000000000000000000000000000000000008152600401610fa390612f89565b60405180910390fd5b3373ffffffffffffffffffffffffffffffffffffffff167ff279e6a1f5e320cca91135676d9cb6e44ca8a08c0b88342bcdb1144f6511b568858560000154604051610ff8929190612aa1565b60405180910390a2505050600160008190555050565b60008060005b6007805490508110156111215761110c600660006007848154811061103c5761103b612fa9565b5b9060005260206000200160009054906101000a900473ffffffffffffffffffffffffffffffffffffffff1673ffffffffffffffffffffffffffffffffffffffff1673ffffffffffffffffffffffffffffffffffffffff168152602001908152602001600020600301546110fe6110ef600785815481106110bf576110be612fa9565b5b9060005260206000200160009054906101000a900473ffffffffffffffffffffffffffffffffffffffff16610525565b85611e4690919063ffffffff16565b611e4690919063ffffffff16565b9150808061111990612fd8565b915050611014565b508091505090565b6000600660003373ffffffffffffffffffffffffffffffffffffffff1673ffffffffffffffffffffffffffffffffffffffff16815260200190815260200160002060000154905090565b61117b612398565b600660008373ffffffffffffffffffffffffffffffffffffffff1673ffffffffffffffffffffffffffffffffffffffff1681526020019081526020016000206040518060a0016040529081600082015481526020016001820154815260200160028201548152602001600382015481526020016004820154815250509050919050565b61120a60025482610a2f565b50565b6060600780548060200260200160405190810160405280929190818152602001828054801561129157602002820191906000526020600020905b8160009054906101000a900473ffffffffffffffffffffffffffffffffffffffff1673ffffffffffffffffffffffffffffffffffffffff1681526020019060010190808311611247575b5050505050905090565b60006001600084815260200190815260200160002060000160008373ffffffffffffffffffffffffffffffffffffffff1673ffffffffffffffffffffffffffffffffffffffff16815260200190815260200160002060009054906101000a900460ff16905092915050565b6000801b81565b60026000541415611353576040517f08c379a000000000000000000000000000000000000000000000000000000000815260040161134a906128f1565b60405180910390fd5b60026000819055506000811161139e576040517f08c379a00000000000000000000000000000000000000000000000000000000081526004016113959061306d565b60405180910390fd5b6000600660003373ffffffffffffffffffffffffffffffffffffffff1673ffffffffffffffffffffffffffffffffffffffff1681526020019081526020016000206040518060a001604052908160008201548152602001600182015481526020016002820154815260200160038201548152602001600482015481525050905060008082608001511415611490576007339080600181540180825580915050600190039060005260206000200160009091909190916101000a81548173ffffffffffffffffffffffffffffffffffffffff021916908373ffffffffffffffffffffffffffffffffffffffff1602179055505b60008260800151146115165760006114a783611de2565b90506114c0818460400151611e8490919063ffffffff16565b846040018181525081935050506001151582151514611514576040517f08c379a000000000000000000000000000000000000000000000000000000000815260040161150b90612a81565b60405180910390fd5b505b61152d838360000151611e8490919063ffffffff16565b836000018181525081925050506001151581151514611581576040517f08c379a000000000000000000000000000000000000000000000000000000000815260040161157890612a81565b60405180910390fd5b4282608001818152505081600660003373ffffffffffffffffffffffffffffffffffffffff1673ffffffffffffffffffffffffffffffffffffffff1681526020019081526020016000206000820151816000015560208201518160010155604082015181600201556060820151816003015560808201518160040155905050600560009054906101000a900473ffffffffffffffffffffffffffffffffffffffff1673ffffffffffffffffffffffffffffffffffffffff1663fc0c546a6040518163ffffffff1660e01b815260040160206040518083038186803b15801561166857600080fd5b505afa15801561167c573d6000803e3d6000fd5b505050506040513d601f19601f820116820180604052508101906116a091906130cb565b73ffffffffffffffffffffffffffffffffffffffff166323b872dd33600560009054906101000a900473ffffffffffffffffffffffffffffffffffffffff16866040518463ffffffff1660e01b81526004016116fe939291906130f8565b602060405180830381600087803b15801561171857600080fd5b505af192505050801561174957506040513d601f19601f820116820180604052508101906117469190612db4565b60015b61181f57611755612dee565b806308c379a014156117b0575061176a612e81565b8061177557506117b2565b6040517f08c379a00000000000000000000000000000000000000000000000000000000081526004016117a7906131a1565b60405180910390fd5b505b3d80600081146117de576040519150601f19603f3d011682016040523d82523d6000602084013e6117e3565b606091505b506040517f08c379a0000000000000000000000000000000000000000000000000000000008152600401611816906131a1565b60405180910390fd5b3373ffffffffffffffffffffffffffffffffffffffff167f1449c6dd7851abc30abf37f57715f492010519147cc2652fbc38202c18a6ee9085856000015160405161186b929190612aa1565b60405180910390a2505050600160008190555050565b60035481565b6118936002543361129b565b6118d2576040517f08c379a00000000000000000000000000000000000000000000000000000000081526004016118c990613233565b60405180910390fd5b6000600660008373ffffffffffffffffffffffffffffffffffffffff1673ffffffffffffffffffffffffffffffffffffffff1681526020019081526020016000209050600080826000015411156119dd57600061196b836040518060a001604052908160008201548152602001600182015481526020016002820154815260200160038201548152602001600482015481525050611de2565b9050611984818460020154611e8490919063ffffffff16565b8460020160008291905055819350505060011515821515146119db576040517f08c379a00000000000000000000000000000000000000000000000000000000081526004016119d290612a81565b60405180910390fd5b505b60006119fa83600301548460020154611e5c90919063ffffffff16565b809250819350505080851115611a45576040517f08c379a0000000000000000000000000000000000000000000000000000000008152600401611a3c9061329f565b60405180910390fd5b611a5c858460030154611e8490919063ffffffff16565b846003016000829190505581935050504283600401819055503373ffffffffffffffffffffffffffffffffffffffff167f492e951a8723a2e5f9ae1ff34f184e12c036b2e0245f788b77cc1b5f1c84961d86604051611abb9190612535565b60405180910390a25050505050565b611ad3826106ee565b611ae481611adf611eb3565b611ebb565b611aee8383612038565b505050565b60026000541415611b39576040517f08c379a0000000000000000000000000000000000000000000000000000000008152600401611b30906128f1565b60405180910390fd5b60026000819055506000600660003373ffffffffffffffffffffffffffffffffffffffff1673ffffffffffffffffffffffffffffffffffffffff168152602001908152602001600020905060008160010154905060008083600001541115611c55576000611be3846040518060a001604052908160008201548152602001600182015481526020016002820154815260200160038201548152602001600482015481525050611de2565b9050611bfc818560020154611e8490919063ffffffff16565b856002016000829190505581935050506001151582151514611c53576040517f08c379a0000000000000000000000000000000000000000000000000000000008152600401611c4a90612a81565b60405180910390fd5b505b611c7083600101548460000154611e8490919063ffffffff16565b846000016000829190505581925050506001151581151514611cc7576040517f08c379a0000000000000000000000000000000000000000000000000000000008152600401611cbe90612a81565b60405180910390fd5b600083600101819055504283600401819055503373ffffffffffffffffffffffffffffffffffffffff167f9cb26cb4ef8b29cfde93fbceff8228f18f262e0af8db151eda2f1f15af525b6d838560000154604051611d26929190612aa1565b60405180910390a2600091505050506001600081905550565b6000600560009054906101000a900473ffffffffffffffffffffffffffffffffffffffff16905090565b611d7560025482611aca565b50565b60007f01ffc9a7000000000000000000000000000000000000000000000000000000007bffffffffffffffffffffffffffffffffffffffffffffffffffffffff1916827bffffffffffffffffffffffffffffffffffffffffffffffffffffffff1916149050919050565b600080611e26611dff84608001514261211a90919063ffffffff16565b611e18600354866000015161213090919063ffffffff16565b61213090919063ffffffff16565b9050611e3e6283d6008261214690919063ffffffff16565b915050919050565b60008183611e549190612c77565b905092915050565b60008083831115611e735760008091509150611e7d565b6001838503915091505b9250929050565b6000806000838501905084811015611ea3576000809250925050611eac565b60018192509250505b9250929050565b600033905090565b611ec5828261129b565b611f5457611eea8173ffffffffffffffffffffffffffffffffffffffff16601461215c565b611ef88360001c602061215c565b604051602001611f099291906133d1565b6040516020818303038152906040526040517f08c379a0000000000000000000000000000000000000000000000000000000008152600401611f4b9190613444565b60405180910390fd5b5050565b611f62828261129b565b61203457600180600084815260200190815260200160002060000160008373ffffffffffffffffffffffffffffffffffffffff1673ffffffffffffffffffffffffffffffffffffffff16815260200190815260200160002060006101000a81548160ff021916908315150217905550611fd9611eb3565b73ffffffffffffffffffffffffffffffffffffffff168173ffffffffffffffffffffffffffffffffffffffff16837f2f8788117e7eff1d82e926ec794901d17c78024a50270940304540a733656f0d60405160405180910390a45b5050565b612042828261129b565b156121165760006001600084815260200190815260200160002060000160008373ffffffffffffffffffffffffffffffffffffffff1673ffffffffffffffffffffffffffffffffffffffff16815260200190815260200160002060006101000a81548160ff0219169083151502179055506120bb611eb3565b73ffffffffffffffffffffffffffffffffffffffff168173ffffffffffffffffffffffffffffffffffffffff16837ff6391f5c32d9c69d2a47ea670b442974b53935d1edc7fd64eb21e047a839171b60405160405180910390a45b5050565b600081836121289190613466565b905092915050565b6000818361213e9190612c1d565b905092915050565b6000818361215491906134c9565b905092915050565b60606000600283600261216f9190612c1d565b6121799190612c77565b67ffffffffffffffff81111561219257612191612e21565b5b6040519080825280601f01601f1916602001820160405280156121c45781602001600182028036833780820191505090505b5090507f3000000000000000000000000000000000000000000000000000000000000000816000815181106121fc576121fb612fa9565b5b60200101907effffffffffffffffffffffffffffffffffffffffffffffffffffffffffffff1916908160001a9053507f7800000000000000000000000000000000000000000000000000000000000000816001815181106122605761225f612fa9565b5b60200101907effffffffffffffffffffffffffffffffffffffffffffffffffffffffffffff1916908160001a905350600060018460026122a09190612c1d565b6122aa9190612c77565b90505b600181111561234a577f3031323334353637383961626364656600000000000000000000000000000000600f8616601081106122ec576122eb612fa9565b5b1a60f81b82828151811061230357612302612fa9565b5b60200101907effffffffffffffffffffffffffffffffffffffffffffffffffffffffffffff1916908160001a905350600485901c945080612343906134fa565b90506122ad565b506000841461238e576040517f08c379a000000000000000000000000000000000000000000000000000000000815260040161238590613570565b60405180910390fd5b8091505092915050565b6040518060a0016040528060008152602001600081526020016000815260200160008152602001600081525090565b6000604051905090565b600080fd5b60007fffffffff0000000000000000000000000000000000000000000000000000000082169050919050565b61240b816123d6565b811461241657600080fd5b50565b60008135905061242881612402565b92915050565b600060208284031215612444576124436123d1565b5b600061245284828501612419565b91505092915050565b60008115159050919050565b6124708161245b565b82525050565b600060208201905061248b6000830184612467565b92915050565b600073ffffffffffffffffffffffffffffffffffffffff82169050919050565b60006124bc82612491565b9050919050565b6124cc816124b1565b81146124d757600080fd5b50565b6000813590506124e9816124c3565b92915050565b600060208284031215612505576125046123d1565b5b6000612513848285016124da565b91505092915050565b6000819050919050565b61252f8161251c565b82525050565b600060208201905061254a6000830184612526565b92915050565b6000819050919050565b61256381612550565b811461256e57600080fd5b50565b6000813590506125808161255a565b92915050565b60006020828403121561259c5761259b6123d1565b5b60006125aa84828501612571565b91505092915050565b6125bc81612550565b82525050565b60006020820190506125d760008301846125b3565b92915050565b6125e68161251c565b81146125f157600080fd5b50565b600081359050612603816125dd565b92915050565b60006020828403121561261f5761261e6123d1565b5b600061262d848285016125f4565b91505092915050565b6000806040838503121561264d5761264c6123d1565b5b600061265b85828601612571565b925050602061266c858286016124da565b9150509250929050565b61267f8161251c565b82525050565b60a08201600082015161269b6000850182612676565b5060208201516126ae6020850182612676565b5060408201516126c16040850182612676565b5060608201516126d46060850182612676565b5060808201516126e76080850182612676565b50505050565b600060a0820190506127026000830184612685565b92915050565b600081519050919050565b600082825260208201905092915050565b6000819050602082019050919050565b61273d816124b1565b82525050565b600061274f8383612734565b60208301905092915050565b6000602082019050919050565b600061277382612708565b61277d8185612713565b935061278883612724565b8060005b838110156127b95781516127a08882612743565b97506127ab8361275b565b92505060018101905061278c565b5085935050505092915050565b600060208201905081810360008301526127e08184612768565b905092915050565b600080604083850312156127ff576127fe6123d1565b5b600061280d858286016125f4565b925050602061281e858286016124da565b9150509250929050565b612831816124b1565b82525050565b600060208201905061284c6000830184612828565b92915050565b600081519050612861816125dd565b92915050565b60006020828403121561287d5761287c6123d1565b5b600061288b84828501612852565b91505092915050565b600082825260208201905092915050565b7f5265656e7472616e637947756172643a207265656e7472616e742063616c6c00600082015250565b60006128db601f83612894565b91506128e6826128a5565b602082019050919050565b6000602082019050818103600083015261290a816128ce565b9050919050565b7f54726f646c5374616b653a2052657175697265204e6f6e205a65726f2056616c60008201527f7565000000000000000000000000000000000000000000000000000000000000602082015250565b600061296d602283612894565b915061297882612911565b604082019050919050565b6000602082019050818103600083015261299c81612960565b9050919050565b7f54726f646c5374616b653a204e6f7420656e6f756768205374616b656420545260008201527f4f00000000000000000000000000000000000000000000000000000000000000602082015250565b60006129ff602183612894565b9150612a0a826129a3565b604082019050919050565b60006020820190508181036000830152612a2e816129f2565b9050919050565b7f54726f646c5374616b653a204d617468204572726f7200000000000000000000600082015250565b6000612a6b601683612894565b9150612a7682612a35565b602082019050919050565b60006020820190508181036000830152612a9a81612a5e565b9050919050565b6000604082019050612ab66000830185612526565b612ac36020830184612526565b9392505050565b7f416363657373436f6e74726f6c3a2063616e206f6e6c792072656e6f756e636560008201527f20726f6c657320666f722073656c660000000000000000000000000000000000602082015250565b6000612b26602f83612894565b9150612b3182612aca565b604082019050919050565b60006020820190508181036000830152612b5581612b19565b9050919050565b7f54726f646c5374616b653a204e6f7420656e6f75676820556e2d5374616b656460008201527f2054524f00000000000000000000000000000000000000000000000000000000602082015250565b6000612bb8602483612894565b9150612bc382612b5c565b604082019050919050565b60006020820190508181036000830152612be781612bab565b9050919050565b7f4e487b7100000000000000000000000000000000000000000000000000000000600052601160045260246000fd5b6000612c288261251c565b9150612c338361251c565b9250817fffffffffffffffffffffffffffffffffffffffffffffffffffffffffffffffff0483118215151615612c6c57612c6b612bee565b5b828202905092915050565b6000612c828261251c565b9150612c8d8361251c565b9250827fffffffffffffffffffffffffffffffffffffffffffffffffffffffffffffffff03821115612cc257612cc1612bee565b5b828201905092915050565b7f54726f646c5374616b653a20576974686472617720696e204c6f636b5065726960008201527f6f64000000000000000000000000000000000000000000000000000000000000602082015250565b6000612d29602283612894565b9150612d3482612ccd565b604082019050919050565b60006020820190508181036000830152612d5881612d1c565b9050919050565b6000604082019050612d746000830185612828565b612d816020830184612526565b9392505050565b612d918161245b565b8114612d9c57600080fd5b50565b600081519050612dae81612d88565b92915050565b600060208284031215612dca57612dc96123d1565b5b6000612dd884828501612d9f565b91505092915050565b60008160e01c9050919050565b600060033d1115612e0d5760046000803e612e0a600051612de1565b90505b90565b6000601f19601f8301169050919050565b7f4e487b7100000000000000000000000000000000000000000000000000000000600052604160045260246000fd5b612e5982612e10565b810181811067ffffffffffffffff82111715612e7857612e77612e21565b5b80604052505050565b600060443d1015612e9157612f14565b612e996123c7565b60043d036004823e80513d602482011167ffffffffffffffff82111715612ec1575050612f14565b808201805167ffffffffffffffff811115612edf5750505050612f14565b80602083010160043d038501811115612efc575050505050612f14565b612f0b82602001850186612e50565b82955050505050505b90565b7f54726f646c5374616b653a205472616e73666572204572726f722066726f6d2060008201527f506f6f6c00000000000000000000000000000000000000000000000000000000602082015250565b6000612f73602483612894565b9150612f7e82612f17565b604082019050919050565b60006020820190508181036000830152612fa281612f66565b9050919050565b7f4e487b7100000000000000000000000000000000000000000000000000000000600052603260045260246000fd5b6000612fe38261251c565b91507fffffffffffffffffffffffffffffffffffffffffffffffffffffffffffffffff82141561301657613015612bee565b5b600182019050919050565b7f54726f646c5374616b653a207374616b6520616d6f756e74205a45524f000000600082015250565b6000613057601d83612894565b915061306282613021565b602082019050919050565b600060208201905081810360008301526130868161304a565b9050919050565b6000613098826124b1565b9050919050565b6130a88161308d565b81146130b357600080fd5b50565b6000815190506130c58161309f565b92915050565b6000602082840312156130e1576130e06123d1565b5b60006130ef848285016130b6565b91505092915050565b600060608201905061310d6000830186612828565b61311a6020830185612828565b6131276040830184612526565b949350505050565b7f54726f646c5374616b653a204661696c6564207472616e7366657220746f207360008201527f74616b696e6720706f6f6c000000000000000000000000000000000000000000602082015250565b600061318b602b83612894565b91506131968261312f565b604082019050919050565b600060208201905081810360008301526131ba8161317e565b9050919050565b7f54726f646c5374616b653a20416464726573732063616e6e6f7420757365207260008201527f6577617264730000000000000000000000000000000000000000000000000000602082015250565b600061321d602683612894565b9150613228826131c1565b604082019050919050565b6000602082019050818103600083015261324c81613210565b9050919050565b7f54726f646c5374616b653a20496e73756666696369656e742052657761726473600082015250565b6000613289602083612894565b915061329482613253565b602082019050919050565b600060208201905081810360008301526132b88161327c565b9050919050565b600081905092915050565b7f416363657373436f6e74726f6c3a206163636f756e7420000000000000000000600082015250565b60006133006017836132bf565b915061330b826132ca565b601782019050919050565b600081519050919050565b60005b8381101561333f578082015181840152602081019050613324565b8381111561334e576000848401525b50505050565b600061335f82613316565b61336981856132bf565b9350613379818560208601613321565b80840191505092915050565b7f206973206d697373696e6720726f6c6520000000000000000000000000000000600082015250565b60006133bb6011836132bf565b91506133c682613385565b601182019050919050565b60006133dc826132f3565b91506133e88285613354565b91506133f3826133ae565b91506133ff8284613354565b91508190509392505050565b600061341682613316565b6134208185612894565b9350613430818560208601613321565b61343981612e10565b840191505092915050565b6000602082019050818103600083015261345e818461340b565b905092915050565b60006134718261251c565b915061347c8361251c565b92508282101561348f5761348e612bee565b5b828203905092915050565b7f4e487b7100000000000000000000000000000000000000000000000000000000600052601260045260246000fd5b60006134d48261251c565b91506134df8361251c565b9250826134ef576134ee61349a565b5b828204905092915050565b60006135058261251c565b9150600082141561351957613518612bee565b5b600182039050919050565b7f537472696e67733a20686578206c656e67746820696e73756666696369656e74600082015250565b600061355a602083612894565b915061356582613524565b602082019050919050565b600060208201905081810360008301526135898161354d565b905091905056fea264697066735822122059d76c43290abb503b3cf8353328dc9221ddd1d5e9da7f7656599354dc4aeeae64736f6c63430008090033608060405234801561001057600080fd5b50604051610bbe380380610bbe833981810160405281019061003291906101d6565b61004e61004361009560201b60201c565b61009d60201b60201c565b80600160006101000a81548173ffffffffffffffffffffffffffffffffffffffff021916908373ffffffffffffffffffffffffffffffffffffffff16021790555050610203565b600033905090565b60008060009054906101000a900473ffffffffffffffffffffffffffffffffffffffff169050816000806101000a81548173ffffffffffffffffffffffffffffffffffffffff021916908373ffffffffffffffffffffffffffffffffffffffff1602179055508173ffffffffffffffffffffffffffffffffffffffff168173ffffffffffffffffffffffffffffffffffffffff167f8be0079c531659141344cd1fd0a4f28419497f9722a3daafe3b4186f6b6457e060405160405180910390a35050565b600080fd5b600073ffffffffffffffffffffffffffffffffffffffff82169050919050565b600061019182610166565b9050919050565b60006101a382610186565b9050919050565b6101b381610198565b81146101be57600080fd5b50565b6000815190506101d0816101aa565b92915050565b6000602082840312156101ec576101eb610161565b5b60006101fa848285016101c1565b91505092915050565b6109ac806102126000396000f3fe608060405234801561001057600080fd5b50600436106100625760003560e01c8063715018a6146100675780638da5cb5b14610071578063a9059cbb1461008f578063b69ef8a8146100bf578063f2fde38b146100dd578063fc0c546a146100f9575b600080fd5b61006f610117565b005b61007961019f565b60405161008691906105da565b60405180910390f35b6100a960048036038101906100a4919061065c565b6101c8565b6040516100b691906106b7565b60405180910390f35b6100c76102fd565b6040516100d491906106e1565b60405180910390f35b6100f760048036038101906100f291906106fc565b6103af565b005b6101016104a7565b60405161010e9190610788565b60405180910390f35b61011f6104cd565b73ffffffffffffffffffffffffffffffffffffffff1661013d61019f565b73ffffffffffffffffffffffffffffffffffffffff1614610193576040517f08c379a000000000000000000000000000000000000000000000000000000000815260040161018a90610800565b60405180910390fd5b61019d60006104d5565b565b60008060009054906101000a900473ffffffffffffffffffffffffffffffffffffffff16905090565b60006101d26104cd565b73ffffffffffffffffffffffffffffffffffffffff166101f061019f565b73ffffffffffffffffffffffffffffffffffffffff1614610246576040517f08c379a000000000000000000000000000000000000000000000000000000000815260040161023d90610800565b60405180910390fd5b600160009054906101000a900473ffffffffffffffffffffffffffffffffffffffff1673ffffffffffffffffffffffffffffffffffffffff1663a9059cbb84846040518363ffffffff1660e01b81526004016102a3929190610820565b602060405180830381600087803b1580156102bd57600080fd5b505af11580156102d1573d6000803e3d6000fd5b505050506040513d601f19601f820116820180604052508101906102f59190610875565b905092915050565b6000600160009054906101000a900473ffffffffffffffffffffffffffffffffffffffff1673ffffffffffffffffffffffffffffffffffffffff166370a08231306040518263ffffffff1660e01b815260040161035a91906105da565b60206040518083038186803b15801561037257600080fd5b505afa158015610386573d6000803e3d6000fd5b505050506040513d601f19601f820116820180604052508101906103aa91906108b7565b905090565b6103b76104cd565b73ffffffffffffffffffffffffffffffffffffffff166103d561019f565b73ffffffffffffffffffffffffffffffffffffffff161461042b576040517f08c379a000000000000000000000000000000000000000000000000000000000815260040161042290610800565b60405180910390fd5b600073ffffffffffffffffffffffffffffffffffffffff168173ffffffffffffffffffffffffffffffffffffffff16141561049b576040517f08c379a000000000000000000000000000000000000000000000000000000000815260040161049290610956565b60405180910390fd5b6104a4816104d5565b50565b600160009054906101000a900473ffffffffffffffffffffffffffffffffffffffff1681565b600033905090565b60008060009054906101000a900473ffffffffffffffffffffffffffffffffffffffff169050816000806101000a81548173ffffffffffffffffffffffffffffffffffffffff021916908373ffffffffffffffffffffffffffffffffffffffff1602179055508173ffffffffffffffffffffffffffffffffffffffff168173ffffffffffffffffffffffffffffffffffffffff167f8be0079c531659141344cd1fd0a4f28419497f9722a3daafe3b4186f6b6457e060405160405180910390a35050565b600073ffffffffffffffffffffffffffffffffffffffff82169050919050565b60006105c482610599565b9050919050565b6105d4816105b9565b82525050565b60006020820190506105ef60008301846105cb565b92915050565b600080fd5b610603816105b9565b811461060e57600080fd5b50565b600081359050610620816105fa565b92915050565b6000819050919050565b61063981610626565b811461064457600080fd5b50565b60008135905061065681610630565b92915050565b60008060408385031215610673576106726105f5565b5b600061068185828601610611565b925050602061069285828601610647565b9150509250929050565b60008115159050919050565b6106b18161069c565b82525050565b60006020820190506106cc60008301846106a8565b92915050565b6106db81610626565b82525050565b60006020820190506106f660008301846106d2565b92915050565b600060208284031215610712576107116105f5565b5b600061072084828501610611565b91505092915050565b6000819050919050565b600061074e61074961074484610599565b610729565b610599565b9050919050565b600061076082610733565b9050919050565b600061077282610755565b9050919050565b61078281610767565b82525050565b600060208201905061079d6000830184610779565b92915050565b600082825260208201905092915050565b7f4f776e61626c653a2063616c6c6572206973206e6f7420746865206f776e6572600082015250565b60006107ea6020836107a3565b91506107f5826107b4565b602082019050919050565b60006020820190508181036000830152610819816107dd565b9050919050565b600060408201905061083560008301856105cb565b61084260208301846106d2565b9392505050565b6108528161069c565b811461085d57600080fd5b50565b60008151905061086f81610849565b92915050565b60006020828403121561088b5761088a6105f5565b5b600061089984828501610860565b91505092915050565b6000815190506108b181610630565b92915050565b6000602082840312156108cd576108cc6105f5565b5b60006108db848285016108a2565b91505092915050565b7f4f776e61626c653a206e6577206f776e657220697320746865207a65726f206160008201527f6464726573730000000000000000000000000000000000000000000000000000602082015250565b60006109406026836107a3565b915061094b826108e4565b604082019050919050565b6000602082019050818103600083015261096f81610933565b905091905056fea264697066735822122042d3d40770b993e29865ad649aef3b57558aa313d260d99a9b1d719223d3111964736f6c63430008090033",
  "immutableReferences": {},
  "source": "// SPDX-License-Identifier: GPL-3.0-only\r\npragma solidity 0.8.9;\r\n\r\n/**\r\n * @dev Interface of the ERC165 standard, as defined in the\r\n * https://eips.ethereum.org/EIPS/eip-165[EIP].\r\n *\r\n * Implementers can declare support of contract interfaces, which can then be\r\n * queried by others ({ERC165Checker}).\r\n *\r\n * For an implementation, see {ERC165}.\r\n */\r\ninterface IERC165 {\r\n    /**\r\n     * @dev Returns true if this contract implements the interface defined by\r\n     * `interfaceId`. See the corresponding\r\n     * https://eips.ethereum.org/EIPS/eip-165#how-interfaces-are-identified[EIP section]\r\n     * to learn more about how these ids are created.\r\n     *\r\n     * This function call must use less than 30 000 gas.\r\n     */\r\n    function supportsInterface(bytes4 interfaceId) external view returns (bool);\r\n}\r\n\r\n/**\r\n * @dev Interface of the ERC20 standard as defined in the EIP.\r\n */\r\ninterface IERC20 {\r\n    /**\r\n     * @dev Returns the amount of tokens in existence.\r\n     */\r\n    function totalSupply() external view returns (uint256);\r\n\r\n    /**\r\n     * @dev Returns the amount of tokens owned by `account`.\r\n     */\r\n    function balanceOf(address account) external view returns (uint256);\r\n\r\n    /**\r\n     * @dev Moves `amount` tokens from the caller's account to `recipient`.\r\n     *\r\n     * Returns a boolean value indicating whether the operation succeeded.\r\n     *\r\n     * Emits a {Transfer} event.\r\n     */\r\n    function transfer(address recipient, uint256 amount)\r\n        external\r\n        returns (bool);\r\n\r\n    /**\r\n     * @dev Returns the remaining number of tokens that `spender` will be\r\n     * allowed to spend on behalf of `owner` through {transferFrom}. This is\r\n     * zero by default.\r\n     *\r\n     * This value changes when {approve} or {transferFrom} are called.\r\n     */\r\n    function allowance(address owner, address spender)\r\n        external\r\n        view\r\n        returns (uint256);\r\n\r\n    /**\r\n     * @dev Sets `amount` as the allowance of `spender` over the caller's tokens.\r\n     *\r\n     * Returns a boolean value indicating whether the operation succeeded.\r\n     *\r\n     * IMPORTANT: Beware that changing an allowance with this method brings the risk\r\n     * that someone may use both the old and the new allowance by unfortunate\r\n     * transaction ordering. One possible solution to mitigate this race\r\n     * condition is to first reduce the spender's allowance to 0 and set the\r\n     * desired value afterwards:\r\n     * https://github.com/ethereum/EIPs/issues/20#issuecomment-263524729\r\n     *\r\n     * Emits an {Approval} event.\r\n     */\r\n    function approve(address spender, uint256 amount) external returns (bool);\r\n\r\n    /**\r\n     * @dev Moves `amount` tokens from `sender` to `recipient` using the\r\n     * allowance mechanism. `amount` is then deducted from the caller's\r\n     * allowance.\r\n     *\r\n     * Returns a boolean value indicating whether the operation succeeded.\r\n     *\r\n     * Emits a {Transfer} event.\r\n     */\r\n    function transferFrom(\r\n        address sender,\r\n        address recipient,\r\n        uint256 amount\r\n    ) external returns (bool);\r\n\r\n    /**\r\n     * @dev Emitted when `value` tokens are moved from one account (`from`) to\r\n     * another (`to`).\r\n     *\r\n     * Note that `value` may be zero.\r\n     */\r\n    event Transfer(address indexed from, address indexed to, uint256 value);\r\n\r\n    /**\r\n     * @dev Emitted when the allowance of a `spender` for an `owner` is set by\r\n     * a call to {approve}. `value` is the new allowance.\r\n     */\r\n    event Approval(\r\n        address indexed owner,\r\n        address indexed spender,\r\n        uint256 value\r\n    );\r\n}\r\n\r\n/**\r\n * @dev Provides information about the current execution context, including the\r\n * sender of the transaction and its data. While these are generally available\r\n * via msg.sender and msg.data, they should not be accessed in such a direct\r\n * manner, since when dealing with meta-transactions the account sending and\r\n * paying for execution may not be the actual sender (as far as an application\r\n * is concerned).\r\n *\r\n * This contract is only required for intermediate, library-like contracts.\r\n */\r\nabstract contract Context {\r\n    function _msgSender() internal view virtual returns (address) {\r\n        return msg.sender;\r\n    }\r\n\r\n    function _msgData() internal view virtual returns (bytes calldata) {\r\n        return msg.data;\r\n    }\r\n}\r\n\r\n/**\r\n * @dev Contract module which provides a basic access control mechanism, where\r\n * there is an account (an owner) that can be granted exclusive access to\r\n * specific functions.\r\n *\r\n * By default, the owner account will be the one that deploys the contract. This\r\n * can later be changed with {transferOwnership}.\r\n *\r\n * This module is used through inheritance. It will make available the modifier\r\n * `onlyOwner`, which can be applied to your functions to restrict their use to\r\n * the owner.\r\n */\r\nabstract contract Ownable is Context {\r\n    address private _owner;\r\n\r\n    event OwnershipTransferred(\r\n        address indexed previousOwner,\r\n        address indexed newOwner\r\n    );\r\n\r\n    /**\r\n     * @dev Initializes the contract setting the deployer as the initial owner.\r\n     */\r\n    constructor() {\r\n        _setOwner(_msgSender());\r\n    }\r\n\r\n    /**\r\n     * @dev Returns the address of the current owner.\r\n     */\r\n    function owner() public view virtual returns (address) {\r\n        return _owner;\r\n    }\r\n\r\n    /**\r\n     * @dev Throws if called by any account other than the owner.\r\n     */\r\n    modifier onlyOwner() {\r\n        require(owner() == _msgSender(), \"Ownable: caller is not the owner\");\r\n        _;\r\n    }\r\n\r\n    /**\r\n     * @dev Leaves the contract without owner. It will not be possible to call\r\n     * `onlyOwner` functions anymore. Can only be called by the current owner.\r\n     *\r\n     * NOTE: Renouncing ownership will leave the contract without an owner,\r\n     * thereby removing any functionality that is only available to the owner.\r\n     */\r\n    function renounceOwnership() public virtual onlyOwner {\r\n        _setOwner(address(0));\r\n    }\r\n\r\n    /**\r\n     * @dev Transfers ownership of the contract to a new account (`newOwner`).\r\n     * Can only be called by the current owner.\r\n     */\r\n    function transferOwnership(address newOwner) public virtual onlyOwner {\r\n        require(\r\n            newOwner != address(0),\r\n            \"Ownable: new owner is the zero address\"\r\n        );\r\n        _setOwner(newOwner);\r\n    }\r\n\r\n    function _setOwner(address newOwner) private {\r\n        address oldOwner = _owner;\r\n        _owner = newOwner;\r\n        emit OwnershipTransferred(oldOwner, newOwner);\r\n    }\r\n}\r\n\r\n/**\r\n * @title A simple holder of tokens.\r\n * This is a simple contract to hold tokens. It's useful in the case where a separate contract\r\n * needs to hold multiple distinct pools of the same token.\r\n */\r\ncontract TokenPool is Ownable {\r\n    IERC20 public token;\r\n\r\n    constructor(IERC20 _token) {\r\n        token = _token;\r\n    }\r\n\r\n    function balance() external view returns (uint256) {\r\n        return token.balanceOf(address(this));\r\n    }\r\n\r\n    function transfer(address to, uint256 value)\r\n        external\r\n        onlyOwner\r\n        returns (bool)\r\n    {\r\n        return token.transfer(to, value);\r\n    }\r\n}\r\n\r\n/**\r\n * @dev Contract module that helps prevent reentrant calls to a function.\r\n *\r\n * Inheriting from `ReentrancyGuard` will make the {nonReentrant} modifier\r\n * available, which can be applied to functions to make sure there are no nested\r\n * (reentrant) calls to them.\r\n *\r\n * Note that because there is a single `nonReentrant` guard, functions marked as\r\n * `nonReentrant` may not call one another. This can be worked around by making\r\n * those functions `private`, and then adding `external` `nonReentrant` entry\r\n * points to them.\r\n *\r\n * TIP: If you would like to learn more about reentrancy and alternative ways\r\n * to protect against it, check out our blog post\r\n * https://blog.openzeppelin.com/reentrancy-after-istanbul/[Reentrancy After Istanbul].\r\n */\r\nabstract contract ReentrancyGuard {\r\n    // Booleans are more expensive than uint256 or any type that takes up a full\r\n    // word because each write operation emits an extra SLOAD to first read the\r\n    // slot's contents, replace the bits taken up by the boolean, and then write\r\n    // back. This is the compiler's defense against contract upgrades and\r\n    // pointer aliasing, and it cannot be disabled.\r\n\r\n    // The values being non-zero value makes deployment a bit more expensive,\r\n    // but in exchange the refund on every call to nonReentrant will be lower in\r\n    // amount. Since refunds are capped to a percentage of the total\r\n    // transaction's gas, it is best to keep them low in cases like this one, to\r\n    // increase the likelihood of the full refund coming into effect.\r\n    uint256 private constant _NOT_ENTERED = 1;\r\n    uint256 private constant _ENTERED = 2;\r\n\r\n    uint256 private _status;\r\n\r\n    constructor() {\r\n        _status = _NOT_ENTERED;\r\n    }\r\n\r\n    /**\r\n     * @dev Prevents a contract from calling itself, directly or indirectly.\r\n     * Calling a `nonReentrant` function from another `nonReentrant`\r\n     * function is not supported. It is possible to prevent this from happening\r\n     * by making the `nonReentrant` function external, and make it call a\r\n     * `private` function that does the actual work.\r\n     */\r\n    modifier nonReentrant() {\r\n        // On the first call to nonReentrant, _notEntered will be true\r\n        require(_status != _ENTERED, \"ReentrancyGuard: reentrant call\");\r\n\r\n        // Any calls to nonReentrant after this point will fail\r\n        _status = _ENTERED;\r\n\r\n        _;\r\n\r\n        // By storing the original value once again, a refund is triggered (see\r\n        // https://eips.ethereum.org/EIPS/eip-2200)\r\n        _status = _NOT_ENTERED;\r\n    }\r\n}\r\n\r\n/**\r\n * @dev External interface of AccessControl declared to support ERC165 detection.\r\n */\r\ninterface IAccessControl {\r\n    /**\r\n     * @dev Emitted when `newAdminRole` is set as ``role``'s admin role, replacing `previousAdminRole`\r\n     *\r\n     * `DEFAULT_ADMIN_ROLE` is the starting admin for all roles, despite\r\n     * {RoleAdminChanged} not being emitted signaling this.\r\n     *\r\n     * _Available since v3.1._\r\n     */\r\n    event RoleAdminChanged(\r\n        bytes32 indexed role,\r\n        bytes32 indexed previousAdminRole,\r\n        bytes32 indexed newAdminRole\r\n    );\r\n\r\n    /**\r\n     * @dev Emitted when `account` is granted `role`.\r\n     *\r\n     * `sender` is the account that originated the contract call, an admin role\r\n     * bearer except when using {AccessControl-_setupRole}.\r\n     */\r\n    event RoleGranted(\r\n        bytes32 indexed role,\r\n        address indexed account,\r\n        address indexed sender\r\n    );\r\n\r\n    /**\r\n     * @dev Emitted when `account` is revoked `role`.\r\n     *\r\n     * `sender` is the account that originated the contract call:\r\n     *   - if using `revokeRole`, it is the admin role bearer\r\n     *   - if using `renounceRole`, it is the role bearer (i.e. `account`)\r\n     */\r\n    event RoleRevoked(\r\n        bytes32 indexed role,\r\n        address indexed account,\r\n        address indexed sender\r\n    );\r\n\r\n    /**\r\n     * @dev Returns `true` if `account` has been granted `role`.\r\n     */\r\n    function hasRole(bytes32 role, address account)\r\n        external\r\n        view\r\n        returns (bool);\r\n\r\n    /**\r\n     * @dev Returns the admin role that controls `role`. See {grantRole} and\r\n     * {revokeRole}.\r\n     *\r\n     * To change a role's admin, use {AccessControl-_setRoleAdmin}.\r\n     */\r\n    function getRoleAdmin(bytes32 role) external view returns (bytes32);\r\n\r\n    /**\r\n     * @dev Grants `role` to `account`.\r\n     *\r\n     * If `account` had not been already granted `role`, emits a {RoleGranted}\r\n     * event.\r\n     *\r\n     * Requirements:\r\n     *\r\n     * - the caller must have ``role``'s admin role.\r\n     */\r\n    function grantRole(bytes32 role, address account) external;\r\n\r\n    /**\r\n     * @dev Revokes `role` from `account`.\r\n     *\r\n     * If `account` had been granted `role`, emits a {RoleRevoked} event.\r\n     *\r\n     * Requirements:\r\n     *\r\n     * - the caller must have ``role``'s admin role.\r\n     */\r\n    function revokeRole(bytes32 role, address account) external;\r\n\r\n    /**\r\n     * @dev Revokes `role` from the calling account.\r\n     *\r\n     * Roles are often managed via {grantRole} and {revokeRole}: this function's\r\n     * purpose is to provide a mechanism for accounts to lose their privileges\r\n     * if they are compromised (such as when a trusted device is misplaced).\r\n     *\r\n     * If the calling account had been granted `role`, emits a {RoleRevoked}\r\n     * event.\r\n     *\r\n     * Requirements:\r\n     *\r\n     * - the caller must be `account`.\r\n     */\r\n    function renounceRole(bytes32 role, address account) external;\r\n}\r\n\r\n/**\r\n * @dev String operations.\r\n */\r\nlibrary Strings {\r\n    bytes16 private constant _HEX_SYMBOLS = \"0123456789abcdef\";\r\n\r\n    /**\r\n     * @dev Converts a `uint256` to its ASCII `string` decimal representation.\r\n     */\r\n    function toString(uint256 value) internal pure returns (string memory) {\r\n        // Inspired by OraclizeAPI's implementation - MIT licence\r\n        // https://github.com/oraclize/ethereum-api/blob/b42146b063c7d6ee1358846c198246239e9360e8/oraclizeAPI_0.4.25.sol\r\n\r\n        if (value == 0) {\r\n            return \"0\";\r\n        }\r\n        uint256 temp = value;\r\n        uint256 digits;\r\n        while (temp != 0) {\r\n            digits++;\r\n            temp /= 10;\r\n        }\r\n        bytes memory buffer = new bytes(digits);\r\n        while (value != 0) {\r\n            digits -= 1;\r\n            buffer[digits] = bytes1(uint8(48 + uint256(value % 10)));\r\n            value /= 10;\r\n        }\r\n        return string(buffer);\r\n    }\r\n\r\n    /**\r\n     * @dev Converts a `uint256` to its ASCII `string` hexadecimal representation.\r\n     */\r\n    function toHexString(uint256 value) internal pure returns (string memory) {\r\n        if (value == 0) {\r\n            return \"0x00\";\r\n        }\r\n        uint256 temp = value;\r\n        uint256 length = 0;\r\n        while (temp != 0) {\r\n            length++;\r\n            temp >>= 8;\r\n        }\r\n        return toHexString(value, length);\r\n    }\r\n\r\n    /**\r\n     * @dev Converts a `uint256` to its ASCII `string` hexadecimal representation with fixed length.\r\n     */\r\n    function toHexString(uint256 value, uint256 length)\r\n        internal\r\n        pure\r\n        returns (string memory)\r\n    {\r\n        bytes memory buffer = new bytes(2 * length + 2);\r\n        buffer[0] = \"0\";\r\n        buffer[1] = \"x\";\r\n        for (uint256 i = 2 * length + 1; i > 1; --i) {\r\n            buffer[i] = _HEX_SYMBOLS[value & 0xf];\r\n            value >>= 4;\r\n        }\r\n        require(value == 0, \"Strings: hex length insufficient\");\r\n        return string(buffer);\r\n    }\r\n}\r\n\r\n/**\r\n * @dev Implementation of the {IERC165} interface.\r\n *\r\n * Contracts that want to implement ERC165 should inherit from this contract and override {supportsInterface} to check\r\n * for the additional interface id that will be supported. For example:\r\n *\r\n * ```solidity\r\n * function supportsInterface(bytes4 interfaceId) public view virtual override returns (bool) {\r\n *     return interfaceId == type(MyInterface).interfaceId || super.supportsInterface(interfaceId);\r\n * }\r\n * ```\r\n *\r\n * Alternatively, {ERC165Storage} provides an easier to use but more expensive implementation.\r\n */\r\nabstract contract ERC165 is IERC165 {\r\n    /**\r\n     * @dev See {IERC165-supportsInterface}.\r\n     */\r\n    function supportsInterface(bytes4 interfaceId)\r\n        public\r\n        view\r\n        virtual\r\n        override\r\n        returns (bool)\r\n    {\r\n        return interfaceId == type(IERC165).interfaceId;\r\n    }\r\n}\r\n\r\n/**\r\n * @dev Contract module that allows children to implement role-based access\r\n * control mechanisms. This is a lightweight version that doesn't allow enumerating role\r\n * members except through off-chain means by accessing the contract event logs. Some\r\n * applications may benefit from on-chain enumerability, for those cases see\r\n * {AccessControlEnumerable}.\r\n *\r\n * Roles are referred to by their `bytes32` identifier. These should be exposed\r\n * in the external API and be unique. The best way to achieve this is by\r\n * using `public constant` hash digests:\r\n *\r\n * ```\r\n * bytes32 public constant MY_ROLE = keccak256(\"MY_ROLE\");\r\n * ```\r\n *\r\n * Roles can be used to represent a set of permissions. To restrict access to a\r\n * function call, use {hasRole}:\r\n *\r\n * ```\r\n * function foo() public {\r\n *     require(hasRole(MY_ROLE, msg.sender));\r\n *     ...\r\n * }\r\n * ```\r\n *\r\n * Roles can be granted and revoked dynamically via the {grantRole} and\r\n * {revokeRole} functions. Each role has an associated admin role, and only\r\n * accounts that have a role's admin role can call {grantRole} and {revokeRole}.\r\n *\r\n * By default, the admin role for all roles is `DEFAULT_ADMIN_ROLE`, which means\r\n * that only accounts with this role will be able to grant or revoke other\r\n * roles. More complex role relationships can be created by using\r\n * {_setRoleAdmin}.\r\n *\r\n * WARNING: The `DEFAULT_ADMIN_ROLE` is also its own admin: it has permission to\r\n * grant and revoke this role. Extra precautions should be taken to secure\r\n * accounts that have been granted it.\r\n */\r\nabstract contract AccessControl is Context, IAccessControl, ERC165 {\r\n    struct RoleData {\r\n        mapping(address => bool) members;\r\n        bytes32 adminRole;\r\n    }\r\n\r\n    mapping(bytes32 => RoleData) private _roles;\r\n\r\n    bytes32 public constant DEFAULT_ADMIN_ROLE = 0x00;\r\n\r\n    /**\r\n     * @dev Modifier that checks that an account has a specific role. Reverts\r\n     * with a standardized message including the required role.\r\n     *\r\n     * The format of the revert reason is given by the following regular expression:\r\n     *\r\n     *  /^AccessControl: account (0x[0-9a-f]{40}) is missing role (0x[0-9a-f]{64})$/\r\n     *\r\n     * _Available since v4.1._\r\n     */\r\n    modifier onlyRole(bytes32 role) {\r\n        _checkRole(role, _msgSender());\r\n        _;\r\n    }\r\n\r\n    /**\r\n     * @dev See {IERC165-supportsInterface}.\r\n     */\r\n    function supportsInterface(bytes4 interfaceId)\r\n        public\r\n        view\r\n        virtual\r\n        override\r\n        returns (bool)\r\n    {\r\n        return\r\n            interfaceId == type(IAccessControl).interfaceId ||\r\n            super.supportsInterface(interfaceId);\r\n    }\r\n\r\n    /**\r\n     * @dev Returns `true` if `account` has been granted `role`.\r\n     */\r\n    function hasRole(bytes32 role, address account)\r\n        public\r\n        view\r\n        override\r\n        returns (bool)\r\n    {\r\n        return _roles[role].members[account];\r\n    }\r\n\r\n    /**\r\n     * @dev Revert with a standard message if `account` is missing `role`.\r\n     *\r\n     * The format of the revert reason is given by the following regular expression:\r\n     *\r\n     *  /^AccessControl: account (0x[0-9a-f]{40}) is missing role (0x[0-9a-f]{64})$/\r\n     */\r\n    function _checkRole(bytes32 role, address account) internal view {\r\n        if (!hasRole(role, account)) {\r\n            revert(\r\n                string(\r\n                    abi.encodePacked(\r\n                        \"AccessControl: account \",\r\n                        Strings.toHexString(uint160(account), 20),\r\n                        \" is missing role \",\r\n                        Strings.toHexString(uint256(role), 32)\r\n                    )\r\n                )\r\n            );\r\n        }\r\n    }\r\n\r\n    /**\r\n     * @dev Returns the admin role that controls `role`. See {grantRole} and\r\n     * {revokeRole}.\r\n     *\r\n     * To change a role's admin, use {_setRoleAdmin}.\r\n     */\r\n    function getRoleAdmin(bytes32 role) public view override returns (bytes32) {\r\n        return _roles[role].adminRole;\r\n    }\r\n\r\n    /**\r\n     * @dev Grants `role` to `account`.\r\n     *\r\n     * If `account` had not been already granted `role`, emits a {RoleGranted}\r\n     * event.\r\n     *\r\n     * Requirements:\r\n     *\r\n     * - the caller must have ``role``'s admin role.\r\n     */\r\n    function grantRole(bytes32 role, address account)\r\n        public\r\n        virtual\r\n        override\r\n        onlyRole(getRoleAdmin(role))\r\n    {\r\n        _grantRole(role, account);\r\n    }\r\n\r\n    /**\r\n     * @dev Revokes `role` from `account`.\r\n     *\r\n     * If `account` had been granted `role`, emits a {RoleRevoked} event.\r\n     *\r\n     * Requirements:\r\n     *\r\n     * - the caller must have ``role``'s admin role.\r\n     */\r\n    function revokeRole(bytes32 role, address account)\r\n        public\r\n        virtual\r\n        override\r\n        onlyRole(getRoleAdmin(role))\r\n    {\r\n        _revokeRole(role, account);\r\n    }\r\n\r\n    /**\r\n     * @dev Revokes `role` from the calling account.\r\n     *\r\n     * Roles are often managed via {grantRole} and {revokeRole}: this function's\r\n     * purpose is to provide a mechanism for accounts to lose their privileges\r\n     * if they are compromised (such as when a trusted device is misplaced).\r\n     *\r\n     * If the calling account had been granted `role`, emits a {RoleRevoked}\r\n     * event.\r\n     *\r\n     * Requirements:\r\n     *\r\n     * - the caller must be `account`.\r\n     */\r\n    function renounceRole(bytes32 role, address account)\r\n        public\r\n        virtual\r\n        override\r\n    {\r\n        require(\r\n            account == _msgSender(),\r\n            \"AccessControl: can only renounce roles for self\"\r\n        );\r\n\r\n        _revokeRole(role, account);\r\n    }\r\n\r\n    /**\r\n     * @dev Grants `role` to `account`.\r\n     *\r\n     * If `account` had not been already granted `role`, emits a {RoleGranted}\r\n     * event. Note that unlike {grantRole}, this function doesn't perform any\r\n     * checks on the calling account.\r\n     *\r\n     * [WARNING]\r\n     * ====\r\n     * This function should only be called from the constructor when setting\r\n     * up the initial roles for the system.\r\n     *\r\n     * Using this function in any other way is effectively circumventing the admin\r\n     * system imposed by {AccessControl}.\r\n     * ====\r\n     */\r\n    function _setupRole(bytes32 role, address account) internal virtual {\r\n        _grantRole(role, account);\r\n    }\r\n\r\n    /**\r\n     * @dev Sets `adminRole` as ``role``'s admin role.\r\n     *\r\n     * Emits a {RoleAdminChanged} event.\r\n     */\r\n    function _setRoleAdmin(bytes32 role, bytes32 adminRole) internal virtual {\r\n        bytes32 previousAdminRole = getRoleAdmin(role);\r\n        _roles[role].adminRole = adminRole;\r\n        emit RoleAdminChanged(role, previousAdminRole, adminRole);\r\n    }\r\n\r\n    function _grantRole(bytes32 role, address account) private {\r\n        if (!hasRole(role, account)) {\r\n            _roles[role].members[account] = true;\r\n            emit RoleGranted(role, account, _msgSender());\r\n        }\r\n    }\r\n\r\n    function _revokeRole(bytes32 role, address account) private {\r\n        if (hasRole(role, account)) {\r\n            _roles[role].members[account] = false;\r\n            emit RoleRevoked(role, account, _msgSender());\r\n        }\r\n    }\r\n}\r\n\r\n/**\r\n * @dev Wrappers over Solidity's arithmetic operations.\r\n *\r\n * NOTE: `SafeMath` is no longer needed starting with Solidity 0.8. The compiler\r\n * now has built in overflow checking.\r\n */\r\nlibrary SafeMath {\r\n    /**\r\n     * @dev Returns the addition of two unsigned integers, with an overflow flag.\r\n     *\r\n     * _Available since v3.4._\r\n     */\r\n    function tryAdd(uint256 a, uint256 b)\r\n        internal\r\n        pure\r\n        returns (bool, uint256)\r\n    {\r\n        unchecked {\r\n            uint256 c = a + b;\r\n            if (c < a) return (false, 0);\r\n            return (true, c);\r\n        }\r\n    }\r\n\r\n    /**\r\n     * @dev Returns the substraction of two unsigned integers, with an overflow flag.\r\n     *\r\n     * _Available since v3.4._\r\n     */\r\n    function trySub(uint256 a, uint256 b)\r\n        internal\r\n        pure\r\n        returns (bool, uint256)\r\n    {\r\n        unchecked {\r\n            if (b > a) return (false, 0);\r\n            return (true, a - b);\r\n        }\r\n    }\r\n\r\n    /**\r\n     * @dev Returns the multiplication of two unsigned integers, with an overflow flag.\r\n     *\r\n     * _Available since v3.4._\r\n     */\r\n    function tryMul(uint256 a, uint256 b)\r\n        internal\r\n        pure\r\n        returns (bool, uint256)\r\n    {\r\n        unchecked {\r\n            // Gas optimization: this is cheaper than requiring 'a' not being zero, but the\r\n            // benefit is lost if 'b' is also tested.\r\n            // See: https://github.com/OpenZeppelin/openzeppelin-contracts/pull/522\r\n            if (a == 0) return (true, 0);\r\n            uint256 c = a * b;\r\n            if (c / a != b) return (false, 0);\r\n            return (true, c);\r\n        }\r\n    }\r\n\r\n    /**\r\n     * @dev Returns the division of two unsigned integers, with a division by zero flag.\r\n     *\r\n     * _Available since v3.4._\r\n     */\r\n    function tryDiv(uint256 a, uint256 b)\r\n        internal\r\n        pure\r\n        returns (bool, uint256)\r\n    {\r\n        unchecked {\r\n            if (b == 0) return (false, 0);\r\n            return (true, a / b);\r\n        }\r\n    }\r\n\r\n    /**\r\n     * @dev Returns the remainder of dividing two unsigned integers, with a division by zero flag.\r\n     *\r\n     * _Available since v3.4._\r\n     */\r\n    function tryMod(uint256 a, uint256 b)\r\n        internal\r\n        pure\r\n        returns (bool, uint256)\r\n    {\r\n        unchecked {\r\n            if (b == 0) return (false, 0);\r\n            return (true, a % b);\r\n        }\r\n    }\r\n\r\n    /**\r\n     * @dev Returns the addition of two unsigned integers, reverting on\r\n     * overflow.\r\n     *\r\n     * Counterpart to Solidity's `+` operator.\r\n     *\r\n     * Requirements:\r\n     *\r\n     * - Addition cannot overflow.\r\n     */\r\n    function add(uint256 a, uint256 b) internal pure returns (uint256) {\r\n        return a + b;\r\n    }\r\n\r\n    /**\r\n     * @dev Returns the subtraction of two unsigned integers, reverting on\r\n     * overflow (when the result is negative).\r\n     *\r\n     * Counterpart to Solidity's `-` operator.\r\n     *\r\n     * Requirements:\r\n     *\r\n     * - Subtraction cannot overflow.\r\n     */\r\n    function sub(uint256 a, uint256 b) internal pure returns (uint256) {\r\n        return a - b;\r\n    }\r\n\r\n    /**\r\n     * @dev Returns the multiplication of two unsigned integers, reverting on\r\n     * overflow.\r\n     *\r\n     * Counterpart to Solidity's `*` operator.\r\n     *\r\n     * Requirements:\r\n     *\r\n     * - Multiplication cannot overflow.\r\n     */\r\n    function mul(uint256 a, uint256 b) internal pure returns (uint256) {\r\n        return a * b;\r\n    }\r\n\r\n    /**\r\n     * @dev Returns the integer division of two unsigned integers, reverting on\r\n     * division by zero. The result is rounded towards zero.\r\n     *\r\n     * Counterpart to Solidity's `/` operator.\r\n     *\r\n     * Requirements:\r\n     *\r\n     * - The divisor cannot be zero.\r\n     */\r\n    function div(uint256 a, uint256 b) internal pure returns (uint256) {\r\n        return a / b;\r\n    }\r\n\r\n    /**\r\n     * @dev Returns the remainder of dividing two unsigned integers. (unsigned integer modulo),\r\n     * reverting when dividing by zero.\r\n     *\r\n     * Counterpart to Solidity's `%` operator. This function uses a `revert`\r\n     * opcode (which leaves remaining gas untouched) while Solidity uses an\r\n     * invalid opcode to revert (consuming all remaining gas).\r\n     *\r\n     * Requirements:\r\n     *\r\n     * - The divisor cannot be zero.\r\n     */\r\n    function mod(uint256 a, uint256 b) internal pure returns (uint256) {\r\n        return a % b;\r\n    }\r\n\r\n    /**\r\n     * @dev Returns the subtraction of two unsigned integers, reverting with custom message on\r\n     * overflow (when the result is negative).\r\n     *\r\n     * CAUTION: This function is deprecated because it requires allocating memory for the error\r\n     * message unnecessarily. For custom revert reasons use {trySub}.\r\n     *\r\n     * Counterpart to Solidity's `-` operator.\r\n     *\r\n     * Requirements:\r\n     *\r\n     * - Subtraction cannot overflow.\r\n     */\r\n    function sub(\r\n        uint256 a,\r\n        uint256 b,\r\n        string memory errorMessage\r\n    ) internal pure returns (uint256) {\r\n        unchecked {\r\n            require(b <= a, errorMessage);\r\n            return a - b;\r\n        }\r\n    }\r\n\r\n    /**\r\n     * @dev Returns the integer division of two unsigned integers, reverting with custom message on\r\n     * division by zero. The result is rounded towards zero.\r\n     *\r\n     * Counterpart to Solidity's `/` operator. Note: this function uses a\r\n     * `revert` opcode (which leaves remaining gas untouched) while Solidity\r\n     * uses an invalid opcode to revert (consuming all remaining gas).\r\n     *\r\n     * Requirements:\r\n     *\r\n     * - The divisor cannot be zero.\r\n     */\r\n    function div(\r\n        uint256 a,\r\n        uint256 b,\r\n        string memory errorMessage\r\n    ) internal pure returns (uint256) {\r\n        unchecked {\r\n            require(b > 0, errorMessage);\r\n            return a / b;\r\n        }\r\n    }\r\n\r\n    /**\r\n     * @dev Returns the remainder of dividing two unsigned integers. (unsigned integer modulo),\r\n     * reverting with custom message when dividing by zero.\r\n     *\r\n     * CAUTION: This function is deprecated because it requires allocating memory for the error\r\n     * message unnecessarily. For custom revert reasons use {tryMod}.\r\n     *\r\n     * Counterpart to Solidity's `%` operator. This function uses a `revert`\r\n     * opcode (which leaves remaining gas untouched) while Solidity uses an\r\n     * invalid opcode to revert (consuming all remaining gas).\r\n     *\r\n     * Requirements:\r\n     *\r\n     * - The divisor cannot be zero.\r\n     */\r\n    function mod(\r\n        uint256 a,\r\n        uint256 b,\r\n        string memory errorMessage\r\n    ) internal pure returns (uint256) {\r\n        unchecked {\r\n            require(b > 0, errorMessage);\r\n            return a % b;\r\n        }\r\n    }\r\n}\r\n\r\ncontract TrodlStake is ReentrancyGuard, AccessControl {\r\n    using SafeMath for uint256;\r\n\r\n    event Staked(address indexed user, uint256 amount, uint256 total);\r\n    event Unstaked(address indexed user, uint256 amount, uint256 total);\r\n    event Withdraw(address indexed user, uint256 amount, uint256 total);\r\n    event ReStake(address indexed user, uint256 amount, uint256 total);\r\n    event RewardUsed(address indexed user, uint256 amount);\r\n\r\n    bytes32 REWARD_USER = keccak256(bytes(\"REWARD_USER\"));\r\n    uint256 public _apy; // annual percentage yield\r\n    uint256 public _lockupPeriod; // Lock Up period in days\r\n\r\n    TokenPool private _troStakingPool;\r\n\r\n    struct UserRewardInfo {\r\n        uint256 stakedAmount;\r\n        uint256 unstakedAmount;\r\n        uint256 rewardMinted;\r\n        uint256 rewardUsed;\r\n        uint256 lastAccountingTimestampSec;\r\n    }\r\n\r\n    mapping(address => UserRewardInfo) private _userRewards;\r\n\r\n    address[] private _stakers;\r\n\r\n    constructor(\r\n        IERC20 token,\r\n        uint256 apy,\r\n        uint256 lockupPeriod\r\n    ) {\r\n        _apy = apy;\r\n        _lockupPeriod = lockupPeriod;\r\n        _troStakingPool = new TokenPool(token);\r\n        _setupRole(DEFAULT_ADMIN_ROLE, msg.sender); // To grant IDO to REWARD_USER role later on\r\n    }\r\n\r\n    function stake(uint256 amount) public nonReentrant {\r\n        require(amount > 0, \"TrodlStake: stake amount ZERO\");\r\n\r\n        UserRewardInfo memory userRewardInfo = _userRewards[msg.sender];\r\n\r\n        // uint256 actualTransferAmount = _getTransactionAmount(amount);\r\n\r\n        bool mathStatus;\r\n\r\n        if (userRewardInfo.lastAccountingTimestampSec == 0) {\r\n            _stakers.push(msg.sender);\r\n        }\r\n        if (userRewardInfo.lastAccountingTimestampSec != 0) {\r\n            //calculate applicable rewards so far and add it\r\n            uint256 rewardsUntilNow = calculateReward(userRewardInfo);\r\n\r\n            (mathStatus, userRewardInfo.rewardMinted) = userRewardInfo\r\n                .rewardMinted\r\n                .tryAdd(rewardsUntilNow);\r\n            require(mathStatus == true, \"TrodlStake: Math Error\");\r\n        }\r\n\r\n        (mathStatus, userRewardInfo.stakedAmount) = userRewardInfo\r\n            .stakedAmount\r\n            .tryAdd(amount);\r\n        require(mathStatus == true, \"TrodlStake: Math Error\");\r\n\r\n        userRewardInfo.lastAccountingTimestampSec = block.timestamp;\r\n        _userRewards[msg.sender] = userRewardInfo;\r\n\r\n        try\r\n            _troStakingPool.token().transferFrom(\r\n                msg.sender,\r\n                address(_troStakingPool),\r\n                amount\r\n            )\r\n        returns (bool) {\r\n            emit Staked(msg.sender, amount, userRewardInfo.stakedAmount);\r\n        } catch Error(string memory) {\r\n            revert(\"TrodlStake: Failed transfer to staking pool\");\r\n        } catch (bytes memory) {\r\n            // This is executed in case revert() was used.\r\n            revert(\"TrodlStake: Failed transfer to staking pool\");\r\n        }\r\n    }\r\n\r\n    function unstakeAll() public {\r\n        unstake(_userRewards[msg.sender].stakedAmount);\r\n    }\r\n\r\n    function unstake(uint256 amount) public nonReentrant {\r\n        require(amount > 0, \"TrodlStake: Require Non Zero Value\");\r\n\r\n        UserRewardInfo storage userRewardInfo = _userRewards[msg.sender];\r\n        // require(userRewardInfo.stakedAmount > 0, \"TrodlStake: No Staked TRO\");\r\n        require(\r\n            amount <= userRewardInfo.stakedAmount,\r\n            \"TrodlStake: Not enough Staked TRO\"\r\n        );\r\n\r\n        bool mathStatus;\r\n        uint256 rewardsUntilNow = calculateReward(userRewardInfo);\r\n\r\n        (mathStatus, userRewardInfo.rewardMinted) = userRewardInfo\r\n            .rewardMinted\r\n            .tryAdd(rewardsUntilNow);\r\n        require(mathStatus == true, \"TrodlStake: Math Error\");\r\n\r\n        (mathStatus, userRewardInfo.stakedAmount) = userRewardInfo\r\n            .stakedAmount\r\n            .trySub(amount);\r\n        require(mathStatus == true, \"TrodlStake: Math Error\");\r\n\r\n        (mathStatus, userRewardInfo.unstakedAmount) = userRewardInfo\r\n            .unstakedAmount\r\n            .tryAdd(amount);\r\n        require(mathStatus == true, \"TrodlStake: Math Error\");\r\n\r\n        userRewardInfo.lastAccountingTimestampSec = block.timestamp;\r\n\r\n        emit Unstaked(msg.sender, amount, userRewardInfo.stakedAmount);\r\n    }\r\n\r\n    function withdrawAllTRO() public {\r\n        return withdrawTRO(_userRewards[msg.sender].unstakedAmount);\r\n    }\r\n\r\n    function withdrawTRO(uint256 amount) public nonReentrant {\r\n        require(amount > 0, \"TrodlStake: Require Non Zero Value\");\r\n\r\n        UserRewardInfo storage userRewardInfo = _userRewards[msg.sender];\r\n\r\n        require(\r\n            amount <= userRewardInfo.unstakedAmount,\r\n            \"TrodlStake: Not enough Un-Staked TRO\"\r\n        );\r\n\r\n        require(\r\n            block.timestamp >=\r\n                (userRewardInfo.lastAccountingTimestampSec +\r\n                    (_lockupPeriod * 1 days)),\r\n            \"TrodlStake: Withdraw in LockPeriod\"\r\n        );\r\n\r\n        bool mathStatus;\r\n        if (userRewardInfo.stakedAmount > 0) {\r\n            uint256 rewardsUntilNow = calculateReward(userRewardInfo);\r\n\r\n            (mathStatus, userRewardInfo.rewardMinted) = userRewardInfo\r\n                .rewardMinted\r\n                .tryAdd(rewardsUntilNow);\r\n            require(mathStatus == true, \"TrodlStake: Math Error\");\r\n        }\r\n\r\n        (mathStatus, userRewardInfo.unstakedAmount) = userRewardInfo\r\n            .unstakedAmount\r\n            .trySub(amount);\r\n        require(mathStatus == true, \"TrodlStake: Math Error\");\r\n\r\n        userRewardInfo.lastAccountingTimestampSec = block.timestamp;\r\n\r\n        try _troStakingPool.transfer(msg.sender, amount) returns (bool) {\r\n            // uint256 actualTransferAmount = _getTransactionAmount(amount);\r\n            emit Withdraw(msg.sender, amount, userRewardInfo.stakedAmount);\r\n        } catch Error(string memory) {\r\n            revert(\"TrodlStake: Transfer Error from Pool\");\r\n        } catch (bytes memory) {\r\n            revert(\"TrodlStake: Transfer Error from Pool\");\r\n        }\r\n    }\r\n\r\n    function reStake() public nonReentrant {\r\n        UserRewardInfo storage userRewardInfo = _userRewards[msg.sender];\r\n\r\n        uint256 restakeAmount = userRewardInfo.unstakedAmount;\r\n\r\n        bool mathStatus;\r\n\r\n        //calculate applicable rewards so far and add it\r\n        if (userRewardInfo.stakedAmount > 0) {\r\n            uint256 rewardsUntilNow = calculateReward(userRewardInfo);\r\n\r\n            (mathStatus, userRewardInfo.rewardMinted) = userRewardInfo\r\n                .rewardMinted\r\n                .tryAdd(rewardsUntilNow);\r\n            require(mathStatus == true, \"TrodlStake: Math Error\");\r\n        }\r\n\r\n        (mathStatus, userRewardInfo.stakedAmount) = userRewardInfo\r\n            .stakedAmount\r\n            .tryAdd(userRewardInfo.unstakedAmount);\r\n        require(mathStatus == true, \"TrodlStake: Math Error\");\r\n\r\n        userRewardInfo.unstakedAmount = 0;\r\n        userRewardInfo.lastAccountingTimestampSec = block.timestamp;\r\n\r\n        emit ReStake(msg.sender, restakeAmount, userRewardInfo.stakedAmount);\r\n        restakeAmount = 0;\r\n    }\r\n\r\n    function usexTRO(uint256 amount, address user) public {\r\n        require(\r\n            hasRole(REWARD_USER, msg.sender),\r\n            \"TrodlStake: Address cannot use rewards\"\r\n        );\r\n\r\n        UserRewardInfo storage userRewardInfo = _userRewards[user];\r\n\r\n        bool mathStatus;\r\n        if (userRewardInfo.stakedAmount > 0) {\r\n            //calculate applicable rewards so far and add it\r\n            uint256 rewardsUntilNow = calculateReward(userRewardInfo);\r\n\r\n            (mathStatus, userRewardInfo.rewardMinted) = userRewardInfo\r\n                .rewardMinted\r\n                .tryAdd(rewardsUntilNow);\r\n\r\n            require(mathStatus == true, \"TrodlStake: Math Error\");\r\n        }\r\n\r\n        uint256 usableRewards;\r\n        (mathStatus, usableRewards) = userRewardInfo.rewardMinted.trySub(\r\n            userRewardInfo.rewardUsed\r\n        );\r\n\r\n        require(amount <= usableRewards, \"TrodlStake: Insufficient Rewards\");\r\n\r\n        (mathStatus, userRewardInfo.rewardUsed) = userRewardInfo\r\n            .rewardUsed\r\n            .tryAdd(amount);\r\n\r\n        userRewardInfo.lastAccountingTimestampSec = block.timestamp;\r\n\r\n        emit RewardUsed(msg.sender, amount);\r\n    }\r\n\r\n    function grantRewardUserRole(address rewardUser) public {\r\n        grantRole(REWARD_USER, rewardUser);\r\n    }\r\n\r\n    function revokeRewardUserRole(address rewardUser) public {\r\n        revokeRole(REWARD_USER, rewardUser);\r\n    }\r\n\r\n    // function _getTransactionAmount(uint256 amount)\r\n    //     private\r\n    //     pure\r\n    //     returns (uint256)\r\n    // {\r\n    //     uint256 tokFeeHalf = amount.div(200);\r\n    //     uint256 tFee = tokFeeHalf.mul(2);\r\n    //     uint256 tokTransferAmount = amount.sub(tFee);\r\n    //     return tokTransferAmount;\r\n    // }\r\n\r\n    function calculateReward(UserRewardInfo memory userRewardInfo)\r\n        private\r\n        view\r\n        returns (uint256)\r\n    {\r\n        uint256 currentRewards = userRewardInfo.stakedAmount.mul(_apy).mul(\r\n            block.timestamp.sub(userRewardInfo.lastAccountingTimestampSec)\r\n        );\r\n\r\n        return currentRewards.div(8640000);\r\n    }\r\n\r\n    function getxTROBalance(address user) public view returns (uint256) {\r\n        UserRewardInfo memory userRewardInfo = _userRewards[user];\r\n        uint256 currentRewards = calculateReward(userRewardInfo);\r\n\r\n        bool mathStatus;\r\n\r\n        uint256 balance = userRewardInfo.rewardMinted.add(currentRewards);\r\n        (mathStatus, balance) = balance.trySub(userRewardInfo.rewardUsed);\r\n\r\n        return balance;\r\n    }\r\n\r\n    function getTotalxTRO() public view returns (uint256) {\r\n        uint256 balance;\r\n        for (uint256 i = 0; i < _stakers.length; i++) {\r\n            balance = balance.add(getxTROBalance(_stakers[i])).add(\r\n                _userRewards[_stakers[i]].rewardUsed\r\n            );\r\n        }\r\n        return balance;\r\n    }\r\n\r\n    function getStakedTROBalance() public view returns (uint256) {\r\n        return _userRewards[msg.sender].stakedAmount;\r\n    }\r\n\r\n    function getUnstakedTROBalance() public view returns (uint256) {\r\n        return _userRewards[msg.sender].unstakedAmount;\r\n    }\r\n\r\n    function getTotalTROStaked() public view returns (uint256) {\r\n        return _troStakingPool.balance();\r\n    }\r\n\r\n    function getTROStakingPool() public view returns (address) {\r\n        return address(_troStakingPool);\r\n    }\r\n\r\n    function getAllStakers() public view returns (address[] memory) {\r\n        return _stakers;\r\n    }\r\n\r\n    function getUserRewardInfo(address user)\r\n        public\r\n        view\r\n        returns (UserRewardInfo memory info)\r\n    {\r\n        return _userRewards[user];\r\n    }\r\n}\r\n",
  "sourcePath": "C:\\Users\\Sudeep\\Desktop\\personal\\trodl\\trodl-stake\\contracts\\TrodlStake.sol",
  "compiler": {
    "name": "solc",
    "version": "0.8.9+commit.e5eed63a.Emscripten.clang"
  },
  "schemaVersion": "3.4.2",
  "updatedAt": "2021-10-17T14:25:18.842Z",
  "networkType": "ethereum",
  "devdoc": {
    "kind": "dev",
    "methods": {
      "getRoleAdmin(bytes32)": {
        "details": "Returns the admin role that controls `role`. See {grantRole} and {revokeRole}. To change a role's admin, use {_setRoleAdmin}."
      },
      "grantRole(bytes32,address)": {
        "details": "Grants `role` to `account`. If `account` had not been already granted `role`, emits a {RoleGranted} event. Requirements: - the caller must have ``role``'s admin role."
      },
      "hasRole(bytes32,address)": {
        "details": "Returns `true` if `account` has been granted `role`."
      },
      "renounceRole(bytes32,address)": {
        "details": "Revokes `role` from the calling account. Roles are often managed via {grantRole} and {revokeRole}: this function's purpose is to provide a mechanism for accounts to lose their privileges if they are compromised (such as when a trusted device is misplaced). If the calling account had been granted `role`, emits a {RoleRevoked} event. Requirements: - the caller must be `account`."
      },
      "revokeRole(bytes32,address)": {
        "details": "Revokes `role` from `account`. If `account` had been granted `role`, emits a {RoleRevoked} event. Requirements: - the caller must have ``role``'s admin role."
      },
      "supportsInterface(bytes4)": {
        "details": "See {IERC165-supportsInterface}."
      }
    },
    "version": 1
  },
  "userdoc": {
    "kind": "user",
    "methods": {},
    "version": 1
  }
}